{
  "_format": "hh-sol-artifact-1",
  "contractName": "ERC20Factory",
  "sourceName": "contracts/ERC20Factory.sol",
  "abi": [
    {
      "anonymous": false,
      "inputs": [
        {
          "indexed": false,
          "internalType": "string",
          "name": "_name",
          "type": "string"
        },
        {
          "indexed": false,
          "internalType": "string",
          "name": "_symbol",
          "type": "string"
        },
        {
          "indexed": false,
          "internalType": "string",
          "name": "_tokenType",
          "type": "string"
        },
        {
          "indexed": false,
          "internalType": "address",
          "name": "_tokenAddress",
          "type": "address"
        }
      ],
      "name": "Created",
      "type": "event"
    },
    {
      "inputs": [
        {
          "internalType": "string",
          "name": "name_",
          "type": "string"
        },
        {
          "internalType": "string",
          "name": "symbol_",
          "type": "string"
        },
        {
          "internalType": "bool",
          "name": "isBurnable_",
          "type": "bool"
        },
        {
          "internalType": "bool",
          "name": "isMintable_",
          "type": "bool"
        },
        {
          "internalType": "uint256",
          "name": "initialSupply_",
          "type": "uint256"
        }
      ],
      "name": "create",
      "outputs": [
        {
          "internalType": "bool",
          "name": "",
          "type": "bool"
        }
      ],
      "stateMutability": "nonpayable",
      "type": "function"
    },
    {
      "inputs": [],
      "name": "getAll",
      "outputs": [
        {
          "components": [
            {
              "internalType": "string",
              "name": "name",
              "type": "string"
            },
            {
              "internalType": "string",
              "name": "symbol",
              "type": "string"
            },
            {
              "internalType": "string",
              "name": "tokenType",
              "type": "string"
            },
            {
              "internalType": "bool",
              "name": "isBurnable",
              "type": "bool"
            },
            {
              "internalType": "bool",
              "name": "isMintable",
              "type": "bool"
            },
            {
              "internalType": "address",
              "name": "tokenAddress",
              "type": "address"
            }
          ],
          "internalType": "struct Token[]",
          "name": "",
          "type": "tuple[]"
        }
      ],
      "stateMutability": "view",
      "type": "function"
    }
  ],
  "bytecode": "0x608060405234801561001057600080fd5b50613af7806100206000396000f3fe60806040523480156200001157600080fd5b50600436106200003a5760003560e01c806353ed5143146200003f578063d72cdf271462000061575b600080fd5b6200004962000097565b60405162000058919062000c93565b60405180910390f35b6200007f600480360381019062000079919062000e88565b6200039a565b6040516200008e919062000f5f565b60405180910390f35b6060600033905060008060008373ffffffffffffffffffffffffffffffffffffffff1673ffffffffffffffffffffffffffffffffffffffff168152602001908152602001600020805480602002602001604051908101604052809291908181526020016000905b828210156200038c57838290600052602060002090600402016040518060c0016040529081600082018054620001349062000fab565b80601f0160208091040260200160405190810160405280929190818152602001828054620001629062000fab565b8015620001b35780601f106200018757610100808354040283529160200191620001b3565b820191906000526020600020905b8154815290600101906020018083116200019557829003601f168201915b50505050508152602001600182018054620001ce9062000fab565b80601f0160208091040260200160405190810160405280929190818152602001828054620001fc9062000fab565b80156200024d5780601f1062000221576101008083540402835291602001916200024d565b820191906000526020600020905b8154815290600101906020018083116200022f57829003601f168201915b50505050508152602001600282018054620002689062000fab565b80601f0160208091040260200160405190810160405280929190818152602001828054620002969062000fab565b8015620002e75780601f10620002bb57610100808354040283529160200191620002e7565b820191906000526020600020905b815481529060010190602001808311620002c957829003601f168201915b505050505081526020016003820160009054906101000a900460ff161515151581526020016003820160019054906101000a900460ff161515151581526020016003820160029054906101000a900473ffffffffffffffffffffffffffffffffffffffff1673ffffffffffffffffffffffffffffffffffffffff1673ffffffffffffffffffffffffffffffffffffffff168152505081526020019060010190620000fe565b505050509050809250505090565b6000808686868686604051620003b09062000656565b620003c095949392919062001043565b604051809103906000f080158015620003dd573d6000803e3d6000fd5b5090506000819050600033905060008060008373ffffffffffffffffffffffffffffffffffffffff1673ffffffffffffffffffffffffffffffffffffffff1681526020019081526020016000209050806040518060c001604052808c81526020018b81526020016040518060400160405280600581526020017f455243323000000000000000000000000000000000000000000000000000000081525081526020018a1515815260200189151581526020018573ffffffffffffffffffffffffffffffffffffffff1681525090806001815401808255809150506001900390600052602060002090600402016000909190919091506000820151816000019080519060200190620004f092919062000664565b5060208201518160010190805190602001906200050f92919062000664565b5060408201518160020190805190602001906200052e92919062000664565b5060608201518160030160006101000a81548160ff02191690831515021790555060808201518160030160016101000a81548160ff02191690831515021790555060a08201518160030160026101000a81548173ffffffffffffffffffffffffffffffffffffffff021916908373ffffffffffffffffffffffffffffffffffffffff1602179055505050806000808473ffffffffffffffffffffffffffffffffffffffff1673ffffffffffffffffffffffffffffffffffffffff16815260200190815260200160002090805462000607929190620006f5565b507fc74c6b00a418ea4b4b4b8db44c0b0420669c6e411b9aa270d9ff8a7ad0c498fe8a8a856040516200063d939291906200110f565b60405180910390a1600194505050505095945050505050565b612952806200117083390190565b828054620006729062000fab565b90600052602060002090601f016020900481019282620006965760008555620006e2565b82601f10620006b157805160ff1916838001178555620006e2565b82800160010185558215620006e2579182015b82811115620006e1578251825591602001919060010190620006c4565b5b509050620006f191906200087f565b5090565b8280548282559060005260206000209060040281019282156200086c5760005260206000209160040282015b828111156200086b5782826000820181600001908054620007429062000fab565b6200074f9291906200089e565b506001820181600101908054620007669062000fab565b620007739291906200089e565b5060028201816002019080546200078a9062000fab565b620007979291906200089e565b506003820160009054906101000a900460ff168160030160006101000a81548160ff0219169083151502179055506003820160019054906101000a900460ff168160030160016101000a81548160ff0219169083151502179055506003820160029054906101000a900473ffffffffffffffffffffffffffffffffffffffff168160030160026101000a81548173ffffffffffffffffffffffffffffffffffffffff021916908373ffffffffffffffffffffffffffffffffffffffff16021790555050509160040191906004019062000721565b5b5090506200087b919062000936565b5090565b5b808211156200089a57600081600090555060010162000880565b5090565b828054620008ac9062000fab565b90600052602060002090601f016020900481019282620008d0576000855562000923565b82601f10620008e3578054855562000923565b828001600101855582156200092357600052602060002091601f016020900482015b828111156200092257825482559160010191906001019062000905565b5b5090506200093291906200087f565b5090565b5b80821115620009d05760008082016000620009539190620009d4565b600182016000620009659190620009d4565b600282016000620009779190620009d4565b6003820160006101000a81549060ff02191690556003820160016101000a81549060ff02191690556003820160026101000a81549073ffffffffffffffffffffffffffffffffffffffff02191690555060040162000937565b5090565b508054620009e29062000fab565b6000825580601f10620009f6575062000a17565b601f01602090049060005260206000209081019062000a1691906200087f565b5b50565b600081519050919050565b600082825260208201905092915050565b6000819050602082019050919050565b600081519050919050565b600082825260208201905092915050565b60005b8381101562000a8257808201518184015260208101905062000a65565b8381111562000a92576000848401525b50505050565b6000601f19601f8301169050919050565b600062000ab68262000a46565b62000ac2818562000a51565b935062000ad481856020860162000a62565b62000adf8162000a98565b840191505092915050565b60008115159050919050565b62000b018162000aea565b82525050565b600073ffffffffffffffffffffffffffffffffffffffff82169050919050565b600062000b348262000b07565b9050919050565b62000b468162000b27565b82525050565b600060c083016000830151848203600086015262000b6b828262000aa9565b9150506020830151848203602086015262000b87828262000aa9565b9150506040830151848203604086015262000ba3828262000aa9565b915050606083015162000bba606086018262000af6565b50608083015162000bcf608086018262000af6565b5060a083015162000be460a086018262000b3b565b508091505092915050565b600062000bfd838362000b4c565b905092915050565b6000602082019050919050565b600062000c1f8262000a1a565b62000c2b818562000a25565b93508360208202850162000c3f8562000a36565b8060005b8581101562000c81578484038952815162000c5f858262000bef565b945062000c6c8362000c05565b925060208a0199505060018101905062000c43565b50829750879550505050505092915050565b6000602082019050818103600083015262000caf818462000c12565b905092915050565b6000604051905090565b600080fd5b600080fd5b600080fd5b600080fd5b7f4e487b7100000000000000000000000000000000000000000000000000000000600052604160045260246000fd5b62000d0f8262000a98565b810181811067ffffffffffffffff8211171562000d315762000d3062000cd5565b5b80604052505050565b600062000d4662000cb7565b905062000d54828262000d04565b919050565b600067ffffffffffffffff82111562000d775762000d7662000cd5565b5b62000d828262000a98565b9050602081019050919050565b82818337600083830152505050565b600062000db562000daf8462000d59565b62000d3a565b90508281526020810184848401111562000dd45762000dd362000cd0565b5b62000de184828562000d8f565b509392505050565b600082601f83011262000e015762000e0062000ccb565b5b813562000e1384826020860162000d9e565b91505092915050565b62000e278162000aea565b811462000e3357600080fd5b50565b60008135905062000e478162000e1c565b92915050565b6000819050919050565b62000e628162000e4d565b811462000e6e57600080fd5b50565b60008135905062000e828162000e57565b92915050565b600080600080600060a0868803121562000ea75762000ea662000cc1565b5b600086013567ffffffffffffffff81111562000ec85762000ec762000cc6565b5b62000ed68882890162000de9565b955050602086013567ffffffffffffffff81111562000efa5762000ef962000cc6565b5b62000f088882890162000de9565b945050604062000f1b8882890162000e36565b935050606062000f2e8882890162000e36565b925050608062000f418882890162000e71565b9150509295509295909350565b62000f598162000aea565b82525050565b600060208201905062000f76600083018462000f4e565b92915050565b7f4e487b7100000000000000000000000000000000000000000000000000000000600052602260045260246000fd5b6000600282049050600182168062000fc457607f821691505b60208210810362000fda5762000fd962000f7c565b5b50919050565b600082825260208201905092915050565b600062000ffe8262000a46565b6200100a818562000fe0565b93506200101c81856020860162000a62565b620010278162000a98565b840191505092915050565b6200103d8162000e4d565b82525050565b600060a08201905081810360008301526200105f818862000ff1565b9050818103602083015262001075818762000ff1565b905062001086604083018662000f4e565b62001095606083018562000f4e565b620010a4608083018462001032565b9695505050505050565b7f4552433230000000000000000000000000000000000000000000000000000000600082015250565b6000620010e660058362000fe0565b9150620010f382620010ae565b602082019050919050565b620011098162000b27565b82525050565b600060808201905081810360008301526200112b818662000ff1565b9050818103602083015262001141818562000ff1565b905081810360408301526200115681620010d7565b9050620011676060830184620010fe565b94935050505056fe60806040523480156200001157600080fd5b50604051620029523803806200295283398181016040528101906200003791906200079c565b8484816003908051906020019062000051929190620004d7565b5080600490805190602001906200006a929190620004d7565b5050506200008d620000816200014860201b60201c565b6200015060201b60201c565b8460069080519060200190620000a5929190620004d7565b508360079080519060200190620000be929190620004d7565b5082600860006101000a81548160ff02191690831515021790555081600860016101000a81548160ff0219169083151502179055508060098190555060003290506200012b81670de0b6b3a7640000846200011a919062000891565b6200021660201b620009511760201c565b6200013c816200038e60201b60201c565b50505050505062000b6e565b600033905090565b6000600560009054906101000a900473ffffffffffffffffffffffffffffffffffffffff16905081600560006101000a81548173ffffffffffffffffffffffffffffffffffffffff021916908373ffffffffffffffffffffffffffffffffffffffff1602179055508173ffffffffffffffffffffffffffffffffffffffff168173ffffffffffffffffffffffffffffffffffffffff167f8be0079c531659141344cd1fd0a4f28419497f9722a3daafe3b4186f6b6457e060405160405180910390a35050565b600073ffffffffffffffffffffffffffffffffffffffff168273ffffffffffffffffffffffffffffffffffffffff160362000288576040517f08c379a00000000000000000000000000000000000000000000000000000000081526004016200027f9062000953565b60405180910390fd5b6200029c60008383620004a360201b60201c565b8060026000828254620002b0919062000975565b92505081905550806000808473ffffffffffffffffffffffffffffffffffffffff1673ffffffffffffffffffffffffffffffffffffffff168152602001908152602001600020600082825462000307919062000975565b925050819055508173ffffffffffffffffffffffffffffffffffffffff16600073ffffffffffffffffffffffffffffffffffffffff167fddf252ad1be2c89b69c2b068fc378daa952ba7f163c4a11628f55a4df523b3ef836040516200036e9190620009e3565b60405180910390a36200038a60008383620004a860201b60201c565b5050565b6200039e6200014860201b60201c565b73ffffffffffffffffffffffffffffffffffffffff16620003c4620004ad60201b60201c565b73ffffffffffffffffffffffffffffffffffffffff16146200041d576040517f08c379a0000000000000000000000000000000000000000000000000000000008152600401620004149062000a50565b60405180910390fd5b600073ffffffffffffffffffffffffffffffffffffffff168173ffffffffffffffffffffffffffffffffffffffff16036200048f576040517f08c379a0000000000000000000000000000000000000000000000000000000008152600401620004869062000ae8565b60405180910390fd5b620004a0816200015060201b60201c565b50565b505050565b505050565b6000600560009054906101000a900473ffffffffffffffffffffffffffffffffffffffff16905090565b828054620004e59062000b39565b90600052602060002090601f01602090048101928262000509576000855562000555565b82601f106200052457805160ff191683800117855562000555565b8280016001018555821562000555579182015b828111156200055457825182559160200191906001019062000537565b5b50905062000564919062000568565b5090565b5b808211156200058357600081600090555060010162000569565b5090565b6000604051905090565b600080fd5b600080fd5b600080fd5b600080fd5b6000601f19601f8301169050919050565b7f4e487b7100000000000000000000000000000000000000000000000000000000600052604160045260246000fd5b620005f082620005a5565b810181811067ffffffffffffffff82111715620006125762000611620005b6565b5b80604052505050565b60006200062762000587565b9050620006358282620005e5565b919050565b600067ffffffffffffffff821115620006585762000657620005b6565b5b6200066382620005a5565b9050602081019050919050565b60005b838110156200069057808201518184015260208101905062000673565b83811115620006a0576000848401525b50505050565b6000620006bd620006b7846200063a565b6200061b565b905082815260208101848484011115620006dc57620006db620005a0565b5b620006e984828562000670565b509392505050565b600082601f8301126200070957620007086200059b565b5b81516200071b848260208601620006a6565b91505092915050565b60008115159050919050565b6200073b8162000724565b81146200074757600080fd5b50565b6000815190506200075b8162000730565b92915050565b6000819050919050565b620007768162000761565b81146200078257600080fd5b50565b60008151905062000796816200076b565b92915050565b600080600080600060a08688031215620007bb57620007ba62000591565b5b600086015167ffffffffffffffff811115620007dc57620007db62000596565b5b620007ea88828901620006f1565b955050602086015167ffffffffffffffff8111156200080e576200080d62000596565b5b6200081c88828901620006f1565b94505060406200082f888289016200074a565b935050606062000842888289016200074a565b9250506080620008558882890162000785565b9150509295509295909350565b7f4e487b7100000000000000000000000000000000000000000000000000000000600052601160045260246000fd5b60006200089e8262000761565b9150620008ab8362000761565b9250817fffffffffffffffffffffffffffffffffffffffffffffffffffffffffffffffff0483118215151615620008e757620008e662000862565b5b828202905092915050565b600082825260208201905092915050565b7f45524332303a206d696e7420746f20746865207a65726f206164647265737300600082015250565b60006200093b601f83620008f2565b9150620009488262000903565b602082019050919050565b600060208201905081810360008301526200096e816200092c565b9050919050565b6000620009828262000761565b91506200098f8362000761565b9250827fffffffffffffffffffffffffffffffffffffffffffffffffffffffffffffffff03821115620009c757620009c662000862565b5b828201905092915050565b620009dd8162000761565b82525050565b6000602082019050620009fa6000830184620009d2565b92915050565b7f4f776e61626c653a2063616c6c6572206973206e6f7420746865206f776e6572600082015250565b600062000a38602083620008f2565b915062000a458262000a00565b602082019050919050565b6000602082019050818103600083015262000a6b8162000a29565b9050919050565b7f4f776e61626c653a206e6577206f776e657220697320746865207a65726f206160008201527f6464726573730000000000000000000000000000000000000000000000000000602082015250565b600062000ad0602683620008f2565b915062000add8262000a72565b604082019050919050565b6000602082019050818103600083015262000b038162000ac1565b9050919050565b7f4e487b7100000000000000000000000000000000000000000000000000000000600052602260045260246000fd5b6000600282049050600182168062000b5257607f821691505b60208210810362000b685762000b6762000b0a565b5b50919050565b611dd48062000b7e6000396000f3fe608060405234801561001057600080fd5b50600436106101005760003560e01c8063715018a611610097578063a457c2d711610066578063a457c2d71461029d578063a9059cbb146102cd578063dd62ed3e146102fd578063f2fde38b1461032d57610100565b8063715018a61461023b5780638da5cb5b1461024557806395d89b41146102635780639dc29fac1461028157610100565b8063313ce567116100d3578063313ce567146101a157806339509351146101bf57806340c10f19146101ef57806370a082311461020b57610100565b806306fdde0314610105578063095ea7b31461012357806318160ddd1461015357806323b872dd14610171575b600080fd5b61010d610349565b60405161011a91906112cb565b60405180910390f35b61013d60048036038101906101389190611386565b6103db565b60405161014a91906113e1565b60405180910390f35b61015b6103fe565b604051610168919061140b565b60405180910390f35b61018b60048036038101906101869190611426565b610408565b60405161019891906113e1565b60405180910390f35b6101a9610437565b6040516101b69190611495565b60405180910390f35b6101d960048036038101906101d49190611386565b610440565b6040516101e691906113e1565b60405180910390f35b61020960048036038101906102049190611386565b610477565b005b610225600480360381019061022091906114b0565b610550565b604051610232919061140b565b60405180910390f35b610243610598565b005b61024d610620565b60405161025a91906114ec565b60405180910390f35b61026b61064a565b60405161027891906112cb565b60405180910390f35b61029b60048036038101906102969190611386565b6106dc565b005b6102b760048036038101906102b29190611386565b610739565b6040516102c491906113e1565b60405180910390f35b6102e760048036038101906102e29190611386565b6107b0565b6040516102f491906113e1565b60405180910390f35b61031760048036038101906103129190611507565b6107d3565b604051610324919061140b565b60405180910390f35b610347600480360381019061034291906114b0565b61085a565b005b60606003805461035890611576565b80601f016020809104026020016040519081016040528092919081815260200182805461038490611576565b80156103d15780601f106103a6576101008083540402835291602001916103d1565b820191906000526020600020905b8154815290600101906020018083116103b457829003601f168201915b5050505050905090565b6000806103e6610ab0565b90506103f3818585610ab8565b600191505092915050565b6000600254905090565b600080610413610ab0565b9050610420858285610c81565b61042b858585610d0d565b60019150509392505050565b60006012905090565b60008061044b610ab0565b905061046c81858561045d85896107d3565b61046791906115d6565b610ab8565b600191505092915050565b61047f610ab0565b73ffffffffffffffffffffffffffffffffffffffff1661049d610620565b73ffffffffffffffffffffffffffffffffffffffff16146104f3576040517f08c379a00000000000000000000000000000000000000000000000000000000081526004016104ea90611678565b60405180910390fd5b600860019054906101000a900460ff16610542576040517f08c379a0000000000000000000000000000000000000000000000000000000008152600401610539906116e4565b60405180910390fd5b61054c8282610951565b5050565b60008060008373ffffffffffffffffffffffffffffffffffffffff1673ffffffffffffffffffffffffffffffffffffffff168152602001908152602001600020549050919050565b6105a0610ab0565b73ffffffffffffffffffffffffffffffffffffffff166105be610620565b73ffffffffffffffffffffffffffffffffffffffff1614610614576040517f08c379a000000000000000000000000000000000000000000000000000000000815260040161060b90611678565b60405180910390fd5b61061e6000610f8c565b565b6000600560009054906101000a900473ffffffffffffffffffffffffffffffffffffffff16905090565b60606004805461065990611576565b80601f016020809104026020016040519081016040528092919081815260200182805461068590611576565b80156106d25780601f106106a7576101008083540402835291602001916106d2565b820191906000526020600020905b8154815290600101906020018083116106b557829003601f168201915b5050505050905090565b600860009054906101000a900460ff1661072b576040517f08c379a000000000000000000000000000000000000000000000000000000000815260040161072290611750565b60405180910390fd5b6107358282611052565b5050565b600080610744610ab0565b9050600061075282866107d3565b905083811015610797576040517f08c379a000000000000000000000000000000000000000000000000000000000815260040161078e906117e2565b60405180910390fd5b6107a48286868403610ab8565b60019250505092915050565b6000806107bb610ab0565b90506107c8818585610d0d565b600191505092915050565b6000600160008473ffffffffffffffffffffffffffffffffffffffff1673ffffffffffffffffffffffffffffffffffffffff16815260200190815260200160002060008373ffffffffffffffffffffffffffffffffffffffff1673ffffffffffffffffffffffffffffffffffffffff16815260200190815260200160002054905092915050565b610862610ab0565b73ffffffffffffffffffffffffffffffffffffffff16610880610620565b73ffffffffffffffffffffffffffffffffffffffff16146108d6576040517f08c379a00000000000000000000000000000000000000000000000000000000081526004016108cd90611678565b60405180910390fd5b600073ffffffffffffffffffffffffffffffffffffffff168173ffffffffffffffffffffffffffffffffffffffff1603610945576040517f08c379a000000000000000000000000000000000000000000000000000000000815260040161093c90611874565b60405180910390fd5b61094e81610f8c565b50565b600073ffffffffffffffffffffffffffffffffffffffff168273ffffffffffffffffffffffffffffffffffffffff16036109c0576040517f08c379a00000000000000000000000000000000000000000000000000000000081526004016109b7906118e0565b60405180910390fd5b6109cc60008383611228565b80600260008282546109de91906115d6565b92505081905550806000808473ffffffffffffffffffffffffffffffffffffffff1673ffffffffffffffffffffffffffffffffffffffff1681526020019081526020016000206000828254610a3391906115d6565b925050819055508173ffffffffffffffffffffffffffffffffffffffff16600073ffffffffffffffffffffffffffffffffffffffff167fddf252ad1be2c89b69c2b068fc378daa952ba7f163c4a11628f55a4df523b3ef83604051610a98919061140b565b60405180910390a3610aac6000838361122d565b5050565b600033905090565b600073ffffffffffffffffffffffffffffffffffffffff168373ffffffffffffffffffffffffffffffffffffffff1603610b27576040517f08c379a0000000000000000000000000000000000000000000000000000000008152600401610b1e90611972565b60405180910390fd5b600073ffffffffffffffffffffffffffffffffffffffff168273ffffffffffffffffffffffffffffffffffffffff1603610b96576040517f08c379a0000000000000000000000000000000000000000000000000000000008152600401610b8d90611a04565b60405180910390fd5b80600160008573ffffffffffffffffffffffffffffffffffffffff1673ffffffffffffffffffffffffffffffffffffffff16815260200190815260200160002060008473ffffffffffffffffffffffffffffffffffffffff1673ffffffffffffffffffffffffffffffffffffffff168152602001908152602001600020819055508173ffffffffffffffffffffffffffffffffffffffff168373ffffffffffffffffffffffffffffffffffffffff167f8c5be1e5ebec7d5bd14f71427d1e84f3dd0314c0f7b2291e5b200ac8c7c3b92583604051610c74919061140b565b60405180910390a3505050565b6000610c8d84846107d3565b90507fffffffffffffffffffffffffffffffffffffffffffffffffffffffffffffffff8114610d075781811015610cf9576040517f08c379a0000000000000000000000000000000000000000000000000000000008152600401610cf090611a70565b60405180910390fd5b610d068484848403610ab8565b5b50505050565b600073ffffffffffffffffffffffffffffffffffffffff168373ffffffffffffffffffffffffffffffffffffffff1603610d7c576040517f08c379a0000000000000000000000000000000000000000000000000000000008152600401610d7390611b02565b60405180910390fd5b600073ffffffffffffffffffffffffffffffffffffffff168273ffffffffffffffffffffffffffffffffffffffff1603610deb576040517f08c379a0000000000000000000000000000000000000000000000000000000008152600401610de290611b94565b60405180910390fd5b610df6838383611228565b60008060008573ffffffffffffffffffffffffffffffffffffffff1673ffffffffffffffffffffffffffffffffffffffff16815260200190815260200160002054905081811015610e7c576040517f08c379a0000000000000000000000000000000000000000000000000000000008152600401610e7390611c26565b60405180910390fd5b8181036000808673ffffffffffffffffffffffffffffffffffffffff1673ffffffffffffffffffffffffffffffffffffffff16815260200190815260200160002081905550816000808573ffffffffffffffffffffffffffffffffffffffff1673ffffffffffffffffffffffffffffffffffffffff1681526020019081526020016000206000828254610f0f91906115d6565b925050819055508273ffffffffffffffffffffffffffffffffffffffff168473ffffffffffffffffffffffffffffffffffffffff167fddf252ad1be2c89b69c2b068fc378daa952ba7f163c4a11628f55a4df523b3ef84604051610f73919061140b565b60405180910390a3610f8684848461122d565b50505050565b6000600560009054906101000a900473ffffffffffffffffffffffffffffffffffffffff16905081600560006101000a81548173ffffffffffffffffffffffffffffffffffffffff021916908373ffffffffffffffffffffffffffffffffffffffff1602179055508173ffffffffffffffffffffffffffffffffffffffff168173ffffffffffffffffffffffffffffffffffffffff167f8be0079c531659141344cd1fd0a4f28419497f9722a3daafe3b4186f6b6457e060405160405180910390a35050565b600073ffffffffffffffffffffffffffffffffffffffff168273ffffffffffffffffffffffffffffffffffffffff16036110c1576040517f08c379a00000000000000000000000000000000000000000000000000000000081526004016110b890611cb8565b60405180910390fd5b6110cd82600083611228565b60008060008473ffffffffffffffffffffffffffffffffffffffff1673ffffffffffffffffffffffffffffffffffffffff16815260200190815260200160002054905081811015611153576040517f08c379a000000000000000000000000000000000000000000000000000000000815260040161114a90611d4a565b60405180910390fd5b8181036000808573ffffffffffffffffffffffffffffffffffffffff1673ffffffffffffffffffffffffffffffffffffffff1681526020019081526020016000208190555081600260008282546111aa9190611d6a565b92505081905550600073ffffffffffffffffffffffffffffffffffffffff168373ffffffffffffffffffffffffffffffffffffffff167fddf252ad1be2c89b69c2b068fc378daa952ba7f163c4a11628f55a4df523b3ef8460405161120f919061140b565b60405180910390a36112238360008461122d565b505050565b505050565b505050565b600081519050919050565b600082825260208201905092915050565b60005b8381101561126c578082015181840152602081019050611251565b8381111561127b576000848401525b50505050565b6000601f19601f8301169050919050565b600061129d82611232565b6112a7818561123d565b93506112b781856020860161124e565b6112c081611281565b840191505092915050565b600060208201905081810360008301526112e58184611292565b905092915050565b600080fd5b600073ffffffffffffffffffffffffffffffffffffffff82169050919050565b600061131d826112f2565b9050919050565b61132d81611312565b811461133857600080fd5b50565b60008135905061134a81611324565b92915050565b6000819050919050565b61136381611350565b811461136e57600080fd5b50565b6000813590506113808161135a565b92915050565b6000806040838503121561139d5761139c6112ed565b5b60006113ab8582860161133b565b92505060206113bc85828601611371565b9150509250929050565b60008115159050919050565b6113db816113c6565b82525050565b60006020820190506113f660008301846113d2565b92915050565b61140581611350565b82525050565b600060208201905061142060008301846113fc565b92915050565b60008060006060848603121561143f5761143e6112ed565b5b600061144d8682870161133b565b935050602061145e8682870161133b565b925050604061146f86828701611371565b9150509250925092565b600060ff82169050919050565b61148f81611479565b82525050565b60006020820190506114aa6000830184611486565b92915050565b6000602082840312156114c6576114c56112ed565b5b60006114d48482850161133b565b91505092915050565b6114e681611312565b82525050565b600060208201905061150160008301846114dd565b92915050565b6000806040838503121561151e5761151d6112ed565b5b600061152c8582860161133b565b925050602061153d8582860161133b565b9150509250929050565b7f4e487b7100000000000000000000000000000000000000000000000000000000600052602260045260246000fd5b6000600282049050600182168061158e57607f821691505b6020821081036115a1576115a0611547565b5b50919050565b7f4e487b7100000000000000000000000000000000000000000000000000000000600052601160045260246000fd5b60006115e182611350565b91506115ec83611350565b9250827fffffffffffffffffffffffffffffffffffffffffffffffffffffffffffffffff03821115611621576116206115a7565b5b828201905092915050565b7f4f776e61626c653a2063616c6c6572206973206e6f7420746865206f776e6572600082015250565b600061166260208361123d565b915061166d8261162c565b602082019050919050565b6000602082019050818103600083015261169181611655565b9050919050565b7f746f6b656e206973206e6f74206d696e7461626c650000000000000000000000600082015250565b60006116ce60158361123d565b91506116d982611698565b602082019050919050565b600060208201905081810360008301526116fd816116c1565b9050919050565b7f746f6b656e2063616e6e6f74206265206275726e656400000000000000000000600082015250565b600061173a60168361123d565b915061174582611704565b602082019050919050565b600060208201905081810360008301526117698161172d565b9050919050565b7f45524332303a2064656372656173656420616c6c6f77616e63652062656c6f7760008201527f207a65726f000000000000000000000000000000000000000000000000000000602082015250565b60006117cc60258361123d565b91506117d782611770565b604082019050919050565b600060208201905081810360008301526117fb816117bf565b9050919050565b7f4f776e61626c653a206e6577206f776e657220697320746865207a65726f206160008201527f6464726573730000000000000000000000000000000000000000000000000000602082015250565b600061185e60268361123d565b915061186982611802565b604082019050919050565b6000602082019050818103600083015261188d81611851565b9050919050565b7f45524332303a206d696e7420746f20746865207a65726f206164647265737300600082015250565b60006118ca601f8361123d565b91506118d582611894565b602082019050919050565b600060208201905081810360008301526118f9816118bd565b9050919050565b7f45524332303a20617070726f76652066726f6d20746865207a65726f2061646460008201527f7265737300000000000000000000000000000000000000000000000000000000602082015250565b600061195c60248361123d565b915061196782611900565b604082019050919050565b6000602082019050818103600083015261198b8161194f565b9050919050565b7f45524332303a20617070726f766520746f20746865207a65726f20616464726560008201527f7373000000000000000000000000000000000000000000000000000000000000602082015250565b60006119ee60228361123d565b91506119f982611992565b604082019050919050565b60006020820190508181036000830152611a1d816119e1565b9050919050565b7f45524332303a20696e73756666696369656e7420616c6c6f77616e6365000000600082015250565b6000611a5a601d8361123d565b9150611a6582611a24565b602082019050919050565b60006020820190508181036000830152611a8981611a4d565b9050919050565b7f45524332303a207472616e736665722066726f6d20746865207a65726f20616460008201527f6472657373000000000000000000000000000000000000000000000000000000602082015250565b6000611aec60258361123d565b9150611af782611a90565b604082019050919050565b60006020820190508181036000830152611b1b81611adf565b9050919050565b7f45524332303a207472616e7366657220746f20746865207a65726f206164647260008201527f6573730000000000000000000000000000000000000000000000000000000000602082015250565b6000611b7e60238361123d565b9150611b8982611b22565b604082019050919050565b60006020820190508181036000830152611bad81611b71565b9050919050565b7f45524332303a207472616e7366657220616d6f756e742065786365656473206260008201527f616c616e63650000000000000000000000000000000000000000000000000000602082015250565b6000611c1060268361123d565b9150611c1b82611bb4565b604082019050919050565b60006020820190508181036000830152611c3f81611c03565b9050919050565b7f45524332303a206275726e2066726f6d20746865207a65726f2061646472657360008201527f7300000000000000000000000000000000000000000000000000000000000000602082015250565b6000611ca260218361123d565b9150611cad82611c46565b604082019050919050565b60006020820190508181036000830152611cd181611c95565b9050919050565b7f45524332303a206275726e20616d6f756e7420657863656564732062616c616e60008201527f6365000000000000000000000000000000000000000000000000000000000000602082015250565b6000611d3460228361123d565b9150611d3f82611cd8565b604082019050919050565b60006020820190508181036000830152611d6381611d27565b9050919050565b6000611d7582611350565b9150611d8083611350565b925082821015611d9357611d926115a7565b5b82820390509291505056fea2646970667358221220c1e55bc00ed158988915d274bd269151c233bc363fa233a28851090ebef5b4a464736f6c634300080e0033a2646970667358221220a91538cf4d6bbdf31400073065172d843021cb2d3795f1ada1854eb45083f7a364736f6c634300080e0033",
  "linkReferences": {},
  "deployedLinkReferences": {}
}