{
  "_format": "hh-sol-artifact-1",
  "contractName": "ERC1155Factory",
  "sourceName": "contracts/ERC1155Factory.sol",
  "abi": [
    {
      "anonymous": false,
      "inputs": [
        {
          "indexed": false,
          "internalType": "address",
          "name": "owner",
          "type": "address"
        },
        {
          "indexed": false,
          "internalType": "address",
          "name": "tokenContract",
          "type": "address"
        }
      ],
      "name": "Created",
      "type": "event"
    },
    {
      "anonymous": false,
      "inputs": [
        {
          "indexed": false,
          "internalType": "address",
          "name": "owner",
          "type": "address"
        },
        {
          "indexed": false,
          "internalType": "address",
          "name": "tokenContract",
          "type": "address"
        },
        {
          "indexed": false,
          "internalType": "uint256",
          "name": "amount",
          "type": "uint256"
        }
      ],
      "name": "Minted",
      "type": "event"
    },
    {
      "inputs": [
        {
          "internalType": "string",
          "name": "_contractName",
          "type": "string"
        },
        {
          "internalType": "string",
          "name": "_uri",
          "type": "string"
        },
        {
          "internalType": "uint256[]",
          "name": "_ids",
          "type": "uint256[]"
        },
        {
          "internalType": "string[]",
          "name": "_names",
          "type": "string[]"
        }
      ],
      "name": "create",
      "outputs": [
        {
          "internalType": "address",
          "name": "",
          "type": "address"
        }
      ],
      "stateMutability": "nonpayable",
      "type": "function"
    },
    {
      "inputs": [
        {
          "internalType": "uint256",
          "name": "_index",
          "type": "uint256"
        },
        {
          "internalType": "uint256",
          "name": "_id",
          "type": "uint256"
        }
      ],
      "name": "getCountERC1155byIndex",
      "outputs": [
        {
          "internalType": "uint256",
          "name": "amount",
          "type": "uint256"
        }
      ],
      "stateMutability": "view",
      "type": "function"
    },
    {
      "inputs": [
        {
          "internalType": "uint256",
          "name": "_index",
          "type": "uint256"
        },
        {
          "internalType": "string",
          "name": "_name",
          "type": "string"
        }
      ],
      "name": "getCountERC1155byName",
      "outputs": [
        {
          "internalType": "uint256",
          "name": "amount",
          "type": "uint256"
        }
      ],
      "stateMutability": "view",
      "type": "function"
    },
    {
      "inputs": [
        {
          "internalType": "uint256",
          "name": "_index",
          "type": "uint256"
        },
        {
          "internalType": "uint256",
          "name": "_id",
          "type": "uint256"
        }
      ],
      "name": "getERC1155byIndexAndId",
      "outputs": [
        {
          "internalType": "address",
          "name": "_contract",
          "type": "address"
        },
        {
          "internalType": "address",
          "name": "_owner",
          "type": "address"
        },
        {
          "internalType": "string",
          "name": "_uri",
          "type": "string"
        },
        {
          "internalType": "uint256",
          "name": "supply",
          "type": "uint256"
        }
      ],
      "stateMutability": "view",
      "type": "function"
    },
    {
      "inputs": [
        {
          "internalType": "uint256",
          "name": "_index",
          "type": "uint256"
        },
        {
          "internalType": "string",
          "name": "_name",
          "type": "string"
        }
      ],
      "name": "getIdByName",
      "outputs": [
        {
          "internalType": "uint256",
          "name": "",
          "type": "uint256"
        }
      ],
      "stateMutability": "view",
      "type": "function"
    },
    {
      "inputs": [
        {
          "internalType": "uint256",
          "name": "_index",
          "type": "uint256"
        },
        {
          "internalType": "uint256",
          "name": "_id",
          "type": "uint256"
        }
      ],
      "name": "getNameById",
      "outputs": [
        {
          "internalType": "string",
          "name": "",
          "type": "string"
        }
      ],
      "stateMutability": "view",
      "type": "function"
    },
    {
      "inputs": [
        {
          "internalType": "uint256",
          "name": "",
          "type": "uint256"
        }
      ],
      "name": "indexToContract",
      "outputs": [
        {
          "internalType": "address",
          "name": "",
          "type": "address"
        }
      ],
      "stateMutability": "view",
      "type": "function"
    },
    {
      "inputs": [
        {
          "internalType": "uint256",
          "name": "",
          "type": "uint256"
        }
      ],
      "name": "indexToOwner",
      "outputs": [
        {
          "internalType": "address",
          "name": "",
          "type": "address"
        }
      ],
      "stateMutability": "view",
      "type": "function"
    },
    {
      "inputs": [
        {
          "internalType": "uint256",
          "name": "_index",
          "type": "uint256"
        },
        {
          "internalType": "string",
          "name": "_name",
          "type": "string"
        },
        {
          "internalType": "uint256",
          "name": "amount",
          "type": "uint256"
        }
      ],
      "name": "mintERC1155",
      "outputs": [],
      "stateMutability": "nonpayable",
      "type": "function"
    },
    {
      "inputs": [
        {
          "internalType": "uint256",
          "name": "",
          "type": "uint256"
        }
      ],
      "name": "tokens",
      "outputs": [
        {
          "internalType": "contract CustomERC1155Token",
          "name": "",
          "type": "address"
        }
      ],
      "stateMutability": "view",
      "type": "function"
    }
  ],
  "bytecode": "0x608060405234801561001057600080fd5b5061624e806100206000396000f3fe60806040523480156200001157600080fd5b5060043610620000ac5760003560e01c80639575feab116200006f5780639575feab14620001ac578063ba535b8e14620001e2578063cd78aefb1462000218578063f0752399146200024e578063f53a54f3146200028457620000ac565b806316d839e314620000b15780634f64b2be14620000e757806351c8027b146200011d5780637e69bc441462000153578063887446821462000173575b600080fd5b620000cf6004803603810190620000c991906200148e565b620002ba565b604051620000de91906200189f565b60405180910390f35b620001056004803603810190620000ff91906200130f565b620003eb565b604051620001149190620017f5565b60405180910390f35b6200013b600480360381019062000135919062001367565b6200042b565b6040516200014a91906200189f565b60405180910390f35b6200017160048036038101906200016b91906200141f565b620005b2565b005b6200019160048036038101906200018b91906200148e565b6200087e565b604051620001a39493929190620016fa565b60405180910390f35b620001ca6004803603810190620001c491906200148e565b62000ada565b604051620001d9919062001812565b60405180910390f35b620002006004803603810190620001fa91906200130f565b62000bdd565b6040516200020f9190620016b0565b60405180910390f35b6200023660048036038101906200023091906200130f565b62000c10565b604051620002459190620016b0565b60405180910390f35b6200026c6004803603810190620002669190620013c5565b62000c43565b6040516200027b91906200189f565b60405180910390f35b620002a260048036038101906200029c91906200123f565b62000d40565b604051620002b19190620016b0565b60405180910390f35b6000808381548110620002f6577f4e487b7100000000000000000000000000000000000000000000000000000000600052603260045260246000fd5b9060005260206000200160009054906101000a900473ffffffffffffffffffffffffffffffffffffffff1673ffffffffffffffffffffffffffffffffffffffff1662fdd58e6002600086815260200190815260200160002060009054906101000a900473ffffffffffffffffffffffffffffffffffffffff16846040518363ffffffff1660e01b81526004016200038f9291906200178b565b60206040518083038186803b158015620003a857600080fd5b505afa158015620003bd573d6000803e3d6000fd5b505050506040513d601f19601f82011682018060405250810190620003e391906200133b565b905092915050565b60008181548110620003fc57600080fd5b906000526020600020016000915054906101000a900473ffffffffffffffffffffffffffffffffffffffff1681565b6000806200047e8585858080601f016020809104026020016040519081016040528093929190818152602001838380828437600081840152601f19601f8201169050808301925050505050505062000c43565b905060008581548110620004bb577f4e487b7100000000000000000000000000000000000000000000000000000000600052603260045260246000fd5b9060005260206000200160009054906101000a900473ffffffffffffffffffffffffffffffffffffffff1673ffffffffffffffffffffffffffffffffffffffff1662fdd58e6002600088815260200190815260200160002060009054906101000a900473ffffffffffffffffffffffffffffffffffffffff16836040518363ffffffff1660e01b8152600401620005549291906200178b565b60206040518083038186803b1580156200056d57600080fd5b505afa15801562000582573d6000803e3d6000fd5b505050506040513d601f19601f82011682018060405250810190620005a891906200133b565b9150509392505050565b6000620005c0848462000c43565b905060008481548110620005fd577f4e487b7100000000000000000000000000000000000000000000000000000000600052603260045260246000fd5b9060005260206000200160009054906101000a900473ffffffffffffffffffffffffffffffffffffffff1673ffffffffffffffffffffffffffffffffffffffff1663156e29f66002600087815260200190815260200160002060009054906101000a900473ffffffffffffffffffffffffffffffffffffffff1683856040518463ffffffff1660e01b81526004016200069993929190620017b8565b602060405180830381600087803b158015620006b457600080fd5b505af1158015620006c9573d6000803e3d6000fd5b505050506040513d601f19601f82011682018060405250810190620006ef91906200133b565b507f9d228d69b5fdb8d273a2336f8fb8612d039631024ea9bf09c424a9503aa078f0600085815481106200074c577f4e487b7100000000000000000000000000000000000000000000000000000000600052603260045260246000fd5b9060005260206000200160009054906101000a900473ffffffffffffffffffffffffffffffffffffffff1673ffffffffffffffffffffffffffffffffffffffff16638da5cb5b6040518163ffffffff1660e01b815260040160206040518083038186803b158015620007bd57600080fd5b505afa158015620007d2573d6000803e3d6000fd5b505050506040513d601f19601f82011682018060405250810190620007f89190620011ce565b6000868154811062000833577f4e487b7100000000000000000000000000000000000000000000000000000000600052603260045260246000fd5b9060005260206000200160009054906101000a900473ffffffffffffffffffffffffffffffffffffffff168460405162000870939291906200174e565b60405180910390a150505050565b600080606060008060008781548110620008c1577f4e487b7100000000000000000000000000000000000000000000000000000000600052603260045260246000fd5b9060005260206000200160009054906101000a900473ffffffffffffffffffffffffffffffffffffffff169050808173ffffffffffffffffffffffffffffffffffffffff16638da5cb5b6040518163ffffffff1660e01b815260040160206040518083038186803b1580156200093657600080fd5b505afa1580156200094b573d6000803e3d6000fd5b505050506040513d601f19601f82011682018060405250810190620009719190620011ce565b8273ffffffffffffffffffffffffffffffffffffffff16630e89341c896040518263ffffffff1660e01b8152600401620009ac91906200189f565b60006040518083038186803b158015620009c557600080fd5b505afa158015620009da573d6000803e3d6000fd5b505050506040513d6000823e3d601f19601f8201168201806040525081019062000a059190620011fa565b8373ffffffffffffffffffffffffffffffffffffffff1662fdd58e600260008d815260200190815260200160002060009054906101000a900473ffffffffffffffffffffffffffffffffffffffff168b6040518363ffffffff1660e01b815260040162000a749291906200178b565b60206040518083038186803b15801562000a8d57600080fd5b505afa15801562000aa2573d6000803e3d6000fd5b505050506040513d601f19601f8201168201806040525081019062000ac891906200133b565b94509450945094505092959194509250565b60606000838154811062000b17577f4e487b7100000000000000000000000000000000000000000000000000000000600052603260045260246000fd5b9060005260206000200160009054906101000a900473ffffffffffffffffffffffffffffffffffffffff1673ffffffffffffffffffffffffffffffffffffffff1663364410b3836040518263ffffffff1660e01b815260040162000b7c91906200189f565b60006040518083038186803b15801562000b9557600080fd5b505afa15801562000baa573d6000803e3d6000fd5b505050506040513d6000823e3d601f19601f8201168201806040525081019062000bd59190620011fa565b905092915050565b60016020528060005260406000206000915054906101000a900473ffffffffffffffffffffffffffffffffffffffff1681565b60026020528060005260406000206000915054906101000a900473ffffffffffffffffffffffffffffffffffffffff1681565b600080838154811062000c7f577f4e487b7100000000000000000000000000000000000000000000000000000000600052603260045260246000fd5b9060005260206000200160009054906101000a900473ffffffffffffffffffffffffffffffffffffffff1673ffffffffffffffffffffffffffffffffffffffff1663f6d8f2cb836040518263ffffffff1660e01b815260040162000ce4919062001812565b60206040518083038186803b15801562000cfd57600080fd5b505afa15801562000d12573d6000803e3d6000fd5b505050506040513d601f19601f8201168201806040525081019062000d3891906200133b565b905092915050565b6000808584848760405162000d559062000eeb565b62000d64949392919062001836565b604051809103906000f08015801562000d81573d6000803e3d6000fd5b5090506000819080600181540180825580915050600190039060005260206000200160009091909190916101000a81548173ffffffffffffffffffffffffffffffffffffffff021916908373ffffffffffffffffffffffffffffffffffffffff1602179055506000600160008054905062000dfd919062001a18565b9050816001600083815260200190815260200160002060006101000a81548173ffffffffffffffffffffffffffffffffffffffff021916908373ffffffffffffffffffffffffffffffffffffffff160217905550326002600083815260200190815260200160002060006101000a81548173ffffffffffffffffffffffffffffffffffffffff021916908373ffffffffffffffffffffffffffffffffffffffff1602179055507f587ece4cd19692c5be1a4184503d607d45542d2aca0698c0068f52e09ccb541c338360405162000ed6929190620016cd565b60405180910390a18192505050949350505050565b6146418062001bd883390190565b600062000f1062000f0a84620018e5565b620018bc565b9050808382526020820190508285602086028201111562000f3057600080fd5b60005b8581101562000f7f57813567ffffffffffffffff81111562000f5457600080fd5b80860162000f63898262001146565b8552602085019450602084019350505060018101905062000f33565b5050509392505050565b600062000fa062000f9a8462001914565b620018bc565b9050808382526020820190508285602086028201111562000fc057600080fd5b60005b8581101562000ff4578162000fd98882620011a0565b84526020840193506020830192505060018101905062000fc3565b5050509392505050565b6000620010156200100f8462001943565b620018bc565b9050828152602081018484840111156200102e57600080fd5b6200103b84828562001ab9565b509392505050565b60006200105a620010548462001943565b620018bc565b9050828152602081018484840111156200107357600080fd5b6200108084828562001ac8565b509392505050565b600081519050620010998162001ba3565b92915050565b600082601f830112620010b157600080fd5b8135620010c384826020860162000ef9565b91505092915050565b600082601f830112620010de57600080fd5b8135620010f084826020860162000f89565b91505092915050565b60008083601f8401126200110c57600080fd5b8235905067ffffffffffffffff8111156200112657600080fd5b6020830191508360018202830111156200113f57600080fd5b9250929050565b600082601f8301126200115857600080fd5b81356200116a84826020860162000ffe565b91505092915050565b600082601f8301126200118557600080fd5b81516200119784826020860162001043565b91505092915050565b600081359050620011b18162001bbd565b92915050565b600081519050620011c88162001bbd565b92915050565b600060208284031215620011e157600080fd5b6000620011f18482850162001088565b91505092915050565b6000602082840312156200120d57600080fd5b600082015167ffffffffffffffff8111156200122857600080fd5b620012368482850162001173565b91505092915050565b600080600080608085870312156200125657600080fd5b600085013567ffffffffffffffff8111156200127157600080fd5b6200127f8782880162001146565b945050602085013567ffffffffffffffff8111156200129d57600080fd5b620012ab8782880162001146565b935050604085013567ffffffffffffffff811115620012c957600080fd5b620012d787828801620010cc565b925050606085013567ffffffffffffffff811115620012f557600080fd5b62001303878288016200109f565b91505092959194509250565b6000602082840312156200132257600080fd5b60006200133284828501620011a0565b91505092915050565b6000602082840312156200134e57600080fd5b60006200135e84828501620011b7565b91505092915050565b6000806000604084860312156200137d57600080fd5b60006200138d86828701620011a0565b935050602084013567ffffffffffffffff811115620013ab57600080fd5b620013b986828701620010f9565b92509250509250925092565b60008060408385031215620013d957600080fd5b6000620013e985828601620011a0565b925050602083013567ffffffffffffffff8111156200140757600080fd5b620014158582860162001146565b9150509250929050565b6000806000606084860312156200143557600080fd5b60006200144586828701620011a0565b935050602084013567ffffffffffffffff8111156200146357600080fd5b620014718682870162001146565b92505060406200148486828701620011a0565b9150509250925092565b60008060408385031215620014a257600080fd5b6000620014b285828601620011a0565b9250506020620014c585828601620011a0565b9150509250929050565b6000620014dd83836200160c565b905092915050565b6000620014f383836200168e565b60208301905092915050565b6200150a8162001a53565b82525050565b60006200151d8262001999565b620015298185620019d4565b9350836020820285016200153d8562001979565b8060005b858110156200157f57848403895281516200155d8582620014cf565b94506200156a83620019ba565b925060208a0199505060018101905062001541565b50829750879550505050505092915050565b60006200159e82620019a4565b620015aa8185620019e5565b9350620015b78362001989565b8060005b83811015620015ee578151620015d28882620014e5565b9750620015df83620019c7565b925050600181019050620015bb565b5085935050505092915050565b620016068162001a91565b82525050565b60006200161982620019af565b620016258185620019f6565b93506200163781856020860162001ac8565b620016428162001b92565b840191505092915050565b60006200165a82620019af565b62001666818562001a07565b93506200167881856020860162001ac8565b620016838162001b92565b840191505092915050565b620016998162001a87565b82525050565b620016aa8162001a87565b82525050565b6000602082019050620016c76000830184620014ff565b92915050565b6000604082019050620016e46000830185620014ff565b620016f36020830184620014ff565b9392505050565b6000608082019050620017116000830187620014ff565b620017206020830186620014ff565b81810360408301526200173481856200164d565b90506200174560608301846200169f565b95945050505050565b6000606082019050620017656000830186620014ff565b620017746020830185620014ff565b6200178360408301846200169f565b949350505050565b6000604082019050620017a26000830185620014ff565b620017b160208301846200169f565b9392505050565b6000606082019050620017cf6000830186620014ff565b620017de60208301856200169f565b620017ed60408301846200169f565b949350505050565b60006020820190506200180c6000830184620015fb565b92915050565b600060208201905081810360008301526200182e81846200164d565b905092915050565b600060808201905081810360008301526200185281876200164d565b9050818103602083015262001868818662001591565b905081810360408301526200187e818562001510565b905081810360608301526200189481846200164d565b905095945050505050565b6000602082019050620018b660008301846200169f565b92915050565b6000620018c8620018db565b9050620018d6828262001afe565b919050565b6000604051905090565b600067ffffffffffffffff82111562001903576200190262001b63565b5b602082029050602081019050919050565b600067ffffffffffffffff82111562001932576200193162001b63565b5b602082029050602081019050919050565b600067ffffffffffffffff82111562001961576200196062001b63565b5b6200196c8262001b92565b9050602081019050919050565b6000819050602082019050919050565b6000819050602082019050919050565b600081519050919050565b600081519050919050565b600081519050919050565b6000602082019050919050565b6000602082019050919050565b600082825260208201905092915050565b600082825260208201905092915050565b600082825260208201905092915050565b600082825260208201905092915050565b600062001a258262001a87565b915062001a328362001a87565b92508282101562001a485762001a4762001b34565b5b828203905092915050565b600062001a608262001a67565b9050919050565b600073ffffffffffffffffffffffffffffffffffffffff82169050919050565b6000819050919050565b600062001a9e8262001aa5565b9050919050565b600062001ab28262001a67565b9050919050565b82818337600083830152505050565b60005b8381101562001ae857808201518184015260208101905062001acb565b8381111562001af8576000848401525b50505050565b62001b098262001b92565b810181811067ffffffffffffffff8211171562001b2b5762001b2a62001b63565b5b80604052505050565b7f4e487b7100000000000000000000000000000000000000000000000000000000600052601160045260246000fd5b7f4e487b7100000000000000000000000000000000000000000000000000000000600052604160045260246000fd5b6000601f19601f8301169050919050565b62001bae8162001a53565b811462001bba57600080fd5b50565b62001bc88162001a87565b811462001bd457600080fd5b5056fe608060405260006008553480156200001657600080fd5b50604051620046413803806200464183398181016040528101906200003c9190620009c4565b806200004e816200010f60201b60201c565b506200006f620000636200012b60201b60201c565b6200013360201b60201c565b8160049080519060200190620000879291906200056d565b508260059080519060200190620000a0929190620005d4565b50620000b1620001f960201b60201c565b620000c2816200038a60201b60201c565b8060069080519060200190620000da92919062000626565b508360079080519060200190620000f392919062000626565b5062000105326200042d60201b60201c565b5050505062000ee2565b80600290805190602001906200012792919062000626565b5050565b600033905090565b6000600360009054906101000a900473ffffffffffffffffffffffffffffffffffffffff16905081600360006101000a81548173ffffffffffffffffffffffffffffffffffffffff021916908373ffffffffffffffffffffffffffffffffffffffff1602179055508173ffffffffffffffffffffffffffffffffffffffff168173ffffffffffffffffffffffffffffffffffffffff167f8be0079c531659141344cd1fd0a4f28419497f9722a3daafe3b4186f6b6457e060405160405180910390a35050565b60005b60058054905081101562000387576005818154811062000245577f4e487b7100000000000000000000000000000000000000000000000000000000600052603260045260246000fd5b90600052602060002001546009600483815481106200028d577f4e487b7100000000000000000000000000000000000000000000000000000000600052603260045260246000fd5b90600052602060002001604051620002a6919062000b6d565b90815260200160405180910390208190555060048181548110620002f3577f4e487b7100000000000000000000000000000000000000000000000000000000600052603260045260246000fd5b90600052602060002001600a6000600584815481106200033c577f4e487b7100000000000000000000000000000000000000000000000000000000600052603260045260246000fd5b90600052602060002001548152602001908152602001600020908054620003639062000cf8565b62000370929190620006b7565b5080806200037e9062000d64565b915050620001fc565b50565b6200039a6200012b60201b60201c565b73ffffffffffffffffffffffffffffffffffffffff16620003c06200054360201b60201c565b73ffffffffffffffffffffffffffffffffffffffff161462000419576040517f08c379a0000000000000000000000000000000000000000000000000000000008152600401620004109062000ba8565b60405180910390fd5b6200042a816200010f60201b60201c565b50565b6200043d6200012b60201b60201c565b73ffffffffffffffffffffffffffffffffffffffff16620004636200054360201b60201c565b73ffffffffffffffffffffffffffffffffffffffff1614620004bc576040517f08c379a0000000000000000000000000000000000000000000000000000000008152600401620004b39062000ba8565b60405180910390fd5b600073ffffffffffffffffffffffffffffffffffffffff168173ffffffffffffffffffffffffffffffffffffffff1614156200052f576040517f08c379a0000000000000000000000000000000000000000000000000000000008152600401620005269062000b86565b60405180910390fd5b62000540816200013360201b60201c565b50565b6000600360009054906101000a900473ffffffffffffffffffffffffffffffffffffffff16905090565b828054828255906000526020600020908101928215620005c1579160200282015b82811115620005c0578251829080519060200190620005af92919062000626565b50916020019190600101906200058e565b5b509050620005d091906200074f565b5090565b82805482825590600052602060002090810192821562000613579160200282015b8281111562000612578251825591602001919060010190620005f5565b5b50905062000622919062000777565b5090565b828054620006349062000cf8565b90600052602060002090601f016020900481019282620006585760008555620006a4565b82601f106200067357805160ff1916838001178555620006a4565b82800160010185558215620006a4579182015b82811115620006a357825182559160200191906001019062000686565b5b509050620006b3919062000777565b5090565b828054620006c59062000cf8565b90600052602060002090601f016020900481019282620006e957600085556200073c565b82601f10620006fc57805485556200073c565b828001600101855582156200073c57600052602060002091601f016020900482015b828111156200073b5782548255916001019190600101906200071e565b5b5090506200074b919062000777565b5090565b5b8082111562000773576000818162000769919062000796565b5060010162000750565b5090565b5b808211156200079257600081600090555060010162000778565b5090565b508054620007a49062000cf8565b6000825580601f10620007b85750620007d9565b601f016020900490600052602060002090810190620007d8919062000777565b5b50565b6000620007f3620007ed8462000bf3565b62000bca565b905080838252602082019050828560208602820111156200081357600080fd5b60005b858110156200086257815167ffffffffffffffff8111156200083757600080fd5b80860162000846898262000980565b8552602085019450602084019350505060018101905062000816565b5050509392505050565b6000620008836200087d8462000c22565b62000bca565b90508083825260208201905082856020860282011115620008a357600080fd5b60005b85811015620008d75781620008bc8882620009ad565b845260208401935060208301925050600181019050620008a6565b5050509392505050565b6000620008f8620008f28462000c51565b62000bca565b9050828152602081018484840111156200091157600080fd5b6200091e84828562000cc2565b509392505050565b600082601f8301126200093857600080fd5b81516200094a848260208601620007dc565b91505092915050565b600082601f8301126200096557600080fd5b8151620009778482602086016200086c565b91505092915050565b600082601f8301126200099257600080fd5b8151620009a4848260208601620008e1565b91505092915050565b600081519050620009be8162000ec8565b92915050565b60008060008060808587031215620009db57600080fd5b600085015167ffffffffffffffff811115620009f657600080fd5b62000a048782880162000980565b945050602085015167ffffffffffffffff81111562000a2257600080fd5b62000a308782880162000953565b935050604085015167ffffffffffffffff81111562000a4e57600080fd5b62000a5c8782880162000926565b925050606085015167ffffffffffffffff81111562000a7a57600080fd5b62000a888782880162000980565b91505092959194509250565b6000815462000aa38162000cf8565b62000aaf818662000cad565b9450600182166000811462000acd576001811462000adf5762000b16565b60ff1983168652818601935062000b16565b62000aea8562000c87565b60005b8381101562000b0e5781548189015260018201915060208101905062000aed565b838801955050505b50505092915050565b600062000b2e60268362000c9c565b915062000b3b8262000e50565b604082019050919050565b600062000b5560208362000c9c565b915062000b628262000e9f565b602082019050919050565b600062000b7b828462000a94565b915081905092915050565b6000602082019050818103600083015262000ba18162000b1f565b9050919050565b6000602082019050818103600083015262000bc38162000b46565b9050919050565b600062000bd662000be9565b905062000be4828262000d2e565b919050565b6000604051905090565b600067ffffffffffffffff82111562000c115762000c1062000e10565b5b602082029050602081019050919050565b600067ffffffffffffffff82111562000c405762000c3f62000e10565b5b602082029050602081019050919050565b600067ffffffffffffffff82111562000c6f5762000c6e62000e10565b5b62000c7a8262000e3f565b9050602081019050919050565b60008190508160005260206000209050919050565b600082825260208201905092915050565b600081905092915050565b6000819050919050565b60005b8381101562000ce257808201518184015260208101905062000cc5565b8381111562000cf2576000848401525b50505050565b6000600282049050600182168062000d1157607f821691505b6020821081141562000d285762000d2762000de1565b5b50919050565b62000d398262000e3f565b810181811067ffffffffffffffff8211171562000d5b5762000d5a62000e10565b5b80604052505050565b600062000d718262000cb8565b91507fffffffffffffffffffffffffffffffffffffffffffffffffffffffffffffffff82141562000da75762000da662000db2565b5b600182019050919050565b7f4e487b7100000000000000000000000000000000000000000000000000000000600052601160045260246000fd5b7f4e487b7100000000000000000000000000000000000000000000000000000000600052602260045260246000fd5b7f4e487b7100000000000000000000000000000000000000000000000000000000600052604160045260246000fd5b6000601f19601f8301169050919050565b7f4f776e61626c653a206e6577206f776e657220697320746865207a65726f206160008201527f6464726573730000000000000000000000000000000000000000000000000000602082015250565b7f4f776e61626c653a2063616c6c6572206973206e6f7420746865206f776e6572600082015250565b62000ed38162000cb8565b811462000edf57600080fd5b50565b61374f8062000ef26000396000f3fe6080604052600436106101295760003560e01c80634e1273f4116100ab578063cd838f0f1161006f578063cd838f0f1461040a578063e985e9c514610435578063f242432a14610472578063f2fde38b1461049b578063f6d8f2cb146104c4578063fac333ac1461050157610129565b80634e1273f4146103375780635b2bd79e14610374578063715018a61461039f5780638da5cb5b146103b6578063a22cb465146103e157610129565b806313966db5116100f257806313966db514610239578063156e29f6146102645780632eb2c2d614610294578063364410b3146102bd5780634622ab03146102fa57610129565b8062fdd58e1461012e57806301ffc9a71461016b57806302fe5305146101a857806306fdde03146101d15780630e89341c146101fc575b600080fd5b34801561013a57600080fd5b5061015560048036038101906101509190612552565b61053e565b6040516101629190612de7565b60405180910390f35b34801561017757600080fd5b50610192600480360381019061018d9190612649565b610607565b60405161019f9190612c0a565b60405180910390f35b3480156101b457600080fd5b506101cf60048036038101906101ca919061269b565b6106e9565b005b3480156101dd57600080fd5b506101e6610771565b6040516101f39190612c25565b60405180910390f35b34801561020857600080fd5b50610223600480360381019061021e91906126dc565b6107ff565b6040516102309190612c25565b60405180910390f35b34801561024557600080fd5b5061024e610893565b60405161025b9190612de7565b60405180910390f35b61027e6004803603810190610279919061258e565b610899565b60405161028b9190612de7565b60405180910390f35b3480156102a057600080fd5b506102bb60048036038101906102b691906123c8565b6108ce565b005b3480156102c957600080fd5b506102e460048036038101906102df91906126dc565b61096f565b6040516102f19190612c25565b60405180910390f35b34801561030657600080fd5b50610321600480360381019061031c91906126dc565b610a0f565b60405161032e9190612c25565b60405180910390f35b34801561034357600080fd5b5061035e600480360381019061035991906125dd565b610abb565b60405161036b9190612bb1565b60405180910390f35b34801561038057600080fd5b50610389610c6c565b6040516103969190612c25565b60405180910390f35b3480156103ab57600080fd5b506103b4610cfa565b005b3480156103c257600080fd5b506103cb610d82565b6040516103d89190612ab2565b60405180910390f35b3480156103ed57600080fd5b5061040860048036038101906104039190612516565b610dac565b005b34801561041657600080fd5b5061041f610dc2565b60405161042c9190612b8f565b60405180910390f35b34801561044157600080fd5b5061045c6004803603810190610457919061238c565b610e9b565b6040516104699190612c0a565b60405180910390f35b34801561047e57600080fd5b5061049960048036038101906104949190612487565b610f2f565b005b3480156104a757600080fd5b506104c260048036038101906104bd9190612363565b610fd0565b005b3480156104d057600080fd5b506104eb60048036038101906104e6919061269b565b6110c8565b6040516104f89190612de7565b60405180910390f35b34801561050d57600080fd5b50610528600480360381019061052391906126dc565b6110f6565b6040516105359190612de7565b60405180910390f35b60008073ffffffffffffffffffffffffffffffffffffffff168373ffffffffffffffffffffffffffffffffffffffff1614156105af576040517f08c379a00000000000000000000000000000000000000000000000000000000081526004016105a690612c87565b60405180910390fd5b60008083815260200190815260200160002060008473ffffffffffffffffffffffffffffffffffffffff1673ffffffffffffffffffffffffffffffffffffffff16815260200190815260200160002054905092915050565b60007fd9b67a26000000000000000000000000000000000000000000000000000000007bffffffffffffffffffffffffffffffffffffffffffffffffffffffff1916827bffffffffffffffffffffffffffffffffffffffffffffffffffffffff191614806106d257507f0e89341c000000000000000000000000000000000000000000000000000000007bffffffffffffffffffffffffffffffffffffffffffffffffffffffff1916827bffffffffffffffffffffffffffffffffffffffffffffffffffffffff1916145b806106e257506106e18261111a565b5b9050919050565b6106f1611184565b73ffffffffffffffffffffffffffffffffffffffff1661070f610d82565b73ffffffffffffffffffffffffffffffffffffffff1614610765576040517f08c379a000000000000000000000000000000000000000000000000000000000815260040161075c90612d47565b60405180910390fd5b61076e8161118c565b50565b6007805461077e906130d1565b80601f01602080910402602001604051908101604052809291908181526020018280546107aa906130d1565b80156107f75780601f106107cc576101008083540402835291602001916107f7565b820191906000526020600020905b8154815290600101906020018083116107da57829003601f168201915b505050505081565b60606002805461080e906130d1565b80601f016020809104026020016040519081016040528092919081815260200182805461083a906130d1565b80156108875780601f1061085c57610100808354040283529160200191610887565b820191906000526020600020905b81548152906001019060200180831161086a57829003601f168201915b50505050509050919050565b60085481565b600060085434146108a957600080fd5b6108c4848484604051806020016040528060008152506111a6565b8290509392505050565b6108d6611184565b73ffffffffffffffffffffffffffffffffffffffff168573ffffffffffffffffffffffffffffffffffffffff16148061091c575061091b85610916611184565b610e9b565b5b61095b576040517f08c379a000000000000000000000000000000000000000000000000000000000815260040161095290612d07565b60405180910390fd5b6109688585858585611357565b5050505050565b600a602052806000526040600020600091509050805461098e906130d1565b80601f01602080910402602001604051908101604052809291908181526020018280546109ba906130d1565b8015610a075780601f106109dc57610100808354040283529160200191610a07565b820191906000526020600020905b8154815290600101906020018083116109ea57829003601f168201915b505050505081565b60048181548110610a1f57600080fd5b906000526020600020016000915090508054610a3a906130d1565b80601f0160208091040260200160405190810160405280929190818152602001828054610a66906130d1565b8015610ab35780601f10610a8857610100808354040283529160200191610ab3565b820191906000526020600020905b815481529060010190602001808311610a9657829003601f168201915b505050505081565b60608151835114610b01576040517f08c379a0000000000000000000000000000000000000000000000000000000008152600401610af890612d87565b60405180910390fd5b6000835167ffffffffffffffff811115610b44577f4e487b7100000000000000000000000000000000000000000000000000000000600052604160045260246000fd5b604051908082528060200260200182016040528015610b725781602001602082028036833780820191505090505b50905060005b8451811015610c6157610c0b858281518110610bbd577f4e487b7100000000000000000000000000000000000000000000000000000000600052603260045260246000fd5b6020026020010151858381518110610bfe577f4e487b7100000000000000000000000000000000000000000000000000000000600052603260045260246000fd5b602002602001015161053e565b828281518110610c44577f4e487b7100000000000000000000000000000000000000000000000000000000600052603260045260246000fd5b60200260200101818152505080610c5a90613134565b9050610b78565b508091505092915050565b60068054610c79906130d1565b80601f0160208091040260200160405190810160405280929190818152602001828054610ca5906130d1565b8015610cf25780601f10610cc757610100808354040283529160200191610cf2565b820191906000526020600020905b815481529060010190602001808311610cd557829003601f168201915b505050505081565b610d02611184565b73ffffffffffffffffffffffffffffffffffffffff16610d20610d82565b73ffffffffffffffffffffffffffffffffffffffff1614610d76576040517f08c379a0000000000000000000000000000000000000000000000000000000008152600401610d6d90612d47565b60405180910390fd5b610d8060006116c5565b565b6000600360009054906101000a900473ffffffffffffffffffffffffffffffffffffffff16905090565b610dbe610db7611184565b838361178b565b5050565b60606004805480602002602001604051908101604052809291908181526020016000905b82821015610e92578382906000526020600020018054610e05906130d1565b80601f0160208091040260200160405190810160405280929190818152602001828054610e31906130d1565b8015610e7e5780601f10610e5357610100808354040283529160200191610e7e565b820191906000526020600020905b815481529060010190602001808311610e6157829003601f168201915b505050505081526020019060010190610de6565b50505050905090565b6000600160008473ffffffffffffffffffffffffffffffffffffffff1673ffffffffffffffffffffffffffffffffffffffff16815260200190815260200160002060008373ffffffffffffffffffffffffffffffffffffffff1673ffffffffffffffffffffffffffffffffffffffff16815260200190815260200160002060009054906101000a900460ff16905092915050565b610f37611184565b73ffffffffffffffffffffffffffffffffffffffff168573ffffffffffffffffffffffffffffffffffffffff161480610f7d5750610f7c85610f77611184565b610e9b565b5b610fbc576040517f08c379a0000000000000000000000000000000000000000000000000000000008152600401610fb390612cc7565b60405180910390fd5b610fc985858585856118f8565b5050505050565b610fd8611184565b73ffffffffffffffffffffffffffffffffffffffff16610ff6610d82565b73ffffffffffffffffffffffffffffffffffffffff161461104c576040517f08c379a000000000000000000000000000000000000000000000000000000000815260040161104390612d47565b60405180910390fd5b600073ffffffffffffffffffffffffffffffffffffffff168173ffffffffffffffffffffffffffffffffffffffff1614156110bc576040517f08c379a00000000000000000000000000000000000000000000000000000000081526004016110b390612ca7565b60405180910390fd5b6110c5816116c5565b50565b6009818051602081018201805184825260208301602085012081835280955050505050506000915090505481565b6005818154811061110657600080fd5b906000526020600020016000915090505481565b60007f01ffc9a7000000000000000000000000000000000000000000000000000000007bffffffffffffffffffffffffffffffffffffffffffffffffffffffff1916827bffffffffffffffffffffffffffffffffffffffffffffffffffffffff1916149050919050565b600033905090565b80600290805190602001906111a292919061205b565b5050565b600073ffffffffffffffffffffffffffffffffffffffff168473ffffffffffffffffffffffffffffffffffffffff161415611216576040517f08c379a000000000000000000000000000000000000000000000000000000000815260040161120d90612dc7565b60405180910390fd5b6000611220611184565b9050600061122d85611b94565b9050600061123a85611b94565b905061124b83600089858589611c5a565b8460008088815260200190815260200160002060008973ffffffffffffffffffffffffffffffffffffffff1673ffffffffffffffffffffffffffffffffffffffff16815260200190815260200160002060008282546112aa9190612fc5565b925050819055508673ffffffffffffffffffffffffffffffffffffffff16600073ffffffffffffffffffffffffffffffffffffffff168473ffffffffffffffffffffffffffffffffffffffff167fc3d58168c5ae7397731d063d5bbf3d657854427343f4c083240f7aacaa2d0f628989604051611328929190612e02565b60405180910390a461133f83600089858589611c62565b61134e83600089898989611c6a565b50505050505050565b815183511461139b576040517f08c379a000000000000000000000000000000000000000000000000000000000815260040161139290612da7565b60405180910390fd5b600073ffffffffffffffffffffffffffffffffffffffff168473ffffffffffffffffffffffffffffffffffffffff16141561140b576040517f08c379a000000000000000000000000000000000000000000000000000000000815260040161140290612ce7565b60405180910390fd5b6000611415611184565b9050611425818787878787611c5a565b60005b845181101561162257600085828151811061146c577f4e487b7100000000000000000000000000000000000000000000000000000000600052603260045260246000fd5b6020026020010151905060008583815181106114b1577f4e487b7100000000000000000000000000000000000000000000000000000000600052603260045260246000fd5b60200260200101519050600080600084815260200190815260200160002060008b73ffffffffffffffffffffffffffffffffffffffff1673ffffffffffffffffffffffffffffffffffffffff16815260200190815260200160002054905081811015611552576040517f08c379a000000000000000000000000000000000000000000000000000000000815260040161154990612d27565b60405180910390fd5b81810360008085815260200190815260200160002060008c73ffffffffffffffffffffffffffffffffffffffff1673ffffffffffffffffffffffffffffffffffffffff168152602001908152602001600020819055508160008085815260200190815260200160002060008b73ffffffffffffffffffffffffffffffffffffffff1673ffffffffffffffffffffffffffffffffffffffff16815260200190815260200160002060008282546116079190612fc5565b925050819055505050508061161b90613134565b9050611428565b508473ffffffffffffffffffffffffffffffffffffffff168673ffffffffffffffffffffffffffffffffffffffff168273ffffffffffffffffffffffffffffffffffffffff167f4a39dc06d4c0dbc64b70af90fd698a233a518aa5d07e595d983b8c0526c8f7fb8787604051611699929190612bd3565b60405180910390a46116af818787878787611c62565b6116bd818787878787611e51565b505050505050565b6000600360009054906101000a900473ffffffffffffffffffffffffffffffffffffffff16905081600360006101000a81548173ffffffffffffffffffffffffffffffffffffffff021916908373ffffffffffffffffffffffffffffffffffffffff1602179055508173ffffffffffffffffffffffffffffffffffffffff168173ffffffffffffffffffffffffffffffffffffffff167f8be0079c531659141344cd1fd0a4f28419497f9722a3daafe3b4186f6b6457e060405160405180910390a35050565b8173ffffffffffffffffffffffffffffffffffffffff168373ffffffffffffffffffffffffffffffffffffffff1614156117fa576040517f08c379a00000000000000000000000000000000000000000000000000000000081526004016117f190612d67565b60405180910390fd5b80600160008573ffffffffffffffffffffffffffffffffffffffff1673ffffffffffffffffffffffffffffffffffffffff16815260200190815260200160002060008473ffffffffffffffffffffffffffffffffffffffff1673ffffffffffffffffffffffffffffffffffffffff16815260200190815260200160002060006101000a81548160ff0219169083151502179055508173ffffffffffffffffffffffffffffffffffffffff168373ffffffffffffffffffffffffffffffffffffffff167f17307eab39ab6107e8899845ad3d59bd9653f200f220920489ca2b5937696c31836040516118eb9190612c0a565b60405180910390a3505050565b600073ffffffffffffffffffffffffffffffffffffffff168473ffffffffffffffffffffffffffffffffffffffff161415611968576040517f08c379a000000000000000000000000000000000000000000000000000000000815260040161195f90612ce7565b60405180910390fd5b6000611972611184565b9050600061197f85611b94565b9050600061198c85611b94565b905061199c838989858589611c5a565b600080600088815260200190815260200160002060008a73ffffffffffffffffffffffffffffffffffffffff1673ffffffffffffffffffffffffffffffffffffffff16815260200190815260200160002054905085811015611a33576040517f08c379a0000000000000000000000000000000000000000000000000000000008152600401611a2a90612d27565b60405180910390fd5b85810360008089815260200190815260200160002060008b73ffffffffffffffffffffffffffffffffffffffff1673ffffffffffffffffffffffffffffffffffffffff168152602001908152602001600020819055508560008089815260200190815260200160002060008a73ffffffffffffffffffffffffffffffffffffffff1673ffffffffffffffffffffffffffffffffffffffff1681526020019081526020016000206000828254611ae89190612fc5565b925050819055508773ffffffffffffffffffffffffffffffffffffffff168973ffffffffffffffffffffffffffffffffffffffff168573ffffffffffffffffffffffffffffffffffffffff167fc3d58168c5ae7397731d063d5bbf3d657854427343f4c083240f7aacaa2d0f628a8a604051611b65929190612e02565b60405180910390a4611b7b848a8a86868a611c62565b611b89848a8a8a8a8a611c6a565b505050505050505050565b60606000600167ffffffffffffffff811115611bd9577f4e487b7100000000000000000000000000000000000000000000000000000000600052604160045260246000fd5b604051908082528060200260200182016040528015611c075781602001602082028036833780820191505090505b5090508281600081518110611c45577f4e487b7100000000000000000000000000000000000000000000000000000000600052603260045260246000fd5b60200260200101818152505080915050919050565b505050505050565b505050505050565b611c898473ffffffffffffffffffffffffffffffffffffffff16612038565b15611e49578373ffffffffffffffffffffffffffffffffffffffff1663f23a6e6187878686866040518663ffffffff1660e01b8152600401611ccf959493929190612b35565b602060405180830381600087803b158015611ce957600080fd5b505af1925050508015611d1a57506040513d601f19601f82011682018060405250810190611d179190612672565b60015b611dc057611d2661320a565b806308c379a01415611d835750611d3b613627565b80611d465750611d85565b806040517f08c379a0000000000000000000000000000000000000000000000000000000008152600401611d7a9190612c25565b60405180910390fd5b505b6040517f08c379a0000000000000000000000000000000000000000000000000000000008152600401611db790612c47565b60405180910390fd5b63f23a6e6160e01b7bffffffffffffffffffffffffffffffffffffffffffffffffffffffff1916817bffffffffffffffffffffffffffffffffffffffffffffffffffffffff191614611e47576040517f08c379a0000000000000000000000000000000000000000000000000000000008152600401611e3e90612c67565b60405180910390fd5b505b505050505050565b611e708473ffffffffffffffffffffffffffffffffffffffff16612038565b15612030578373ffffffffffffffffffffffffffffffffffffffff1663bc197c8187878686866040518663ffffffff1660e01b8152600401611eb6959493929190612acd565b602060405180830381600087803b158015611ed057600080fd5b505af1925050508015611f0157506040513d601f19601f82011682018060405250810190611efe9190612672565b60015b611fa757611f0d61320a565b806308c379a01415611f6a5750611f22613627565b80611f2d5750611f6c565b806040517f08c379a0000000000000000000000000000000000000000000000000000000008152600401611f619190612c25565b60405180910390fd5b505b6040517f08c379a0000000000000000000000000000000000000000000000000000000008152600401611f9e90612c47565b60405180910390fd5b63bc197c8160e01b7bffffffffffffffffffffffffffffffffffffffffffffffffffffffff1916817bffffffffffffffffffffffffffffffffffffffffffffffffffffffff19161461202e576040517f08c379a000000000000000000000000000000000000000000000000000000000815260040161202590612c67565b60405180910390fd5b505b505050505050565b6000808273ffffffffffffffffffffffffffffffffffffffff163b119050919050565b828054612067906130d1565b90600052602060002090601f01602090048101928261208957600085556120d0565b82601f106120a257805160ff19168380011785556120d0565b828001600101855582156120d0579182015b828111156120cf5782518255916020019190600101906120b4565b5b5090506120dd91906120e1565b5090565b5b808211156120fa5760008160009055506001016120e2565b5090565b600061211161210c84612e50565b612e2b565b9050808382526020820190508285602086028201111561213057600080fd5b60005b8581101561216057816121468882612252565b845260208401935060208301925050600181019050612133565b5050509392505050565b600061217d61217884612e7c565b612e2b565b9050808382526020820190508285602086028201111561219c57600080fd5b60005b858110156121cc57816121b2888261234e565b84526020840193506020830192505060018101905061219f565b5050509392505050565b60006121e96121e484612ea8565b612e2b565b90508281526020810184848401111561220157600080fd5b61220c84828561308f565b509392505050565b600061222761222284612ed9565b612e2b565b90508281526020810184848401111561223f57600080fd5b61224a84828561308f565b509392505050565b600081359050612261816136bd565b92915050565b600082601f83011261227857600080fd5b81356122888482602086016120fe565b91505092915050565b600082601f8301126122a257600080fd5b81356122b284826020860161216a565b91505092915050565b6000813590506122ca816136d4565b92915050565b6000813590506122df816136eb565b92915050565b6000815190506122f4816136eb565b92915050565b600082601f83011261230b57600080fd5b813561231b8482602086016121d6565b91505092915050565b600082601f83011261233557600080fd5b8135612345848260208601612214565b91505092915050565b60008135905061235d81613702565b92915050565b60006020828403121561237557600080fd5b600061238384828501612252565b91505092915050565b6000806040838503121561239f57600080fd5b60006123ad85828601612252565b92505060206123be85828601612252565b9150509250929050565b600080600080600060a086880312156123e057600080fd5b60006123ee88828901612252565b95505060206123ff88828901612252565b945050604086013567ffffffffffffffff81111561241c57600080fd5b61242888828901612291565b935050606086013567ffffffffffffffff81111561244557600080fd5b61245188828901612291565b925050608086013567ffffffffffffffff81111561246e57600080fd5b61247a888289016122fa565b9150509295509295909350565b600080600080600060a0868803121561249f57600080fd5b60006124ad88828901612252565b95505060206124be88828901612252565b94505060406124cf8882890161234e565b93505060606124e08882890161234e565b925050608086013567ffffffffffffffff8111156124fd57600080fd5b612509888289016122fa565b9150509295509295909350565b6000806040838503121561252957600080fd5b600061253785828601612252565b9250506020612548858286016122bb565b9150509250929050565b6000806040838503121561256557600080fd5b600061257385828601612252565b92505060206125848582860161234e565b9150509250929050565b6000806000606084860312156125a357600080fd5b60006125b186828701612252565b93505060206125c28682870161234e565b92505060406125d38682870161234e565b9150509250925092565b600080604083850312156125f057600080fd5b600083013567ffffffffffffffff81111561260a57600080fd5b61261685828601612267565b925050602083013567ffffffffffffffff81111561263357600080fd5b61263f85828601612291565b9150509250929050565b60006020828403121561265b57600080fd5b6000612669848285016122d0565b91505092915050565b60006020828403121561268457600080fd5b6000612692848285016122e5565b91505092915050565b6000602082840312156126ad57600080fd5b600082013567ffffffffffffffff8111156126c757600080fd5b6126d384828501612324565b91505092915050565b6000602082840312156126ee57600080fd5b60006126fc8482850161234e565b91505092915050565b6000612711838361285b565b905092915050565b60006127258383612a94565b60208301905092915050565b61273a8161301b565b82525050565b600061274b82612f2a565b6127558185612f70565b93508360208202850161276785612f0a565b8060005b858110156127a357848403895281516127848582612705565b945061278f83612f56565b925060208a0199505060018101905061276b565b50829750879550505050505092915050565b60006127c082612f35565b6127ca8185612f81565b93506127d583612f1a565b8060005b838110156128065781516127ed8882612719565b97506127f883612f63565b9250506001810190506127d9565b5085935050505092915050565b61281c8161302d565b82525050565b600061282d82612f40565b6128378185612f92565b935061284781856020860161309e565b6128508161322c565b840191505092915050565b600061286682612f4b565b6128708185612fa3565b935061288081856020860161309e565b6128898161322c565b840191505092915050565b600061289f82612f4b565b6128a98185612fb4565b93506128b981856020860161309e565b6128c28161322c565b840191505092915050565b60006128da603483612fb4565b91506128e58261324a565b604082019050919050565b60006128fd602883612fb4565b915061290882613299565b604082019050919050565b6000612920602b83612fb4565b915061292b826132e8565b604082019050919050565b6000612943602683612fb4565b915061294e82613337565b604082019050919050565b6000612966602983612fb4565b915061297182613386565b604082019050919050565b6000612989602583612fb4565b9150612994826133d5565b604082019050919050565b60006129ac603283612fb4565b91506129b782613424565b604082019050919050565b60006129cf602a83612fb4565b91506129da82613473565b604082019050919050565b60006129f2602083612fb4565b91506129fd826134c2565b602082019050919050565b6000612a15602983612fb4565b9150612a20826134eb565b604082019050919050565b6000612a38602983612fb4565b9150612a438261353a565b604082019050919050565b6000612a5b602883612fb4565b9150612a6682613589565b604082019050919050565b6000612a7e602183612fb4565b9150612a89826135d8565b604082019050919050565b612a9d81613085565b82525050565b612aac81613085565b82525050565b6000602082019050612ac76000830184612731565b92915050565b600060a082019050612ae26000830188612731565b612aef6020830187612731565b8181036040830152612b0181866127b5565b90508181036060830152612b1581856127b5565b90508181036080830152612b298184612822565b90509695505050505050565b600060a082019050612b4a6000830188612731565b612b576020830187612731565b612b646040830186612aa3565b612b716060830185612aa3565b8181036080830152612b838184612822565b90509695505050505050565b60006020820190508181036000830152612ba98184612740565b905092915050565b60006020820190508181036000830152612bcb81846127b5565b905092915050565b60006040820190508181036000830152612bed81856127b5565b90508181036020830152612c0181846127b5565b90509392505050565b6000602082019050612c1f6000830184612813565b92915050565b60006020820190508181036000830152612c3f8184612894565b905092915050565b60006020820190508181036000830152612c60816128cd565b9050919050565b60006020820190508181036000830152612c80816128f0565b9050919050565b60006020820190508181036000830152612ca081612913565b9050919050565b60006020820190508181036000830152612cc081612936565b9050919050565b60006020820190508181036000830152612ce081612959565b9050919050565b60006020820190508181036000830152612d008161297c565b9050919050565b60006020820190508181036000830152612d208161299f565b9050919050565b60006020820190508181036000830152612d40816129c2565b9050919050565b60006020820190508181036000830152612d60816129e5565b9050919050565b60006020820190508181036000830152612d8081612a08565b9050919050565b60006020820190508181036000830152612da081612a2b565b9050919050565b60006020820190508181036000830152612dc081612a4e565b9050919050565b60006020820190508181036000830152612de081612a71565b9050919050565b6000602082019050612dfc6000830184612aa3565b92915050565b6000604082019050612e176000830185612aa3565b612e246020830184612aa3565b9392505050565b6000612e35612e46565b9050612e418282613103565b919050565b6000604051905090565b600067ffffffffffffffff821115612e6b57612e6a6131db565b5b602082029050602081019050919050565b600067ffffffffffffffff821115612e9757612e966131db565b5b602082029050602081019050919050565b600067ffffffffffffffff821115612ec357612ec26131db565b5b612ecc8261322c565b9050602081019050919050565b600067ffffffffffffffff821115612ef457612ef36131db565b5b612efd8261322c565b9050602081019050919050565b6000819050602082019050919050565b6000819050602082019050919050565b600081519050919050565b600081519050919050565b600081519050919050565b600081519050919050565b6000602082019050919050565b6000602082019050919050565b600082825260208201905092915050565b600082825260208201905092915050565b600082825260208201905092915050565b600082825260208201905092915050565b600082825260208201905092915050565b6000612fd082613085565b9150612fdb83613085565b9250827fffffffffffffffffffffffffffffffffffffffffffffffffffffffffffffffff038211156130105761300f61317d565b5b828201905092915050565b600061302682613065565b9050919050565b60008115159050919050565b60007fffffffff0000000000000000000000000000000000000000000000000000000082169050919050565b600073ffffffffffffffffffffffffffffffffffffffff82169050919050565b6000819050919050565b82818337600083830152505050565b60005b838110156130bc5780820151818401526020810190506130a1565b838111156130cb576000848401525b50505050565b600060028204905060018216806130e957607f821691505b602082108114156130fd576130fc6131ac565b5b50919050565b61310c8261322c565b810181811067ffffffffffffffff8211171561312b5761312a6131db565b5b80604052505050565b600061313f82613085565b91507fffffffffffffffffffffffffffffffffffffffffffffffffffffffffffffffff8214156131725761317161317d565b5b600182019050919050565b7f4e487b7100000000000000000000000000000000000000000000000000000000600052601160045260246000fd5b7f4e487b7100000000000000000000000000000000000000000000000000000000600052602260045260246000fd5b7f4e487b7100000000000000000000000000000000000000000000000000000000600052604160045260246000fd5b600060033d11156132295760046000803e61322660005161323d565b90505b90565b6000601f19601f8301169050919050565b60008160e01c9050919050565b7f455243313135353a207472616e7366657220746f206e6f6e204552433131353560008201527f526563656976657220696d706c656d656e746572000000000000000000000000602082015250565b7f455243313135353a204552433131353552656365697665722072656a6563746560008201527f6420746f6b656e73000000000000000000000000000000000000000000000000602082015250565b7f455243313135353a2062616c616e636520717565727920666f7220746865207a60008201527f65726f2061646472657373000000000000000000000000000000000000000000602082015250565b7f4f776e61626c653a206e6577206f776e657220697320746865207a65726f206160008201527f6464726573730000000000000000000000000000000000000000000000000000602082015250565b7f455243313135353a2063616c6c6572206973206e6f74206f776e6572206e6f7260008201527f20617070726f7665640000000000000000000000000000000000000000000000602082015250565b7f455243313135353a207472616e7366657220746f20746865207a65726f20616460008201527f6472657373000000000000000000000000000000000000000000000000000000602082015250565b7f455243313135353a207472616e736665722063616c6c6572206973206e6f742060008201527f6f776e6572206e6f7220617070726f7665640000000000000000000000000000602082015250565b7f455243313135353a20696e73756666696369656e742062616c616e636520666f60008201527f72207472616e7366657200000000000000000000000000000000000000000000602082015250565b7f4f776e61626c653a2063616c6c6572206973206e6f7420746865206f776e6572600082015250565b7f455243313135353a2073657474696e6720617070726f76616c2073746174757360008201527f20666f722073656c660000000000000000000000000000000000000000000000602082015250565b7f455243313135353a206163636f756e747320616e6420696473206c656e67746860008201527f206d69736d617463680000000000000000000000000000000000000000000000602082015250565b7f455243313135353a2069647320616e6420616d6f756e7473206c656e6774682060008201527f6d69736d61746368000000000000000000000000000000000000000000000000602082015250565b7f455243313135353a206d696e7420746f20746865207a65726f2061646472657360008201527f7300000000000000000000000000000000000000000000000000000000000000602082015250565b600060443d1015613637576136ba565b61363f612e46565b60043d036004823e80513d602482011167ffffffffffffffff821117156136675750506136ba565b808201805167ffffffffffffffff81111561368557505050506136ba565b80602083010160043d0385018111156136a25750505050506136ba565b6136b182602001850186613103565b82955050505050505b90565b6136c68161301b565b81146136d157600080fd5b50565b6136dd8161302d565b81146136e857600080fd5b50565b6136f481613039565b81146136ff57600080fd5b50565b61370b81613085565b811461371657600080fd5b5056fea264697066735822122050009767a659b3f3a82850dd5e541a94a6da88c762a85860d7dfdc416787d1a464736f6c63430008040033a26469706673582212202b2d3bad7604c7843e8daedd44a46874a014f65383548b635c32b6757a4e9be464736f6c63430008040033",
  "linkReferences": {},
  "deployedLinkReferences": {}
}