{
  "_format": "hh-sol-artifact-1",
  "contractName": "ERC721Factory",
  "sourceName": "contracts/ERC721Factory.sol",
  "abi": [
    {
      "anonymous": false,
      "inputs": [
        {
          "indexed": false,
          "internalType": "string",
          "name": "_name",
          "type": "string"
        },
        {
          "indexed": false,
          "internalType": "string",
          "name": "_symbol",
          "type": "string"
        },
        {
          "indexed": false,
          "internalType": "string",
          "name": "_tokenType",
          "type": "string"
        },
        {
          "indexed": false,
          "internalType": "address",
          "name": "_tokenAddress",
          "type": "address"
        }
      ],
      "name": "Created",
      "type": "event"
    },
    {
      "inputs": [
        {
          "internalType": "string",
          "name": "name_",
          "type": "string"
        },
        {
          "internalType": "string",
          "name": "symbol_",
          "type": "string"
        },
        {
          "internalType": "bool",
          "name": "isBurnable_",
          "type": "bool"
        },
        {
          "internalType": "bool",
          "name": "isMintable_",
          "type": "bool"
        }
      ],
      "name": "create",
      "outputs": [
        {
          "internalType": "bool",
          "name": "",
          "type": "bool"
        }
      ],
      "stateMutability": "nonpayable",
      "type": "function"
    },
    {
      "inputs": [],
      "name": "getAll",
      "outputs": [
        {
          "components": [
            {
              "internalType": "string",
              "name": "name",
              "type": "string"
            },
            {
              "internalType": "string",
              "name": "symbol",
              "type": "string"
            },
            {
              "internalType": "string",
              "name": "tokenType",
              "type": "string"
            },
            {
              "internalType": "bool",
              "name": "isBurnable",
              "type": "bool"
            },
            {
              "internalType": "bool",
              "name": "isMintable",
              "type": "bool"
            },
            {
              "internalType": "address",
              "name": "tokenAddress",
              "type": "address"
            }
          ],
          "internalType": "struct Token[]",
          "name": "",
          "type": "tuple[]"
        }
      ],
      "stateMutability": "view",
      "type": "function"
    }
  ],
  "bytecode": "0x608060405234801561001057600080fd5b50612dbc806100206000396000f3fe60806040523480156200001157600080fd5b50600436106200003a5760003560e01c80632abaa003146200003f57806353ed51431462000075575b600080fd5b6200005d600480360381019062000057919062000bca565b62000097565b6040516200006c919062000c8b565b60405180910390f35b6200007f62000350565b6040516200008e919062000f04565b60405180910390f35b60008085858585604051620000ac9062000653565b620000bb949392919062000f7a565b604051809103906000f080158015620000d8573d6000803e3d6000fd5b5090506000819050600033905060008060008373ffffffffffffffffffffffffffffffffffffffff1673ffffffffffffffffffffffffffffffffffffffff1681526020019081526020016000209050806040518060c001604052808b81526020018a81526020016040518060400160405280600681526020017f45524337323100000000000000000000000000000000000000000000000000008152508152602001891515815260200188151581526020018573ffffffffffffffffffffffffffffffffffffffff1681525090806001815401808255809150506001900390600052602060002090600402016000909190919091506000820151816000019080519060200190620001eb92919062000661565b5060208201518160010190805190602001906200020a92919062000661565b5060408201518160020190805190602001906200022992919062000661565b5060608201518160030160006101000a81548160ff02191690831515021790555060808201518160030160016101000a81548160ff02191690831515021790555060a08201518160030160026101000a81548173ffffffffffffffffffffffffffffffffffffffff021916908373ffffffffffffffffffffffffffffffffffffffff1602179055505050806000808473ffffffffffffffffffffffffffffffffffffffff1673ffffffffffffffffffffffffffffffffffffffff16815260200190815260200160002090805462000302929190620006f2565b507fc74c6b00a418ea4b4b4b8db44c0b0420669c6e411b9aa270d9ff8a7ad0c498fe898985604051620003389392919062001036565b60405180910390a16001945050505050949350505050565b6060600033905060008060008373ffffffffffffffffffffffffffffffffffffffff1673ffffffffffffffffffffffffffffffffffffffff168152602001908152602001600020805480602002602001604051908101604052809291908181526020016000905b828210156200064557838290600052602060002090600402016040518060c0016040529081600082018054620003ed90620010c5565b80601f01602080910402602001604051908101604052809291908181526020018280546200041b90620010c5565b80156200046c5780601f1062000440576101008083540402835291602001916200046c565b820191906000526020600020905b8154815290600101906020018083116200044e57829003601f168201915b505050505081526020016001820180546200048790620010c5565b80601f0160208091040260200160405190810160405280929190818152602001828054620004b590620010c5565b8015620005065780601f10620004da5761010080835404028352916020019162000506565b820191906000526020600020905b815481529060010190602001808311620004e857829003601f168201915b505050505081526020016002820180546200052190620010c5565b80601f01602080910402602001604051908101604052809291908181526020018280546200054f90620010c5565b8015620005a05780601f106200057457610100808354040283529160200191620005a0565b820191906000526020600020905b8154815290600101906020018083116200058257829003601f168201915b505050505081526020016003820160009054906101000a900460ff161515151581526020016003820160019054906101000a900460ff161515151581526020016003820160029054906101000a900473ffffffffffffffffffffffffffffffffffffffff1673ffffffffffffffffffffffffffffffffffffffff1673ffffffffffffffffffffffffffffffffffffffff168152505081526020019060010190620003b7565b505050509050809250505090565b611c8c80620010fb83390190565b8280546200066f90620010c5565b90600052602060002090601f016020900481019282620006935760008555620006df565b82601f10620006ae57805160ff1916838001178555620006df565b82800160010185558215620006df579182015b82811115620006de578251825591602001919060010190620006c1565b5b509050620006ee91906200087c565b5090565b828054828255906000526020600020906004028101928215620008695760005260206000209160040282015b828111156200086857828260008201816000019080546200073f90620010c5565b6200074c9291906200089b565b5060018201816001019080546200076390620010c5565b620007709291906200089b565b5060028201816002019080546200078790620010c5565b620007949291906200089b565b506003820160009054906101000a900460ff168160030160006101000a81548160ff0219169083151502179055506003820160019054906101000a900460ff168160030160016101000a81548160ff0219169083151502179055506003820160029054906101000a900473ffffffffffffffffffffffffffffffffffffffff168160030160026101000a81548173ffffffffffffffffffffffffffffffffffffffff021916908373ffffffffffffffffffffffffffffffffffffffff1602179055505050916004019190600401906200071e565b5b50905062000878919062000933565b5090565b5b80821115620008975760008160009055506001016200087d565b5090565b828054620008a990620010c5565b90600052602060002090601f016020900481019282620008cd576000855562000920565b82601f10620008e0578054855562000920565b828001600101855582156200092057600052602060002091601f016020900482015b828111156200091f57825482559160010191906001019062000902565b5b5090506200092f91906200087c565b5090565b5b80821115620009cd5760008082016000620009509190620009d1565b600182016000620009629190620009d1565b600282016000620009749190620009d1565b6003820160006101000a81549060ff02191690556003820160016101000a81549060ff02191690556003820160026101000a81549073ffffffffffffffffffffffffffffffffffffffff02191690555060040162000934565b5090565b508054620009df90620010c5565b6000825580601f10620009f3575062000a14565b601f01602090049060005260206000209081019062000a1391906200087c565b5b50565b6000604051905090565b600080fd5b600080fd5b600080fd5b600080fd5b6000601f19601f8301169050919050565b7f4e487b7100000000000000000000000000000000000000000000000000000000600052604160045260246000fd5b62000a808262000a35565b810181811067ffffffffffffffff8211171562000aa25762000aa162000a46565b5b80604052505050565b600062000ab762000a17565b905062000ac5828262000a75565b919050565b600067ffffffffffffffff82111562000ae85762000ae762000a46565b5b62000af38262000a35565b9050602081019050919050565b82818337600083830152505050565b600062000b2662000b208462000aca565b62000aab565b90508281526020810184848401111562000b455762000b4462000a30565b5b62000b5284828562000b00565b509392505050565b600082601f83011262000b725762000b7162000a2b565b5b813562000b8484826020860162000b0f565b91505092915050565b60008115159050919050565b62000ba48162000b8d565b811462000bb057600080fd5b50565b60008135905062000bc48162000b99565b92915050565b6000806000806080858703121562000be75762000be662000a21565b5b600085013567ffffffffffffffff81111562000c085762000c0762000a26565b5b62000c168782880162000b5a565b945050602085013567ffffffffffffffff81111562000c3a5762000c3962000a26565b5b62000c488782880162000b5a565b935050604062000c5b8782880162000bb3565b925050606062000c6e8782880162000bb3565b91505092959194509250565b62000c858162000b8d565b82525050565b600060208201905062000ca2600083018462000c7a565b92915050565b600081519050919050565b600082825260208201905092915050565b6000819050602082019050919050565b600081519050919050565b600082825260208201905092915050565b60005b8381101562000d1057808201518184015260208101905062000cf3565b8381111562000d20576000848401525b50505050565b600062000d338262000cd4565b62000d3f818562000cdf565b935062000d5181856020860162000cf0565b62000d5c8162000a35565b840191505092915050565b62000d728162000b8d565b82525050565b600073ffffffffffffffffffffffffffffffffffffffff82169050919050565b600062000da58262000d78565b9050919050565b62000db78162000d98565b82525050565b600060c083016000830151848203600086015262000ddc828262000d26565b9150506020830151848203602086015262000df8828262000d26565b9150506040830151848203604086015262000e14828262000d26565b915050606083015162000e2b606086018262000d67565b50608083015162000e40608086018262000d67565b5060a083015162000e5560a086018262000dac565b508091505092915050565b600062000e6e838362000dbd565b905092915050565b6000602082019050919050565b600062000e908262000ca8565b62000e9c818562000cb3565b93508360208202850162000eb08562000cc4565b8060005b8581101562000ef2578484038952815162000ed0858262000e60565b945062000edd8362000e76565b925060208a0199505060018101905062000eb4565b50829750879550505050505092915050565b6000602082019050818103600083015262000f20818462000e83565b905092915050565b600082825260208201905092915050565b600062000f468262000cd4565b62000f52818562000f28565b935062000f6481856020860162000cf0565b62000f6f8162000a35565b840191505092915050565b6000608082019050818103600083015262000f96818762000f39565b9050818103602083015262000fac818662000f39565b905062000fbd604083018562000c7a565b62000fcc606083018462000c7a565b95945050505050565b7f4552433732310000000000000000000000000000000000000000000000000000600082015250565b60006200100d60068362000f28565b91506200101a8262000fd5565b602082019050919050565b620010308162000d98565b82525050565b6000608082019050818103600083015262001052818662000f39565b9050818103602083015262001068818562000f39565b905081810360408301526200107d8162000ffe565b90506200108e606083018462001025565b949350505050565b7f4e487b7100000000000000000000000000000000000000000000000000000000600052602260045260246000fd5b60006002820490506001821680620010de57607f821691505b602082108103620010f457620010f362001096565b5b5091905056fe60806040523480156200001157600080fd5b5060405162001c8c38038062001c8c833981810160405281019062000037919062000331565b83600090805190602001906200004f929190620000a7565b50826001908051906020019062000068929190620000a7565b5081600260006101000a81548160ff02191690831515021790555080600260016101000a81548160ff0219169083151502179055505050505062000445565b828054620000b59062000410565b90600052602060002090601f016020900481019282620000d9576000855562000125565b82601f10620000f457805160ff191683800117855562000125565b8280016001018555821562000125579182015b828111156200012457825182559160200191906001019062000107565b5b50905062000134919062000138565b5090565b5b808211156200015357600081600090555060010162000139565b5090565b6000604051905090565b600080fd5b600080fd5b600080fd5b600080fd5b6000601f19601f8301169050919050565b7f4e487b7100000000000000000000000000000000000000000000000000000000600052604160045260246000fd5b620001c08262000175565b810181811067ffffffffffffffff82111715620001e257620001e162000186565b5b80604052505050565b6000620001f762000157565b9050620002058282620001b5565b919050565b600067ffffffffffffffff82111562000228576200022762000186565b5b620002338262000175565b9050602081019050919050565b60005b838110156200026057808201518184015260208101905062000243565b8381111562000270576000848401525b50505050565b60006200028d62000287846200020a565b620001eb565b905082815260208101848484011115620002ac57620002ab62000170565b5b620002b984828562000240565b509392505050565b600082601f830112620002d957620002d86200016b565b5b8151620002eb84826020860162000276565b91505092915050565b60008115159050919050565b6200030b81620002f4565b81146200031757600080fd5b50565b6000815190506200032b8162000300565b92915050565b600080600080608085870312156200034e576200034d62000161565b5b600085015167ffffffffffffffff8111156200036f576200036e62000166565b5b6200037d87828801620002c1565b945050602085015167ffffffffffffffff811115620003a157620003a062000166565b5b620003af87828801620002c1565b9350506040620003c2878288016200031a565b9250506060620003d5878288016200031a565b91505092959194509250565b7f4e487b7100000000000000000000000000000000000000000000000000000000600052602260045260246000fd5b600060028204905060018216806200042957607f821691505b6020821081036200043f576200043e620003e1565b5b50919050565b61183780620004556000396000f3fe608060405234801561001057600080fd5b50600436106100a95760003560e01c80636352211e116100715780636352211e1461015057806370a082311461018057806395d89b41146101b0578063a22cb465146101ce578063c87b56dd146101ea578063e985e9c51461021a576100a9565b806306fdde03146100ae578063081812fc146100cc578063095ea7b3146100fc57806323b872dd1461011857806342842e0e14610134575b600080fd5b6100b661024a565b6040516100c39190610e73565b60405180910390f35b6100e660048036038101906100e19190610ed0565b6102dc565b6040516100f39190610f3e565b60405180910390f35b61011660048036038101906101119190610f85565b610361565b005b610132600480360381019061012d9190610fc5565b610470565b005b61014e60048036038101906101499190610fc5565b6104c9565b005b61016a60048036038101906101659190610ed0565b610522565b6040516101779190610f3e565b60405180910390f35b61019a60048036038101906101959190611018565b6105d3565b6040516101a79190611054565b60405180910390f35b6101b861068a565b6040516101c59190610e73565b60405180910390f35b6101e860048036038101906101e391906110a7565b61071c565b005b61020460048036038101906101ff9190610ed0565b61072b565b6040516102119190610e73565b60405180910390f35b610234600480360381019061022f91906110e7565b6107ca565b6040516102419190611136565b60405180910390f35b60606000805461025990611180565b80601f016020809104026020016040519081016040528092919081815260200182805461028590611180565b80156102d25780601f106102a7576101008083540402835291602001916102d2565b820191906000526020600020905b8154815290600101906020018083116102b557829003601f168201915b5050505050905090565b60006102e78261085e565b610326576040517f08c379a000000000000000000000000000000000000000000000000000000000815260040161031d906111fd565b60405180910390fd5b6005600083815260200190815260200160002060009054906101000a900473ffffffffffffffffffffffffffffffffffffffff169050919050565b600061036c82610522565b905060003390508173ffffffffffffffffffffffffffffffffffffffff168473ffffffffffffffffffffffffffffffffffffffff16036103e1576040517f08c379a00000000000000000000000000000000000000000000000000000000081526004016103d890611269565b60405180910390fd5b8173ffffffffffffffffffffffffffffffffffffffff168173ffffffffffffffffffffffffffffffffffffffff161480610421575061042082826107ca565b5b610460576040517f08c379a0000000000000000000000000000000000000000000000000000000008152600401610457906112d5565b60405180910390fd5b61046a84846108ca565b50505050565b61047a3382610963565b6104b9576040517f08c379a00000000000000000000000000000000000000000000000000000000081526004016104b090611341565b60405180910390fd5b6104c4838383610a41565b505050565b6104d33382610963565b610512576040517f08c379a000000000000000000000000000000000000000000000000000000000815260040161050990611341565b60405180910390fd5b61051d838383610c71565b505050565b6000806003600084815260200190815260200160002060009054906101000a900473ffffffffffffffffffffffffffffffffffffffff169050600073ffffffffffffffffffffffffffffffffffffffff168173ffffffffffffffffffffffffffffffffffffffff16036105ca576040517f08c379a00000000000000000000000000000000000000000000000000000000081526004016105c1906113ad565b60405180910390fd5b80915050919050565b60008073ffffffffffffffffffffffffffffffffffffffff168273ffffffffffffffffffffffffffffffffffffffff1603610643576040517f08c379a000000000000000000000000000000000000000000000000000000000815260040161063a90611419565b60405180910390fd5b600460008373ffffffffffffffffffffffffffffffffffffffff1673ffffffffffffffffffffffffffffffffffffffff168152602001908152602001600020549050919050565b60606001805461069990611180565b80601f01602080910402602001604051908101604052809291908181526020018280546106c590611180565b80156107125780601f106106e757610100808354040283529160200191610712565b820191906000526020600020905b8154815290600101906020018083116106f557829003601f168201915b5050505050905090565b610727338383610c81565b5050565b60606107368261085e565b610775576040517f08c379a000000000000000000000000000000000000000000000000000000000815260040161076c90611485565b60405180910390fd5b600061077f610dc3565b9050600081511161079f57604051806020016040528060008152506107c2565b80836040516020016107b2929190611502565b6040516020818303038152906040525b915050919050565b6000600660008473ffffffffffffffffffffffffffffffffffffffff1673ffffffffffffffffffffffffffffffffffffffff16815260200190815260200160002060008373ffffffffffffffffffffffffffffffffffffffff1673ffffffffffffffffffffffffffffffffffffffff16815260200190815260200160002060009054906101000a900460ff16905092915050565b60008073ffffffffffffffffffffffffffffffffffffffff166003600084815260200190815260200160002060009054906101000a900473ffffffffffffffffffffffffffffffffffffffff1673ffffffffffffffffffffffffffffffffffffffff1614159050919050565b816005600083815260200190815260200160002060006101000a81548173ffffffffffffffffffffffffffffffffffffffff021916908373ffffffffffffffffffffffffffffffffffffffff1602179055507f8c5be1e5ebec7d5bd14f71427d1e84f3dd0314c0f7b2291e5b200ac8c7c3b92561094682610522565b83836040516109579392919061152a565b60405180910390a15050565b600061096e8261085e565b6109ad576040517f08c379a00000000000000000000000000000000000000000000000000000000081526004016109a4906115ad565b60405180910390fd5b60006109b883610522565b90508073ffffffffffffffffffffffffffffffffffffffff168473ffffffffffffffffffffffffffffffffffffffff1614806109fa57506109f981856107ca565b5b80610a3857508373ffffffffffffffffffffffffffffffffffffffff16610a20846102dc565b73ffffffffffffffffffffffffffffffffffffffff16145b91505092915050565b8273ffffffffffffffffffffffffffffffffffffffff16610a6182610522565b73ffffffffffffffffffffffffffffffffffffffff1614610ab7576040517f08c379a0000000000000000000000000000000000000000000000000000000008152600401610aae90611619565b60405180910390fd5b600073ffffffffffffffffffffffffffffffffffffffff168273ffffffffffffffffffffffffffffffffffffffff1603610b26576040517f08c379a0000000000000000000000000000000000000000000000000000000008152600401610b1d90611685565b60405180910390fd5b610b316000826108ca565b6001600460008573ffffffffffffffffffffffffffffffffffffffff1673ffffffffffffffffffffffffffffffffffffffff1681526020019081526020016000206000828254610b8191906116d4565b925050819055506001600460008473ffffffffffffffffffffffffffffffffffffffff1673ffffffffffffffffffffffffffffffffffffffff1681526020019081526020016000206000828254610bd89190611708565b92505081905550816003600083815260200190815260200160002060006101000a81548173ffffffffffffffffffffffffffffffffffffffff021916908373ffffffffffffffffffffffffffffffffffffffff1602179055507fddf252ad1be2c89b69c2b068fc378daa952ba7f163c4a11628f55a4df523b3ef838383604051610c649392919061152a565b60405180910390a1505050565b610c7c838383610a41565b505050565b8173ffffffffffffffffffffffffffffffffffffffff168373ffffffffffffffffffffffffffffffffffffffff1603610cef576040517f08c379a0000000000000000000000000000000000000000000000000000000008152600401610ce6906117aa565b60405180910390fd5b80600660008573ffffffffffffffffffffffffffffffffffffffff1673ffffffffffffffffffffffffffffffffffffffff16815260200190815260200160002060008473ffffffffffffffffffffffffffffffffffffffff1673ffffffffffffffffffffffffffffffffffffffff16815260200190815260200160002060006101000a81548160ff0219169083151502179055507f17307eab39ab6107e8899845ad3d59bd9653f200f220920489ca2b5937696c31838383604051610db6939291906117ca565b60405180910390a1505050565b606060405180602001604052806000815250905090565b600081519050919050565b600082825260208201905092915050565b60005b83811015610e14578082015181840152602081019050610df9565b83811115610e23576000848401525b50505050565b6000601f19601f8301169050919050565b6000610e4582610dda565b610e4f8185610de5565b9350610e5f818560208601610df6565b610e6881610e29565b840191505092915050565b60006020820190508181036000830152610e8d8184610e3a565b905092915050565b600080fd5b6000819050919050565b610ead81610e9a565b8114610eb857600080fd5b50565b600081359050610eca81610ea4565b92915050565b600060208284031215610ee657610ee5610e95565b5b6000610ef484828501610ebb565b91505092915050565b600073ffffffffffffffffffffffffffffffffffffffff82169050919050565b6000610f2882610efd565b9050919050565b610f3881610f1d565b82525050565b6000602082019050610f536000830184610f2f565b92915050565b610f6281610f1d565b8114610f6d57600080fd5b50565b600081359050610f7f81610f59565b92915050565b60008060408385031215610f9c57610f9b610e95565b5b6000610faa85828601610f70565b9250506020610fbb85828601610ebb565b9150509250929050565b600080600060608486031215610fde57610fdd610e95565b5b6000610fec86828701610f70565b9350506020610ffd86828701610f70565b925050604061100e86828701610ebb565b9150509250925092565b60006020828403121561102e5761102d610e95565b5b600061103c84828501610f70565b91505092915050565b61104e81610e9a565b82525050565b60006020820190506110696000830184611045565b92915050565b60008115159050919050565b6110848161106f565b811461108f57600080fd5b50565b6000813590506110a18161107b565b92915050565b600080604083850312156110be576110bd610e95565b5b60006110cc85828601610f70565b92505060206110dd85828601611092565b9150509250929050565b600080604083850312156110fe576110fd610e95565b5b600061110c85828601610f70565b925050602061111d85828601610f70565b9150509250929050565b6111308161106f565b82525050565b600060208201905061114b6000830184611127565b92915050565b7f4e487b7100000000000000000000000000000000000000000000000000000000600052602260045260246000fd5b6000600282049050600182168061119857607f821691505b6020821081036111ab576111aa611151565b5b50919050565b7f617070726f76656420717565727920666f7220696e76616c696420746f6b656e600082015250565b60006111e7602083610de5565b91506111f2826111b1565b602082019050919050565b60006020820190508181036000830152611216816111da565b9050919050565b7f617070726f76616c20746f2063757272656e74206f776e657200000000000000600082015250565b6000611253601983610de5565b915061125e8261121d565b602082019050919050565b6000602082019050818103600083015261128281611246565b9050919050565b7f696e76616c69642063616c6c6572000000000000000000000000000000000000600082015250565b60006112bf600e83610de5565b91506112ca82611289565b602082019050919050565b600060208201905081810360008301526112ee816112b2565b9050919050565b7f7472616e736665722063616c6c6572206973206e6f74206f776e657200000000600082015250565b600061132b601c83610de5565b9150611336826112f5565b602082019050919050565b6000602082019050818103600083015261135a8161131e565b9050919050565b7f6f776e657220717565727920666f7220696e76616c696420746f6b656e000000600082015250565b6000611397601d83610de5565b91506113a282611361565b602082019050919050565b600060208201905081810360008301526113c68161138a565b9050919050565b7f41646472657373207a65726f206973206e6f742076616c696400000000000000600082015250565b6000611403601983610de5565b915061140e826113cd565b602082019050919050565b60006020820190508181036000830152611432816113f6565b9050919050565b7f746f6b656e20646f6573206e6f74206578697374000000000000000000000000600082015250565b600061146f601483610de5565b915061147a82611439565b602082019050919050565b6000602082019050818103600083015261149e81611462565b9050919050565b600081905092915050565b60006114bb82610dda565b6114c581856114a5565b93506114d5818560208601610df6565b80840191505092915050565b6000819050919050565b6114fc6114f782610e9a565b6114e1565b82525050565b600061150e82856114b0565b915061151a82846114eb565b6020820191508190509392505050565b600060608201905061153f6000830186610f2f565b61154c6020830185610f2f565b6115596040830184611045565b949350505050565b7f6f70657261746f7220717565727920666f7220696e76616c696420746f6b656e600082015250565b6000611597602083610de5565b91506115a282611561565b602082019050919050565b600060208201905081810360008301526115c68161158a565b9050919050565b7f7472616e736665722066726f6d20696e636f7272656374206f776e6572000000600082015250565b6000611603601d83610de5565b915061160e826115cd565b602082019050919050565b60006020820190508181036000830152611632816115f6565b9050919050565b7f7472616e7366657220746f20746865207a65726f206164647265737300000000600082015250565b600061166f601c83610de5565b915061167a82611639565b602082019050919050565b6000602082019050818103600083015261169e81611662565b9050919050565b7f4e487b7100000000000000000000000000000000000000000000000000000000600052601160045260246000fd5b60006116df82610e9a565b91506116ea83610e9a565b9250828210156116fd576116fc6116a5565b5b828203905092915050565b600061171382610e9a565b915061171e83610e9a565b9250827fffffffffffffffffffffffffffffffffffffffffffffffffffffffffffffffff03821115611753576117526116a5565b5b828201905092915050565b7f4552433732313a20617070726f766520746f2063616c6c657200000000000000600082015250565b6000611794601983610de5565b915061179f8261175e565b602082019050919050565b600060208201905081810360008301526117c381611787565b9050919050565b60006060820190506117df6000830186610f2f565b6117ec6020830185610f2f565b6117f96040830184611127565b94935050505056fea264697066735822122097866aacb333ae0f4fb30167d92d9810ded707e53e651961ddc332cc344b15d064736f6c634300080e0033a2646970667358221220f238e28ecaea9cc66cbfdce1ee099da8d9f454f2d80f2e463847005f49f4f3c564736f6c634300080e0033",
  "linkReferences": {},
  "deployedLinkReferences": {}
}