{
  "_format": "hh-sol-artifact-1",
  "contractName": "ERC721Factory",
  "sourceName": "contracts/ERC721Factory.sol",
  "abi": [
    {
      "anonymous": false,
      "inputs": [
        {
          "indexed": false,
          "internalType": "string",
          "name": "_name",
          "type": "string"
        },
        {
          "indexed": false,
          "internalType": "string",
          "name": "_symbol",
          "type": "string"
        },
        {
          "indexed": false,
          "internalType": "string",
          "name": "_tokenType",
          "type": "string"
        },
        {
          "indexed": false,
          "internalType": "address",
          "name": "_tokenAddress",
          "type": "address"
        }
      ],
      "name": "Created",
      "type": "event"
    },
    {
      "inputs": [
        {
          "internalType": "string",
          "name": "name_",
          "type": "string"
        },
        {
          "internalType": "string",
          "name": "symbol_",
          "type": "string"
        },
        {
          "internalType": "bool",
          "name": "isBurnable_",
          "type": "bool"
        },
        {
          "internalType": "bool",
          "name": "isMintable_",
          "type": "bool"
        }
      ],
      "name": "create",
      "outputs": [
        {
          "internalType": "bool",
          "name": "",
          "type": "bool"
        }
      ],
      "stateMutability": "nonpayable",
      "type": "function"
    },
    {
      "inputs": [],
      "name": "getAll",
      "outputs": [
        {
          "components": [
            {
              "internalType": "string",
              "name": "name",
              "type": "string"
            },
            {
              "internalType": "string",
              "name": "symbol",
              "type": "string"
            },
            {
              "internalType": "string",
              "name": "tokenType",
              "type": "string"
            },
            {
              "internalType": "bool",
              "name": "isBurnable",
              "type": "bool"
            },
            {
              "internalType": "bool",
              "name": "isMintable",
              "type": "bool"
            },
            {
              "internalType": "address",
              "name": "tokenAddress",
              "type": "address"
            }
          ],
          "internalType": "struct Token[]",
          "name": "",
          "type": "tuple[]"
        }
      ],
      "stateMutability": "view",
      "type": "function"
    }
  ],
  "bytecode": "0x608060405234801561001057600080fd5b50613509806100206000396000f3fe60806040523480156200001157600080fd5b50600436106200003a5760003560e01c80632abaa003146200003f57806353ed51431462000075575b600080fd5b6200005d600480360381019062000057919062000bca565b62000097565b6040516200006c919062000c8b565b60405180910390f35b6200007f62000350565b6040516200008e919062000f04565b60405180910390f35b60008085858585604051620000ac9062000653565b620000bb949392919062000f7a565b604051809103906000f080158015620000d8573d6000803e3d6000fd5b5090506000819050600033905060008060008373ffffffffffffffffffffffffffffffffffffffff1673ffffffffffffffffffffffffffffffffffffffff1681526020019081526020016000209050806040518060c001604052808b81526020018a81526020016040518060400160405280600681526020017f45524337323100000000000000000000000000000000000000000000000000008152508152602001891515815260200188151581526020018573ffffffffffffffffffffffffffffffffffffffff1681525090806001815401808255809150506001900390600052602060002090600402016000909190919091506000820151816000019080519060200190620001eb92919062000661565b5060208201518160010190805190602001906200020a92919062000661565b5060408201518160020190805190602001906200022992919062000661565b5060608201518160030160006101000a81548160ff02191690831515021790555060808201518160030160016101000a81548160ff02191690831515021790555060a08201518160030160026101000a81548173ffffffffffffffffffffffffffffffffffffffff021916908373ffffffffffffffffffffffffffffffffffffffff1602179055505050806000808473ffffffffffffffffffffffffffffffffffffffff1673ffffffffffffffffffffffffffffffffffffffff16815260200190815260200160002090805462000302929190620006f2565b507fc74c6b00a418ea4b4b4b8db44c0b0420669c6e411b9aa270d9ff8a7ad0c498fe898985604051620003389392919062001036565b60405180910390a16001945050505050949350505050565b6060600033905060008060008373ffffffffffffffffffffffffffffffffffffffff1673ffffffffffffffffffffffffffffffffffffffff168152602001908152602001600020805480602002602001604051908101604052809291908181526020016000905b828210156200064557838290600052602060002090600402016040518060c0016040529081600082018054620003ed90620010c5565b80601f01602080910402602001604051908101604052809291908181526020018280546200041b90620010c5565b80156200046c5780601f1062000440576101008083540402835291602001916200046c565b820191906000526020600020905b8154815290600101906020018083116200044e57829003601f168201915b505050505081526020016001820180546200048790620010c5565b80601f0160208091040260200160405190810160405280929190818152602001828054620004b590620010c5565b8015620005065780601f10620004da5761010080835404028352916020019162000506565b820191906000526020600020905b815481529060010190602001808311620004e857829003601f168201915b505050505081526020016002820180546200052190620010c5565b80601f01602080910402602001604051908101604052809291908181526020018280546200054f90620010c5565b8015620005a05780601f106200057457610100808354040283529160200191620005a0565b820191906000526020600020905b8154815290600101906020018083116200058257829003601f168201915b505050505081526020016003820160009054906101000a900460ff161515151581526020016003820160019054906101000a900460ff161515151581526020016003820160029054906101000a900473ffffffffffffffffffffffffffffffffffffffff1673ffffffffffffffffffffffffffffffffffffffff1673ffffffffffffffffffffffffffffffffffffffff168152505081526020019060010190620003b7565b505050509050809250505090565b6123d980620010fb83390190565b8280546200066f90620010c5565b90600052602060002090601f016020900481019282620006935760008555620006df565b82601f10620006ae57805160ff1916838001178555620006df565b82800160010185558215620006df579182015b82811115620006de578251825591602001919060010190620006c1565b5b509050620006ee91906200087c565b5090565b828054828255906000526020600020906004028101928215620008695760005260206000209160040282015b828111156200086857828260008201816000019080546200073f90620010c5565b6200074c9291906200089b565b5060018201816001019080546200076390620010c5565b620007709291906200089b565b5060028201816002019080546200078790620010c5565b620007949291906200089b565b506003820160009054906101000a900460ff168160030160006101000a81548160ff0219169083151502179055506003820160019054906101000a900460ff168160030160016101000a81548160ff0219169083151502179055506003820160029054906101000a900473ffffffffffffffffffffffffffffffffffffffff168160030160026101000a81548173ffffffffffffffffffffffffffffffffffffffff021916908373ffffffffffffffffffffffffffffffffffffffff1602179055505050916004019190600401906200071e565b5b50905062000878919062000933565b5090565b5b80821115620008975760008160009055506001016200087d565b5090565b828054620008a990620010c5565b90600052602060002090601f016020900481019282620008cd576000855562000920565b82601f10620008e0578054855562000920565b828001600101855582156200092057600052602060002091601f016020900482015b828111156200091f57825482559160010191906001019062000902565b5b5090506200092f91906200087c565b5090565b5b80821115620009cd5760008082016000620009509190620009d1565b600182016000620009629190620009d1565b600282016000620009749190620009d1565b6003820160006101000a81549060ff02191690556003820160016101000a81549060ff02191690556003820160026101000a81549073ffffffffffffffffffffffffffffffffffffffff02191690555060040162000934565b5090565b508054620009df90620010c5565b6000825580601f10620009f3575062000a14565b601f01602090049060005260206000209081019062000a1391906200087c565b5b50565b6000604051905090565b600080fd5b600080fd5b600080fd5b600080fd5b6000601f19601f8301169050919050565b7f4e487b7100000000000000000000000000000000000000000000000000000000600052604160045260246000fd5b62000a808262000a35565b810181811067ffffffffffffffff8211171562000aa25762000aa162000a46565b5b80604052505050565b600062000ab762000a17565b905062000ac5828262000a75565b919050565b600067ffffffffffffffff82111562000ae85762000ae762000a46565b5b62000af38262000a35565b9050602081019050919050565b82818337600083830152505050565b600062000b2662000b208462000aca565b62000aab565b90508281526020810184848401111562000b455762000b4462000a30565b5b62000b5284828562000b00565b509392505050565b600082601f83011262000b725762000b7162000a2b565b5b813562000b8484826020860162000b0f565b91505092915050565b60008115159050919050565b62000ba48162000b8d565b811462000bb057600080fd5b50565b60008135905062000bc48162000b99565b92915050565b6000806000806080858703121562000be75762000be662000a21565b5b600085013567ffffffffffffffff81111562000c085762000c0762000a26565b5b62000c168782880162000b5a565b945050602085013567ffffffffffffffff81111562000c3a5762000c3962000a26565b5b62000c488782880162000b5a565b935050604062000c5b8782880162000bb3565b925050606062000c6e8782880162000bb3565b91505092959194509250565b62000c858162000b8d565b82525050565b600060208201905062000ca2600083018462000c7a565b92915050565b600081519050919050565b600082825260208201905092915050565b6000819050602082019050919050565b600081519050919050565b600082825260208201905092915050565b60005b8381101562000d1057808201518184015260208101905062000cf3565b8381111562000d20576000848401525b50505050565b600062000d338262000cd4565b62000d3f818562000cdf565b935062000d5181856020860162000cf0565b62000d5c8162000a35565b840191505092915050565b62000d728162000b8d565b82525050565b600073ffffffffffffffffffffffffffffffffffffffff82169050919050565b600062000da58262000d78565b9050919050565b62000db78162000d98565b82525050565b600060c083016000830151848203600086015262000ddc828262000d26565b9150506020830151848203602086015262000df8828262000d26565b9150506040830151848203604086015262000e14828262000d26565b915050606083015162000e2b606086018262000d67565b50608083015162000e40608086018262000d67565b5060a083015162000e5560a086018262000dac565b508091505092915050565b600062000e6e838362000dbd565b905092915050565b6000602082019050919050565b600062000e908262000ca8565b62000e9c818562000cb3565b93508360208202850162000eb08562000cc4565b8060005b8581101562000ef2578484038952815162000ed0858262000e60565b945062000edd8362000e76565b925060208a0199505060018101905062000eb4565b50829750879550505050505092915050565b6000602082019050818103600083015262000f20818462000e83565b905092915050565b600082825260208201905092915050565b600062000f468262000cd4565b62000f52818562000f28565b935062000f6481856020860162000cf0565b62000f6f8162000a35565b840191505092915050565b6000608082019050818103600083015262000f96818762000f39565b9050818103602083015262000fac818662000f39565b905062000fbd604083018562000c7a565b62000fcc606083018462000c7a565b95945050505050565b7f4552433732310000000000000000000000000000000000000000000000000000600082015250565b60006200100d60068362000f28565b91506200101a8262000fd5565b602082019050919050565b620010308162000d98565b82525050565b6000608082019050818103600083015262001052818662000f39565b9050818103602083015262001068818562000f39565b905081810360408301526200107d8162000ffe565b90506200108e606083018462001025565b949350505050565b7f4e487b7100000000000000000000000000000000000000000000000000000000600052602260045260246000fd5b60006002820490506001821680620010de57607f821691505b602082108103620010f457620010f362001096565b5b5091905056fe60806040523480156200001157600080fd5b50604051620023d9380380620023d983398181016040528101906200003791906200056c565b620000576200004b620000d860201b60201c565b620000e060201b60201c565b83600190805190602001906200006f929190620002e2565b50826002908051906020019062000088929190620002e2565b5081600360006101000a81548160ff02191690831515021790555080600360016101000a81548160ff021916908315150217905550620000ce32620001a460201b60201c565b505050506200079b565b600033905090565b60008060009054906101000a900473ffffffffffffffffffffffffffffffffffffffff169050816000806101000a81548173ffffffffffffffffffffffffffffffffffffffff021916908373ffffffffffffffffffffffffffffffffffffffff1602179055508173ffffffffffffffffffffffffffffffffffffffff168173ffffffffffffffffffffffffffffffffffffffff167f8be0079c531659141344cd1fd0a4f28419497f9722a3daafe3b4186f6b6457e060405160405180910390a35050565b620001b4620000d860201b60201c565b73ffffffffffffffffffffffffffffffffffffffff16620001da620002b960201b60201c565b73ffffffffffffffffffffffffffffffffffffffff161462000233576040517f08c379a00000000000000000000000000000000000000000000000000000000081526004016200022a906200067d565b60405180910390fd5b600073ffffffffffffffffffffffffffffffffffffffff168173ffffffffffffffffffffffffffffffffffffffff1603620002a5576040517f08c379a00000000000000000000000000000000000000000000000000000000081526004016200029c9062000715565b60405180910390fd5b620002b681620000e060201b60201c565b50565b60008060009054906101000a900473ffffffffffffffffffffffffffffffffffffffff16905090565b828054620002f09062000766565b90600052602060002090601f01602090048101928262000314576000855562000360565b82601f106200032f57805160ff191683800117855562000360565b8280016001018555821562000360579182015b828111156200035f57825182559160200191906001019062000342565b5b5090506200036f919062000373565b5090565b5b808211156200038e57600081600090555060010162000374565b5090565b6000604051905090565b600080fd5b600080fd5b600080fd5b600080fd5b6000601f19601f8301169050919050565b7f4e487b7100000000000000000000000000000000000000000000000000000000600052604160045260246000fd5b620003fb82620003b0565b810181811067ffffffffffffffff821117156200041d576200041c620003c1565b5b80604052505050565b60006200043262000392565b9050620004408282620003f0565b919050565b600067ffffffffffffffff821115620004635762000462620003c1565b5b6200046e82620003b0565b9050602081019050919050565b60005b838110156200049b5780820151818401526020810190506200047e565b83811115620004ab576000848401525b50505050565b6000620004c8620004c28462000445565b62000426565b905082815260208101848484011115620004e757620004e6620003ab565b5b620004f48482856200047b565b509392505050565b600082601f830112620005145762000513620003a6565b5b815162000526848260208601620004b1565b91505092915050565b60008115159050919050565b62000546816200052f565b81146200055257600080fd5b50565b60008151905062000566816200053b565b92915050565b600080600080608085870312156200058957620005886200039c565b5b600085015167ffffffffffffffff811115620005aa57620005a9620003a1565b5b620005b887828801620004fc565b945050602085015167ffffffffffffffff811115620005dc57620005db620003a1565b5b620005ea87828801620004fc565b9350506040620005fd8782880162000555565b9250506060620006108782880162000555565b91505092959194509250565b600082825260208201905092915050565b7f4f776e61626c653a2063616c6c6572206973206e6f7420746865206f776e6572600082015250565b6000620006656020836200061c565b915062000672826200062d565b602082019050919050565b60006020820190508181036000830152620006988162000656565b9050919050565b7f4f776e61626c653a206e6577206f776e657220697320746865207a65726f206160008201527f6464726573730000000000000000000000000000000000000000000000000000602082015250565b6000620006fd6026836200061c565b91506200070a826200069f565b604082019050919050565b600060208201905081810360008301526200073081620006ee565b9050919050565b7f4e487b7100000000000000000000000000000000000000000000000000000000600052602260045260246000fd5b600060028204905060018216806200077f57607f821691505b60208210810362000795576200079462000737565b5b50919050565b611c2e80620007ab6000396000f3fe608060405234801561001057600080fd5b50600436106100ea5760003560e01c8063715018a61161008c578063a22cb46511610066578063a22cb46514610237578063c87b56dd14610253578063e985e9c514610283578063f2fde38b146102b3576100ea565b8063715018a6146101f15780638da5cb5b146101fb57806395d89b4114610219576100ea565b806323b872dd116100c857806323b872dd1461015957806342842e0e146101755780636352211e1461019157806370a08231146101c1576100ea565b806306fdde03146100ef578063081812fc1461010d578063095ea7b31461013d575b600080fd5b6100f76102cf565b604051610104919061116c565b60405180910390f35b610127600480360381019061012291906111c9565b610361565b6040516101349190611237565b60405180910390f35b6101576004803603810190610152919061127e565b6103e6565b005b610173600480360381019061016e91906112be565b6104f5565b005b61018f600480360381019061018a91906112be565b61054e565b005b6101ab60048036038101906101a691906111c9565b6105a7565b6040516101b89190611237565b60405180910390f35b6101db60048036038101906101d69190611311565b610658565b6040516101e8919061134d565b60405180910390f35b6101f961070f565b005b610203610797565b6040516102109190611237565b60405180910390f35b6102216107c0565b60405161022e919061116c565b60405180910390f35b610251600480360381019061024c91906113a0565b610852565b005b61026d600480360381019061026891906111c9565b610861565b60405161027a919061116c565b60405180910390f35b61029d600480360381019061029891906113e0565b610900565b6040516102aa919061142f565b60405180910390f35b6102cd60048036038101906102c89190611311565b610994565b005b6060600180546102de90611479565b80601f016020809104026020016040519081016040528092919081815260200182805461030a90611479565b80156103575780601f1061032c57610100808354040283529160200191610357565b820191906000526020600020905b81548152906001019060200180831161033a57829003601f168201915b5050505050905090565b600061036c82610a8b565b6103ab576040517f08c379a00000000000000000000000000000000000000000000000000000000081526004016103a2906114f6565b60405180910390fd5b6006600083815260200190815260200160002060009054906101000a900473ffffffffffffffffffffffffffffffffffffffff169050919050565b60006103f1826105a7565b905060003390508173ffffffffffffffffffffffffffffffffffffffff168473ffffffffffffffffffffffffffffffffffffffff1603610466576040517f08c379a000000000000000000000000000000000000000000000000000000000815260040161045d90611562565b60405180910390fd5b8173ffffffffffffffffffffffffffffffffffffffff168173ffffffffffffffffffffffffffffffffffffffff1614806104a657506104a58282610900565b5b6104e5576040517f08c379a00000000000000000000000000000000000000000000000000000000081526004016104dc906115ce565b60405180910390fd5b6104ef8484610af7565b50505050565b6104ff3382610b90565b61053e576040517f08c379a00000000000000000000000000000000000000000000000000000000081526004016105359061163a565b60405180910390fd5b610549838383610c6e565b505050565b6105583382610b90565b610597576040517f08c379a000000000000000000000000000000000000000000000000000000000815260040161058e9061163a565b60405180910390fd5b6105a2838383610e9e565b505050565b6000806004600084815260200190815260200160002060009054906101000a900473ffffffffffffffffffffffffffffffffffffffff169050600073ffffffffffffffffffffffffffffffffffffffff168173ffffffffffffffffffffffffffffffffffffffff160361064f576040517f08c379a0000000000000000000000000000000000000000000000000000000008152600401610646906116a6565b60405180910390fd5b80915050919050565b60008073ffffffffffffffffffffffffffffffffffffffff168273ffffffffffffffffffffffffffffffffffffffff16036106c8576040517f08c379a00000000000000000000000000000000000000000000000000000000081526004016106bf90611712565b60405180910390fd5b600560008373ffffffffffffffffffffffffffffffffffffffff1673ffffffffffffffffffffffffffffffffffffffff168152602001908152602001600020549050919050565b610717610eae565b73ffffffffffffffffffffffffffffffffffffffff16610735610797565b73ffffffffffffffffffffffffffffffffffffffff161461078b576040517f08c379a00000000000000000000000000000000000000000000000000000000081526004016107829061177e565b60405180910390fd5b6107956000610eb6565b565b60008060009054906101000a900473ffffffffffffffffffffffffffffffffffffffff16905090565b6060600280546107cf90611479565b80601f01602080910402602001604051908101604052809291908181526020018280546107fb90611479565b80156108485780601f1061081d57610100808354040283529160200191610848565b820191906000526020600020905b81548152906001019060200180831161082b57829003601f168201915b5050505050905090565b61085d338383610f7a565b5050565b606061086c82610a8b565b6108ab576040517f08c379a00000000000000000000000000000000000000000000000000000000081526004016108a2906117ea565b60405180910390fd5b60006108b56110bc565b905060008151116108d557604051806020016040528060008152506108f8565b80836040516020016108e8929190611867565b6040516020818303038152906040525b915050919050565b6000600760008473ffffffffffffffffffffffffffffffffffffffff1673ffffffffffffffffffffffffffffffffffffffff16815260200190815260200160002060008373ffffffffffffffffffffffffffffffffffffffff1673ffffffffffffffffffffffffffffffffffffffff16815260200190815260200160002060009054906101000a900460ff16905092915050565b61099c610eae565b73ffffffffffffffffffffffffffffffffffffffff166109ba610797565b73ffffffffffffffffffffffffffffffffffffffff1614610a10576040517f08c379a0000000000000000000000000000000000000000000000000000000008152600401610a079061177e565b60405180910390fd5b600073ffffffffffffffffffffffffffffffffffffffff168173ffffffffffffffffffffffffffffffffffffffff1603610a7f576040517f08c379a0000000000000000000000000000000000000000000000000000000008152600401610a7690611901565b60405180910390fd5b610a8881610eb6565b50565b60008073ffffffffffffffffffffffffffffffffffffffff166004600084815260200190815260200160002060009054906101000a900473ffffffffffffffffffffffffffffffffffffffff1673ffffffffffffffffffffffffffffffffffffffff1614159050919050565b816006600083815260200190815260200160002060006101000a81548173ffffffffffffffffffffffffffffffffffffffff021916908373ffffffffffffffffffffffffffffffffffffffff1602179055507f8c5be1e5ebec7d5bd14f71427d1e84f3dd0314c0f7b2291e5b200ac8c7c3b925610b73826105a7565b8383604051610b8493929190611921565b60405180910390a15050565b6000610b9b82610a8b565b610bda576040517f08c379a0000000000000000000000000000000000000000000000000000000008152600401610bd1906119a4565b60405180910390fd5b6000610be5836105a7565b90508073ffffffffffffffffffffffffffffffffffffffff168473ffffffffffffffffffffffffffffffffffffffff161480610c275750610c268185610900565b5b80610c6557508373ffffffffffffffffffffffffffffffffffffffff16610c4d84610361565b73ffffffffffffffffffffffffffffffffffffffff16145b91505092915050565b8273ffffffffffffffffffffffffffffffffffffffff16610c8e826105a7565b73ffffffffffffffffffffffffffffffffffffffff1614610ce4576040517f08c379a0000000000000000000000000000000000000000000000000000000008152600401610cdb90611a10565b60405180910390fd5b600073ffffffffffffffffffffffffffffffffffffffff168273ffffffffffffffffffffffffffffffffffffffff1603610d53576040517f08c379a0000000000000000000000000000000000000000000000000000000008152600401610d4a90611a7c565b60405180910390fd5b610d5e600082610af7565b6001600560008573ffffffffffffffffffffffffffffffffffffffff1673ffffffffffffffffffffffffffffffffffffffff1681526020019081526020016000206000828254610dae9190611acb565b925050819055506001600560008473ffffffffffffffffffffffffffffffffffffffff1673ffffffffffffffffffffffffffffffffffffffff1681526020019081526020016000206000828254610e059190611aff565b92505081905550816004600083815260200190815260200160002060006101000a81548173ffffffffffffffffffffffffffffffffffffffff021916908373ffffffffffffffffffffffffffffffffffffffff1602179055507fddf252ad1be2c89b69c2b068fc378daa952ba7f163c4a11628f55a4df523b3ef838383604051610e9193929190611921565b60405180910390a1505050565b610ea9838383610c6e565b505050565b600033905090565b60008060009054906101000a900473ffffffffffffffffffffffffffffffffffffffff169050816000806101000a81548173ffffffffffffffffffffffffffffffffffffffff021916908373ffffffffffffffffffffffffffffffffffffffff1602179055508173ffffffffffffffffffffffffffffffffffffffff168173ffffffffffffffffffffffffffffffffffffffff167f8be0079c531659141344cd1fd0a4f28419497f9722a3daafe3b4186f6b6457e060405160405180910390a35050565b8173ffffffffffffffffffffffffffffffffffffffff168373ffffffffffffffffffffffffffffffffffffffff1603610fe8576040517f08c379a0000000000000000000000000000000000000000000000000000000008152600401610fdf90611ba1565b60405180910390fd5b80600760008573ffffffffffffffffffffffffffffffffffffffff1673ffffffffffffffffffffffffffffffffffffffff16815260200190815260200160002060008473ffffffffffffffffffffffffffffffffffffffff1673ffffffffffffffffffffffffffffffffffffffff16815260200190815260200160002060006101000a81548160ff0219169083151502179055507f17307eab39ab6107e8899845ad3d59bd9653f200f220920489ca2b5937696c318383836040516110af93929190611bc1565b60405180910390a1505050565b606060405180602001604052806000815250905090565b600081519050919050565b600082825260208201905092915050565b60005b8381101561110d5780820151818401526020810190506110f2565b8381111561111c576000848401525b50505050565b6000601f19601f8301169050919050565b600061113e826110d3565b61114881856110de565b93506111588185602086016110ef565b61116181611122565b840191505092915050565b600060208201905081810360008301526111868184611133565b905092915050565b600080fd5b6000819050919050565b6111a681611193565b81146111b157600080fd5b50565b6000813590506111c38161119d565b92915050565b6000602082840312156111df576111de61118e565b5b60006111ed848285016111b4565b91505092915050565b600073ffffffffffffffffffffffffffffffffffffffff82169050919050565b6000611221826111f6565b9050919050565b61123181611216565b82525050565b600060208201905061124c6000830184611228565b92915050565b61125b81611216565b811461126657600080fd5b50565b60008135905061127881611252565b92915050565b600080604083850312156112955761129461118e565b5b60006112a385828601611269565b92505060206112b4858286016111b4565b9150509250929050565b6000806000606084860312156112d7576112d661118e565b5b60006112e586828701611269565b93505060206112f686828701611269565b9250506040611307868287016111b4565b9150509250925092565b6000602082840312156113275761132661118e565b5b600061133584828501611269565b91505092915050565b61134781611193565b82525050565b6000602082019050611362600083018461133e565b92915050565b60008115159050919050565b61137d81611368565b811461138857600080fd5b50565b60008135905061139a81611374565b92915050565b600080604083850312156113b7576113b661118e565b5b60006113c585828601611269565b92505060206113d68582860161138b565b9150509250929050565b600080604083850312156113f7576113f661118e565b5b600061140585828601611269565b925050602061141685828601611269565b9150509250929050565b61142981611368565b82525050565b60006020820190506114446000830184611420565b92915050565b7f4e487b7100000000000000000000000000000000000000000000000000000000600052602260045260246000fd5b6000600282049050600182168061149157607f821691505b6020821081036114a4576114a361144a565b5b50919050565b7f617070726f76656420717565727920666f7220696e76616c696420746f6b656e600082015250565b60006114e06020836110de565b91506114eb826114aa565b602082019050919050565b6000602082019050818103600083015261150f816114d3565b9050919050565b7f617070726f76616c20746f2063757272656e74206f776e657200000000000000600082015250565b600061154c6019836110de565b915061155782611516565b602082019050919050565b6000602082019050818103600083015261157b8161153f565b9050919050565b7f696e76616c69642063616c6c6572000000000000000000000000000000000000600082015250565b60006115b8600e836110de565b91506115c382611582565b602082019050919050565b600060208201905081810360008301526115e7816115ab565b9050919050565b7f7472616e736665722063616c6c6572206973206e6f74206f776e657200000000600082015250565b6000611624601c836110de565b915061162f826115ee565b602082019050919050565b6000602082019050818103600083015261165381611617565b9050919050565b7f6f776e657220717565727920666f7220696e76616c696420746f6b656e000000600082015250565b6000611690601d836110de565b915061169b8261165a565b602082019050919050565b600060208201905081810360008301526116bf81611683565b9050919050565b7f41646472657373207a65726f206973206e6f742076616c696400000000000000600082015250565b60006116fc6019836110de565b9150611707826116c6565b602082019050919050565b6000602082019050818103600083015261172b816116ef565b9050919050565b7f4f776e61626c653a2063616c6c6572206973206e6f7420746865206f776e6572600082015250565b60006117686020836110de565b915061177382611732565b602082019050919050565b600060208201905081810360008301526117978161175b565b9050919050565b7f746f6b656e20646f6573206e6f74206578697374000000000000000000000000600082015250565b60006117d46014836110de565b91506117df8261179e565b602082019050919050565b60006020820190508181036000830152611803816117c7565b9050919050565b600081905092915050565b6000611820826110d3565b61182a818561180a565b935061183a8185602086016110ef565b80840191505092915050565b6000819050919050565b61186161185c82611193565b611846565b82525050565b60006118738285611815565b915061187f8284611850565b6020820191508190509392505050565b7f4f776e61626c653a206e6577206f776e657220697320746865207a65726f206160008201527f6464726573730000000000000000000000000000000000000000000000000000602082015250565b60006118eb6026836110de565b91506118f68261188f565b604082019050919050565b6000602082019050818103600083015261191a816118de565b9050919050565b60006060820190506119366000830186611228565b6119436020830185611228565b611950604083018461133e565b949350505050565b7f6f70657261746f7220717565727920666f7220696e76616c696420746f6b656e600082015250565b600061198e6020836110de565b915061199982611958565b602082019050919050565b600060208201905081810360008301526119bd81611981565b9050919050565b7f7472616e736665722066726f6d20696e636f7272656374206f776e6572000000600082015250565b60006119fa601d836110de565b9150611a05826119c4565b602082019050919050565b60006020820190508181036000830152611a29816119ed565b9050919050565b7f7472616e7366657220746f20746865207a65726f206164647265737300000000600082015250565b6000611a66601c836110de565b9150611a7182611a30565b602082019050919050565b60006020820190508181036000830152611a9581611a59565b9050919050565b7f4e487b7100000000000000000000000000000000000000000000000000000000600052601160045260246000fd5b6000611ad682611193565b9150611ae183611193565b925082821015611af457611af3611a9c565b5b828203905092915050565b6000611b0a82611193565b9150611b1583611193565b9250827fffffffffffffffffffffffffffffffffffffffffffffffffffffffffffffffff03821115611b4a57611b49611a9c565b5b828201905092915050565b7f4552433732313a20617070726f766520746f2063616c6c657200000000000000600082015250565b6000611b8b6019836110de565b9150611b9682611b55565b602082019050919050565b60006020820190508181036000830152611bba81611b7e565b9050919050565b6000606082019050611bd66000830186611228565b611be36020830185611228565b611bf06040830184611420565b94935050505056fea2646970667358221220d1032e5c90b8ded21d27729328d76f7e180684087f3457b110e8da37cfdae77264736f6c634300080e0033a264697066735822122034d868a94b25fdfea7d2381abdc735a24f6e3c19fa9515eb1b776bc17b8d84d164736f6c634300080e0033",
  "linkReferences": {},
  "deployedLinkReferences": {}
}