{
  "_format": "hh-sol-artifact-1",
  "contractName": "Store",
  "sourceName": "contracts/Store.sol",
  "abi": [
    {
      "anonymous": false,
      "inputs": [
        {
          "indexed": false,
          "internalType": "string",
          "name": "_name",
          "type": "string"
        },
        {
          "indexed": false,
          "internalType": "string",
          "name": "_symbol",
          "type": "string"
        },
        {
          "indexed": false,
          "internalType": "string",
          "name": "_tokenType",
          "type": "string"
        }
      ],
      "name": "Created",
      "type": "event"
    },
    {
      "anonymous": false,
      "inputs": [
        {
          "indexed": false,
          "internalType": "address",
          "name": "owner",
          "type": "address"
        }
      ],
      "name": "Returned",
      "type": "event"
    },
    {
      "inputs": [],
      "name": "returnTokens",
      "outputs": [
        {
          "components": [
            {
              "internalType": "string",
              "name": "name",
              "type": "string"
            },
            {
              "internalType": "string",
              "name": "symbol",
              "type": "string"
            },
            {
              "internalType": "string",
              "name": "tokenType",
              "type": "string"
            }
          ],
          "internalType": "struct Token[]",
          "name": "",
          "type": "tuple[]"
        }
      ],
      "stateMutability": "nonpayable",
      "type": "function"
    },
    {
      "inputs": [
        {
          "internalType": "string",
          "name": "_name",
          "type": "string"
        },
        {
          "internalType": "string",
          "name": "_symbol",
          "type": "string"
        },
        {
          "internalType": "string",
          "name": "_tokenType",
          "type": "string"
        }
      ],
      "name": "saveToken",
      "outputs": [
        {
          "internalType": "bool",
          "name": "",
          "type": "bool"
        }
      ],
      "stateMutability": "nonpayable",
      "type": "function"
    }
  ],
  "bytecode": "0x608060405234801561001057600080fd5b50610c91806100206000396000f3fe608060405234801561001057600080fd5b50600436106100365760003560e01c80636fd7d01f1461003b578063f9718fc81461006b575b600080fd5b61005560048036038101906100509190610862565b610089565b6040516100629190610924565b60405180910390f35b610073610205565b6040516100809190610ae7565b60405180910390f35b60008033905060008060008373ffffffffffffffffffffffffffffffffffffffff1673ffffffffffffffffffffffffffffffffffffffff16815260200190815260200160002090508060405180606001604052808881526020018781526020018681525090806001815401808255809150506001900390600052602060002090600302016000909190919091506000820151816000019080519060200190610132929190610499565b50602082015181600101908051906020019061014f929190610499565b50604082015181600201908051906020019061016c929190610499565b505050806000808473ffffffffffffffffffffffffffffffffffffffff1673ffffffffffffffffffffffffffffffffffffffff1681526020019081526020016000209080546101bc92919061051f565b507f0314a863b2e94adb6cd6b5a2e580b6c339838ac7a670b298d8eab29a01df03a88686866040516101f093929190610b53565b60405180910390a16001925050509392505050565b6060600033905060008060008373ffffffffffffffffffffffffffffffffffffffff1673ffffffffffffffffffffffffffffffffffffffff168152602001908152602001600020805480602002602001604051908101604052809291908181526020016000905b82821015610454578382906000526020600020906003020160405180606001604052908160008201805461029f90610bce565b80601f01602080910402602001604051908101604052809291908181526020018280546102cb90610bce565b80156103185780601f106102ed57610100808354040283529160200191610318565b820191906000526020600020905b8154815290600101906020018083116102fb57829003601f168201915b5050505050815260200160018201805461033190610bce565b80601f016020809104026020016040519081016040528092919081815260200182805461035d90610bce565b80156103aa5780601f1061037f576101008083540402835291602001916103aa565b820191906000526020600020905b81548152906001019060200180831161038d57829003601f168201915b505050505081526020016002820180546103c390610bce565b80601f01602080910402602001604051908101604052809291908181526020018280546103ef90610bce565b801561043c5780601f106104115761010080835404028352916020019161043c565b820191906000526020600020905b81548152906001019060200180831161041f57829003601f168201915b5050505050815250508152602001906001019061026c565b5050505090507f794e5f33cbe14d369961935fa8b655f35d33f32cb5073f1f90818b676ac9e0bc826040516104899190610c40565b60405180910390a1809250505090565b8280546104a590610bce565b90600052602060002090601f0160209004810192826104c7576000855561050e565b82601f106104e057805160ff191683800117855561050e565b8280016001018555821561050e579182015b8281111561050d5782518255916020019190600101906104f2565b5b50905061051b91906105d7565b5090565b8280548282559060005260206000209060030281019282156105c65760005260206000209160030282015b828111156105c5578282600082018160000190805461056890610bce565b6105739291906105f4565b50600182018160010190805461058890610bce565b6105939291906105f4565b5060028201816002019080546105a890610bce565b6105b39291906105f4565b5050509160030191906003019061054a565b5b5090506105d39190610681565b5090565b5b808211156105f05760008160009055506001016105d8565b5090565b82805461060090610bce565b90600052602060002090601f0160209004810192826106225760008555610670565b82601f106106335780548555610670565b8280016001018555821561067057600052602060002091601f016020900482015b8281111561066f578254825591600101919060010190610654565b5b50905061067d91906105d7565b5090565b5b808211156106c4576000808201600061069b91906106c8565b6001820160006106ab91906106c8565b6002820160006106bb91906106c8565b50600301610682565b5090565b5080546106d490610bce565b6000825580601f106106e65750610705565b601f01602090049060005260206000209081019061070491906105d7565b5b50565b6000604051905090565b600080fd5b600080fd5b600080fd5b600080fd5b6000601f19601f8301169050919050565b7f4e487b7100000000000000000000000000000000000000000000000000000000600052604160045260246000fd5b61076f82610726565b810181811067ffffffffffffffff8211171561078e5761078d610737565b5b80604052505050565b60006107a1610708565b90506107ad8282610766565b919050565b600067ffffffffffffffff8211156107cd576107cc610737565b5b6107d682610726565b9050602081019050919050565b82818337600083830152505050565b6000610805610800846107b2565b610797565b90508281526020810184848401111561082157610820610721565b5b61082c8482856107e3565b509392505050565b600082601f8301126108495761084861071c565b5b81356108598482602086016107f2565b91505092915050565b60008060006060848603121561087b5761087a610712565b5b600084013567ffffffffffffffff81111561089957610898610717565b5b6108a586828701610834565b935050602084013567ffffffffffffffff8111156108c6576108c5610717565b5b6108d286828701610834565b925050604084013567ffffffffffffffff8111156108f3576108f2610717565b5b6108ff86828701610834565b9150509250925092565b60008115159050919050565b61091e81610909565b82525050565b60006020820190506109396000830184610915565b92915050565b600081519050919050565b600082825260208201905092915050565b6000819050602082019050919050565b600081519050919050565b600082825260208201905092915050565b60005b838110156109a557808201518184015260208101905061098a565b838111156109b4576000848401525b50505050565b60006109c58261096b565b6109cf8185610976565b93506109df818560208601610987565b6109e881610726565b840191505092915050565b60006060830160008301518482036000860152610a1082826109ba565b91505060208301518482036020860152610a2a82826109ba565b91505060408301518482036040860152610a4482826109ba565b9150508091505092915050565b6000610a5d83836109f3565b905092915050565b6000602082019050919050565b6000610a7d8261093f565b610a87818561094a565b935083602082028501610a998561095b565b8060005b85811015610ad55784840389528151610ab68582610a51565b9450610ac183610a65565b925060208a01995050600181019050610a9d565b50829750879550505050505092915050565b60006020820190508181036000830152610b018184610a72565b905092915050565b600082825260208201905092915050565b6000610b258261096b565b610b2f8185610b09565b9350610b3f818560208601610987565b610b4881610726565b840191505092915050565b60006060820190508181036000830152610b6d8186610b1a565b90508181036020830152610b818185610b1a565b90508181036040830152610b958184610b1a565b9050949350505050565b7f4e487b7100000000000000000000000000000000000000000000000000000000600052602260045260246000fd5b60006002820490506001821680610be657607f821691505b602082108103610bf957610bf8610b9f565b5b50919050565b600073ffffffffffffffffffffffffffffffffffffffff82169050919050565b6000610c2a82610bff565b9050919050565b610c3a81610c1f565b82525050565b6000602082019050610c556000830184610c31565b9291505056fea2646970667358221220fa5f6f7adafa40e958c46bf96808f48f1b251be7decdc9f3d55f0a2e23020c8264736f6c634300080e0033",
  "linkReferences": {},
  "deployedLinkReferences": {}
}