{
  "_format": "hh-sol-artifact-1",
  "contractName": "CustomERC721",
  "sourceName": "contracts/CustomERC721.sol",
  "abi": [
    {
      "inputs": [
        {
          "internalType": "string",
          "name": "name_",
          "type": "string"
        },
        {
          "internalType": "string",
          "name": "symbol_",
          "type": "string"
        },
        {
          "internalType": "bool",
          "name": "isBurnable_",
          "type": "bool"
        },
        {
          "internalType": "bool",
          "name": "isMintable_",
          "type": "bool"
        }
      ],
      "stateMutability": "nonpayable",
      "type": "constructor"
    },
    {
      "anonymous": false,
      "inputs": [
        {
          "indexed": false,
          "internalType": "address",
          "name": "_owner",
          "type": "address"
        },
        {
          "indexed": false,
          "internalType": "address",
          "name": "_spender",
          "type": "address"
        },
        {
          "indexed": false,
          "internalType": "uint256",
          "name": "_amount",
          "type": "uint256"
        }
      ],
      "name": "Approval",
      "type": "event"
    },
    {
      "anonymous": false,
      "inputs": [
        {
          "indexed": false,
          "internalType": "address",
          "name": "_owner",
          "type": "address"
        },
        {
          "indexed": false,
          "internalType": "address",
          "name": "_spender",
          "type": "address"
        },
        {
          "indexed": false,
          "internalType": "bool",
          "name": "_approved",
          "type": "bool"
        }
      ],
      "name": "ApprovalForAll",
      "type": "event"
    },
    {
      "anonymous": false,
      "inputs": [
        {
          "indexed": false,
          "internalType": "address",
          "name": "_from",
          "type": "address"
        },
        {
          "indexed": false,
          "internalType": "address",
          "name": "_to",
          "type": "address"
        },
        {
          "indexed": false,
          "internalType": "uint256",
          "name": "_amount",
          "type": "uint256"
        }
      ],
      "name": "Transfer",
      "type": "event"
    },
    {
      "inputs": [
        {
          "internalType": "address",
          "name": "to",
          "type": "address"
        },
        {
          "internalType": "uint256",
          "name": "tokenId",
          "type": "uint256"
        }
      ],
      "name": "approve",
      "outputs": [],
      "stateMutability": "nonpayable",
      "type": "function"
    },
    {
      "inputs": [
        {
          "internalType": "address",
          "name": "owner",
          "type": "address"
        }
      ],
      "name": "balanceOf",
      "outputs": [
        {
          "internalType": "uint256",
          "name": "",
          "type": "uint256"
        }
      ],
      "stateMutability": "view",
      "type": "function"
    },
    {
      "inputs": [
        {
          "internalType": "uint256",
          "name": "tokenId",
          "type": "uint256"
        }
      ],
      "name": "getApproved",
      "outputs": [
        {
          "internalType": "address",
          "name": "",
          "type": "address"
        }
      ],
      "stateMutability": "view",
      "type": "function"
    },
    {
      "inputs": [
        {
          "internalType": "address",
          "name": "owner",
          "type": "address"
        },
        {
          "internalType": "address",
          "name": "operator",
          "type": "address"
        }
      ],
      "name": "isApprovedForAll",
      "outputs": [
        {
          "internalType": "bool",
          "name": "",
          "type": "bool"
        }
      ],
      "stateMutability": "view",
      "type": "function"
    },
    {
      "inputs": [],
      "name": "name",
      "outputs": [
        {
          "internalType": "string",
          "name": "",
          "type": "string"
        }
      ],
      "stateMutability": "view",
      "type": "function"
    },
    {
      "inputs": [
        {
          "internalType": "uint256",
          "name": "tokenId",
          "type": "uint256"
        }
      ],
      "name": "ownerOf",
      "outputs": [
        {
          "internalType": "address",
          "name": "",
          "type": "address"
        }
      ],
      "stateMutability": "view",
      "type": "function"
    },
    {
      "inputs": [
        {
          "internalType": "address",
          "name": "from",
          "type": "address"
        },
        {
          "internalType": "address",
          "name": "to",
          "type": "address"
        },
        {
          "internalType": "uint256",
          "name": "tokenId",
          "type": "uint256"
        }
      ],
      "name": "safeTransferFrom",
      "outputs": [],
      "stateMutability": "nonpayable",
      "type": "function"
    },
    {
      "inputs": [
        {
          "internalType": "address",
          "name": "operator",
          "type": "address"
        },
        {
          "internalType": "bool",
          "name": "approved",
          "type": "bool"
        }
      ],
      "name": "setApprovalForAll",
      "outputs": [],
      "stateMutability": "nonpayable",
      "type": "function"
    },
    {
      "inputs": [],
      "name": "symbol",
      "outputs": [
        {
          "internalType": "string",
          "name": "",
          "type": "string"
        }
      ],
      "stateMutability": "view",
      "type": "function"
    },
    {
      "inputs": [
        {
          "internalType": "uint256",
          "name": "tokenId",
          "type": "uint256"
        }
      ],
      "name": "tokenURI",
      "outputs": [
        {
          "internalType": "string",
          "name": "",
          "type": "string"
        }
      ],
      "stateMutability": "view",
      "type": "function"
    },
    {
      "inputs": [
        {
          "internalType": "address",
          "name": "from",
          "type": "address"
        },
        {
          "internalType": "address",
          "name": "to",
          "type": "address"
        },
        {
          "internalType": "uint256",
          "name": "tokenId",
          "type": "uint256"
        }
      ],
      "name": "transferFrom",
      "outputs": [],
      "stateMutability": "nonpayable",
      "type": "function"
    }
  ],
  "bytecode": "0x60806040523480156200001157600080fd5b5060405162001c8c38038062001c8c833981810160405281019062000037919062000331565b83600090805190602001906200004f929190620000a7565b50826001908051906020019062000068929190620000a7565b5081600260006101000a81548160ff02191690831515021790555080600260016101000a81548160ff0219169083151502179055505050505062000445565b828054620000b59062000410565b90600052602060002090601f016020900481019282620000d9576000855562000125565b82601f10620000f457805160ff191683800117855562000125565b8280016001018555821562000125579182015b828111156200012457825182559160200191906001019062000107565b5b50905062000134919062000138565b5090565b5b808211156200015357600081600090555060010162000139565b5090565b6000604051905090565b600080fd5b600080fd5b600080fd5b600080fd5b6000601f19601f8301169050919050565b7f4e487b7100000000000000000000000000000000000000000000000000000000600052604160045260246000fd5b620001c08262000175565b810181811067ffffffffffffffff82111715620001e257620001e162000186565b5b80604052505050565b6000620001f762000157565b9050620002058282620001b5565b919050565b600067ffffffffffffffff82111562000228576200022762000186565b5b620002338262000175565b9050602081019050919050565b60005b838110156200026057808201518184015260208101905062000243565b8381111562000270576000848401525b50505050565b60006200028d62000287846200020a565b620001eb565b905082815260208101848484011115620002ac57620002ab62000170565b5b620002b984828562000240565b509392505050565b600082601f830112620002d957620002d86200016b565b5b8151620002eb84826020860162000276565b91505092915050565b60008115159050919050565b6200030b81620002f4565b81146200031757600080fd5b50565b6000815190506200032b8162000300565b92915050565b600080600080608085870312156200034e576200034d62000161565b5b600085015167ffffffffffffffff8111156200036f576200036e62000166565b5b6200037d87828801620002c1565b945050602085015167ffffffffffffffff811115620003a157620003a062000166565b5b620003af87828801620002c1565b9350506040620003c2878288016200031a565b9250506060620003d5878288016200031a565b91505092959194509250565b7f4e487b7100000000000000000000000000000000000000000000000000000000600052602260045260246000fd5b600060028204905060018216806200042957607f821691505b6020821081036200043f576200043e620003e1565b5b50919050565b61183780620004556000396000f3fe608060405234801561001057600080fd5b50600436106100a95760003560e01c80636352211e116100715780636352211e1461015057806370a082311461018057806395d89b41146101b0578063a22cb465146101ce578063c87b56dd146101ea578063e985e9c51461021a576100a9565b806306fdde03146100ae578063081812fc146100cc578063095ea7b3146100fc57806323b872dd1461011857806342842e0e14610134575b600080fd5b6100b661024a565b6040516100c39190610e73565b60405180910390f35b6100e660048036038101906100e19190610ed0565b6102dc565b6040516100f39190610f3e565b60405180910390f35b61011660048036038101906101119190610f85565b610361565b005b610132600480360381019061012d9190610fc5565b610470565b005b61014e60048036038101906101499190610fc5565b6104c9565b005b61016a60048036038101906101659190610ed0565b610522565b6040516101779190610f3e565b60405180910390f35b61019a60048036038101906101959190611018565b6105d3565b6040516101a79190611054565b60405180910390f35b6101b861068a565b6040516101c59190610e73565b60405180910390f35b6101e860048036038101906101e391906110a7565b61071c565b005b61020460048036038101906101ff9190610ed0565b61072b565b6040516102119190610e73565b60405180910390f35b610234600480360381019061022f91906110e7565b6107ca565b6040516102419190611136565b60405180910390f35b60606000805461025990611180565b80601f016020809104026020016040519081016040528092919081815260200182805461028590611180565b80156102d25780601f106102a7576101008083540402835291602001916102d2565b820191906000526020600020905b8154815290600101906020018083116102b557829003601f168201915b5050505050905090565b60006102e78261085e565b610326576040517f08c379a000000000000000000000000000000000000000000000000000000000815260040161031d906111fd565b60405180910390fd5b6005600083815260200190815260200160002060009054906101000a900473ffffffffffffffffffffffffffffffffffffffff169050919050565b600061036c82610522565b905060003390508173ffffffffffffffffffffffffffffffffffffffff168473ffffffffffffffffffffffffffffffffffffffff16036103e1576040517f08c379a00000000000000000000000000000000000000000000000000000000081526004016103d890611269565b60405180910390fd5b8173ffffffffffffffffffffffffffffffffffffffff168173ffffffffffffffffffffffffffffffffffffffff161480610421575061042082826107ca565b5b610460576040517f08c379a0000000000000000000000000000000000000000000000000000000008152600401610457906112d5565b60405180910390fd5b61046a84846108ca565b50505050565b61047a3382610963565b6104b9576040517f08c379a00000000000000000000000000000000000000000000000000000000081526004016104b090611341565b60405180910390fd5b6104c4838383610a41565b505050565b6104d33382610963565b610512576040517f08c379a000000000000000000000000000000000000000000000000000000000815260040161050990611341565b60405180910390fd5b61051d838383610c71565b505050565b6000806003600084815260200190815260200160002060009054906101000a900473ffffffffffffffffffffffffffffffffffffffff169050600073ffffffffffffffffffffffffffffffffffffffff168173ffffffffffffffffffffffffffffffffffffffff16036105ca576040517f08c379a00000000000000000000000000000000000000000000000000000000081526004016105c1906113ad565b60405180910390fd5b80915050919050565b60008073ffffffffffffffffffffffffffffffffffffffff168273ffffffffffffffffffffffffffffffffffffffff1603610643576040517f08c379a000000000000000000000000000000000000000000000000000000000815260040161063a90611419565b60405180910390fd5b600460008373ffffffffffffffffffffffffffffffffffffffff1673ffffffffffffffffffffffffffffffffffffffff168152602001908152602001600020549050919050565b60606001805461069990611180565b80601f01602080910402602001604051908101604052809291908181526020018280546106c590611180565b80156107125780601f106106e757610100808354040283529160200191610712565b820191906000526020600020905b8154815290600101906020018083116106f557829003601f168201915b5050505050905090565b610727338383610c81565b5050565b60606107368261085e565b610775576040517f08c379a000000000000000000000000000000000000000000000000000000000815260040161076c90611485565b60405180910390fd5b600061077f610dc3565b9050600081511161079f57604051806020016040528060008152506107c2565b80836040516020016107b2929190611502565b6040516020818303038152906040525b915050919050565b6000600660008473ffffffffffffffffffffffffffffffffffffffff1673ffffffffffffffffffffffffffffffffffffffff16815260200190815260200160002060008373ffffffffffffffffffffffffffffffffffffffff1673ffffffffffffffffffffffffffffffffffffffff16815260200190815260200160002060009054906101000a900460ff16905092915050565b60008073ffffffffffffffffffffffffffffffffffffffff166003600084815260200190815260200160002060009054906101000a900473ffffffffffffffffffffffffffffffffffffffff1673ffffffffffffffffffffffffffffffffffffffff1614159050919050565b816005600083815260200190815260200160002060006101000a81548173ffffffffffffffffffffffffffffffffffffffff021916908373ffffffffffffffffffffffffffffffffffffffff1602179055507f8c5be1e5ebec7d5bd14f71427d1e84f3dd0314c0f7b2291e5b200ac8c7c3b92561094682610522565b83836040516109579392919061152a565b60405180910390a15050565b600061096e8261085e565b6109ad576040517f08c379a00000000000000000000000000000000000000000000000000000000081526004016109a4906115ad565b60405180910390fd5b60006109b883610522565b90508073ffffffffffffffffffffffffffffffffffffffff168473ffffffffffffffffffffffffffffffffffffffff1614806109fa57506109f981856107ca565b5b80610a3857508373ffffffffffffffffffffffffffffffffffffffff16610a20846102dc565b73ffffffffffffffffffffffffffffffffffffffff16145b91505092915050565b8273ffffffffffffffffffffffffffffffffffffffff16610a6182610522565b73ffffffffffffffffffffffffffffffffffffffff1614610ab7576040517f08c379a0000000000000000000000000000000000000000000000000000000008152600401610aae90611619565b60405180910390fd5b600073ffffffffffffffffffffffffffffffffffffffff168273ffffffffffffffffffffffffffffffffffffffff1603610b26576040517f08c379a0000000000000000000000000000000000000000000000000000000008152600401610b1d90611685565b60405180910390fd5b610b316000826108ca565b6001600460008573ffffffffffffffffffffffffffffffffffffffff1673ffffffffffffffffffffffffffffffffffffffff1681526020019081526020016000206000828254610b8191906116d4565b925050819055506001600460008473ffffffffffffffffffffffffffffffffffffffff1673ffffffffffffffffffffffffffffffffffffffff1681526020019081526020016000206000828254610bd89190611708565b92505081905550816003600083815260200190815260200160002060006101000a81548173ffffffffffffffffffffffffffffffffffffffff021916908373ffffffffffffffffffffffffffffffffffffffff1602179055507fddf252ad1be2c89b69c2b068fc378daa952ba7f163c4a11628f55a4df523b3ef838383604051610c649392919061152a565b60405180910390a1505050565b610c7c838383610a41565b505050565b8173ffffffffffffffffffffffffffffffffffffffff168373ffffffffffffffffffffffffffffffffffffffff1603610cef576040517f08c379a0000000000000000000000000000000000000000000000000000000008152600401610ce6906117aa565b60405180910390fd5b80600660008573ffffffffffffffffffffffffffffffffffffffff1673ffffffffffffffffffffffffffffffffffffffff16815260200190815260200160002060008473ffffffffffffffffffffffffffffffffffffffff1673ffffffffffffffffffffffffffffffffffffffff16815260200190815260200160002060006101000a81548160ff0219169083151502179055507f17307eab39ab6107e8899845ad3d59bd9653f200f220920489ca2b5937696c31838383604051610db6939291906117ca565b60405180910390a1505050565b606060405180602001604052806000815250905090565b600081519050919050565b600082825260208201905092915050565b60005b83811015610e14578082015181840152602081019050610df9565b83811115610e23576000848401525b50505050565b6000601f19601f8301169050919050565b6000610e4582610dda565b610e4f8185610de5565b9350610e5f818560208601610df6565b610e6881610e29565b840191505092915050565b60006020820190508181036000830152610e8d8184610e3a565b905092915050565b600080fd5b6000819050919050565b610ead81610e9a565b8114610eb857600080fd5b50565b600081359050610eca81610ea4565b92915050565b600060208284031215610ee657610ee5610e95565b5b6000610ef484828501610ebb565b91505092915050565b600073ffffffffffffffffffffffffffffffffffffffff82169050919050565b6000610f2882610efd565b9050919050565b610f3881610f1d565b82525050565b6000602082019050610f536000830184610f2f565b92915050565b610f6281610f1d565b8114610f6d57600080fd5b50565b600081359050610f7f81610f59565b92915050565b60008060408385031215610f9c57610f9b610e95565b5b6000610faa85828601610f70565b9250506020610fbb85828601610ebb565b9150509250929050565b600080600060608486031215610fde57610fdd610e95565b5b6000610fec86828701610f70565b9350506020610ffd86828701610f70565b925050604061100e86828701610ebb565b9150509250925092565b60006020828403121561102e5761102d610e95565b5b600061103c84828501610f70565b91505092915050565b61104e81610e9a565b82525050565b60006020820190506110696000830184611045565b92915050565b60008115159050919050565b6110848161106f565b811461108f57600080fd5b50565b6000813590506110a18161107b565b92915050565b600080604083850312156110be576110bd610e95565b5b60006110cc85828601610f70565b92505060206110dd85828601611092565b9150509250929050565b600080604083850312156110fe576110fd610e95565b5b600061110c85828601610f70565b925050602061111d85828601610f70565b9150509250929050565b6111308161106f565b82525050565b600060208201905061114b6000830184611127565b92915050565b7f4e487b7100000000000000000000000000000000000000000000000000000000600052602260045260246000fd5b6000600282049050600182168061119857607f821691505b6020821081036111ab576111aa611151565b5b50919050565b7f617070726f76656420717565727920666f7220696e76616c696420746f6b656e600082015250565b60006111e7602083610de5565b91506111f2826111b1565b602082019050919050565b60006020820190508181036000830152611216816111da565b9050919050565b7f617070726f76616c20746f2063757272656e74206f776e657200000000000000600082015250565b6000611253601983610de5565b915061125e8261121d565b602082019050919050565b6000602082019050818103600083015261128281611246565b9050919050565b7f696e76616c69642063616c6c6572000000000000000000000000000000000000600082015250565b60006112bf600e83610de5565b91506112ca82611289565b602082019050919050565b600060208201905081810360008301526112ee816112b2565b9050919050565b7f7472616e736665722063616c6c6572206973206e6f74206f776e657200000000600082015250565b600061132b601c83610de5565b9150611336826112f5565b602082019050919050565b6000602082019050818103600083015261135a8161131e565b9050919050565b7f6f776e657220717565727920666f7220696e76616c696420746f6b656e000000600082015250565b6000611397601d83610de5565b91506113a282611361565b602082019050919050565b600060208201905081810360008301526113c68161138a565b9050919050565b7f41646472657373207a65726f206973206e6f742076616c696400000000000000600082015250565b6000611403601983610de5565b915061140e826113cd565b602082019050919050565b60006020820190508181036000830152611432816113f6565b9050919050565b7f746f6b656e20646f6573206e6f74206578697374000000000000000000000000600082015250565b600061146f601483610de5565b915061147a82611439565b602082019050919050565b6000602082019050818103600083015261149e81611462565b9050919050565b600081905092915050565b60006114bb82610dda565b6114c581856114a5565b93506114d5818560208601610df6565b80840191505092915050565b6000819050919050565b6114fc6114f782610e9a565b6114e1565b82525050565b600061150e82856114b0565b915061151a82846114eb565b6020820191508190509392505050565b600060608201905061153f6000830186610f2f565b61154c6020830185610f2f565b6115596040830184611045565b949350505050565b7f6f70657261746f7220717565727920666f7220696e76616c696420746f6b656e600082015250565b6000611597602083610de5565b91506115a282611561565b602082019050919050565b600060208201905081810360008301526115c68161158a565b9050919050565b7f7472616e736665722066726f6d20696e636f7272656374206f776e6572000000600082015250565b6000611603601d83610de5565b915061160e826115cd565b602082019050919050565b60006020820190508181036000830152611632816115f6565b9050919050565b7f7472616e7366657220746f20746865207a65726f206164647265737300000000600082015250565b600061166f601c83610de5565b915061167a82611639565b602082019050919050565b6000602082019050818103600083015261169e81611662565b9050919050565b7f4e487b7100000000000000000000000000000000000000000000000000000000600052601160045260246000fd5b60006116df82610e9a565b91506116ea83610e9a565b9250828210156116fd576116fc6116a5565b5b828203905092915050565b600061171382610e9a565b915061171e83610e9a565b9250827fffffffffffffffffffffffffffffffffffffffffffffffffffffffffffffffff03821115611753576117526116a5565b5b828201905092915050565b7f4552433732313a20617070726f766520746f2063616c6c657200000000000000600082015250565b6000611794601983610de5565b915061179f8261175e565b602082019050919050565b600060208201905081810360008301526117c381611787565b9050919050565b60006060820190506117df6000830186610f2f565b6117ec6020830185610f2f565b6117f96040830184611127565b94935050505056fea264697066735822122097866aacb333ae0f4fb30167d92d9810ded707e53e651961ddc332cc344b15d064736f6c634300080e0033",
  "linkReferences": {},
  "deployedLinkReferences": {}
}