{
  "_format": "hh-sol-artifact-1",
  "contractName": "CustomERC1155Token",
  "sourceName": "contracts/CustomERC1155.sol",
  "abi": [
    {
      "inputs": [
        {
          "internalType": "string",
          "name": "_contractName",
          "type": "string"
        },
        {
          "internalType": "string",
          "name": "_uri",
          "type": "string"
        },
        {
          "internalType": "bool",
          "name": "__isMintable",
          "type": "bool"
        },
        {
          "internalType": "string[]",
          "name": "_names",
          "type": "string[]"
        },
        {
          "internalType": "uint256[]",
          "name": "_ids",
          "type": "uint256[]"
        }
      ],
      "stateMutability": "nonpayable",
      "type": "constructor"
    },
    {
      "anonymous": false,
      "inputs": [
        {
          "indexed": true,
          "internalType": "address",
          "name": "account",
          "type": "address"
        },
        {
          "indexed": true,
          "internalType": "address",
          "name": "operator",
          "type": "address"
        },
        {
          "indexed": false,
          "internalType": "bool",
          "name": "approved",
          "type": "bool"
        }
      ],
      "name": "ApprovalForAll",
      "type": "event"
    },
    {
      "anonymous": false,
      "inputs": [
        {
          "indexed": true,
          "internalType": "address",
          "name": "previousOwner",
          "type": "address"
        },
        {
          "indexed": true,
          "internalType": "address",
          "name": "newOwner",
          "type": "address"
        }
      ],
      "name": "OwnershipTransferred",
      "type": "event"
    },
    {
      "anonymous": false,
      "inputs": [
        {
          "indexed": true,
          "internalType": "address",
          "name": "operator",
          "type": "address"
        },
        {
          "indexed": true,
          "internalType": "address",
          "name": "from",
          "type": "address"
        },
        {
          "indexed": true,
          "internalType": "address",
          "name": "to",
          "type": "address"
        },
        {
          "indexed": false,
          "internalType": "uint256[]",
          "name": "ids",
          "type": "uint256[]"
        },
        {
          "indexed": false,
          "internalType": "uint256[]",
          "name": "values",
          "type": "uint256[]"
        }
      ],
      "name": "TransferBatch",
      "type": "event"
    },
    {
      "anonymous": false,
      "inputs": [
        {
          "indexed": true,
          "internalType": "address",
          "name": "operator",
          "type": "address"
        },
        {
          "indexed": true,
          "internalType": "address",
          "name": "from",
          "type": "address"
        },
        {
          "indexed": true,
          "internalType": "address",
          "name": "to",
          "type": "address"
        },
        {
          "indexed": false,
          "internalType": "uint256",
          "name": "id",
          "type": "uint256"
        },
        {
          "indexed": false,
          "internalType": "uint256",
          "name": "value",
          "type": "uint256"
        }
      ],
      "name": "TransferSingle",
      "type": "event"
    },
    {
      "anonymous": false,
      "inputs": [
        {
          "indexed": false,
          "internalType": "string",
          "name": "value",
          "type": "string"
        },
        {
          "indexed": true,
          "internalType": "uint256",
          "name": "id",
          "type": "uint256"
        }
      ],
      "name": "URI",
      "type": "event"
    },
    {
      "inputs": [
        {
          "internalType": "address",
          "name": "account",
          "type": "address"
        },
        {
          "internalType": "uint256",
          "name": "id",
          "type": "uint256"
        }
      ],
      "name": "balanceOf",
      "outputs": [
        {
          "internalType": "uint256",
          "name": "",
          "type": "uint256"
        }
      ],
      "stateMutability": "view",
      "type": "function"
    },
    {
      "inputs": [
        {
          "internalType": "address[]",
          "name": "accounts",
          "type": "address[]"
        },
        {
          "internalType": "uint256[]",
          "name": "ids",
          "type": "uint256[]"
        }
      ],
      "name": "balanceOfBatch",
      "outputs": [
        {
          "internalType": "uint256[]",
          "name": "",
          "type": "uint256[]"
        }
      ],
      "stateMutability": "view",
      "type": "function"
    },
    {
      "inputs": [],
      "name": "baseMetadataURI",
      "outputs": [
        {
          "internalType": "string",
          "name": "",
          "type": "string"
        }
      ],
      "stateMutability": "view",
      "type": "function"
    },
    {
      "inputs": [],
      "name": "getNames",
      "outputs": [
        {
          "internalType": "string[]",
          "name": "",
          "type": "string[]"
        }
      ],
      "stateMutability": "view",
      "type": "function"
    },
    {
      "inputs": [
        {
          "internalType": "uint256",
          "name": "",
          "type": "uint256"
        }
      ],
      "name": "idToName",
      "outputs": [
        {
          "internalType": "string",
          "name": "",
          "type": "string"
        }
      ],
      "stateMutability": "view",
      "type": "function"
    },
    {
      "inputs": [
        {
          "internalType": "uint256",
          "name": "",
          "type": "uint256"
        }
      ],
      "name": "ids",
      "outputs": [
        {
          "internalType": "uint256",
          "name": "",
          "type": "uint256"
        }
      ],
      "stateMutability": "view",
      "type": "function"
    },
    {
      "inputs": [
        {
          "internalType": "address",
          "name": "account",
          "type": "address"
        },
        {
          "internalType": "address",
          "name": "operator",
          "type": "address"
        }
      ],
      "name": "isApprovedForAll",
      "outputs": [
        {
          "internalType": "bool",
          "name": "",
          "type": "bool"
        }
      ],
      "stateMutability": "view",
      "type": "function"
    },
    {
      "inputs": [],
      "name": "isMintable",
      "outputs": [
        {
          "internalType": "bool",
          "name": "",
          "type": "bool"
        }
      ],
      "stateMutability": "view",
      "type": "function"
    },
    {
      "inputs": [
        {
          "internalType": "address",
          "name": "_account",
          "type": "address"
        },
        {
          "internalType": "uint256",
          "name": "_id",
          "type": "uint256"
        },
        {
          "internalType": "uint256",
          "name": "_amount",
          "type": "uint256"
        }
      ],
      "name": "mint",
      "outputs": [
        {
          "internalType": "uint256",
          "name": "",
          "type": "uint256"
        }
      ],
      "stateMutability": "payable",
      "type": "function"
    },
    {
      "inputs": [],
      "name": "mintFee",
      "outputs": [
        {
          "internalType": "uint256",
          "name": "",
          "type": "uint256"
        }
      ],
      "stateMutability": "view",
      "type": "function"
    },
    {
      "inputs": [],
      "name": "name",
      "outputs": [
        {
          "internalType": "string",
          "name": "",
          "type": "string"
        }
      ],
      "stateMutability": "view",
      "type": "function"
    },
    {
      "inputs": [
        {
          "internalType": "string",
          "name": "",
          "type": "string"
        }
      ],
      "name": "nameToId",
      "outputs": [
        {
          "internalType": "uint256",
          "name": "",
          "type": "uint256"
        }
      ],
      "stateMutability": "view",
      "type": "function"
    },
    {
      "inputs": [
        {
          "internalType": "uint256",
          "name": "",
          "type": "uint256"
        }
      ],
      "name": "names",
      "outputs": [
        {
          "internalType": "string",
          "name": "",
          "type": "string"
        }
      ],
      "stateMutability": "view",
      "type": "function"
    },
    {
      "inputs": [],
      "name": "owner",
      "outputs": [
        {
          "internalType": "address",
          "name": "",
          "type": "address"
        }
      ],
      "stateMutability": "view",
      "type": "function"
    },
    {
      "inputs": [],
      "name": "renounceOwnership",
      "outputs": [],
      "stateMutability": "nonpayable",
      "type": "function"
    },
    {
      "inputs": [
        {
          "internalType": "address",
          "name": "from",
          "type": "address"
        },
        {
          "internalType": "address",
          "name": "to",
          "type": "address"
        },
        {
          "internalType": "uint256[]",
          "name": "ids",
          "type": "uint256[]"
        },
        {
          "internalType": "uint256[]",
          "name": "amounts",
          "type": "uint256[]"
        },
        {
          "internalType": "bytes",
          "name": "data",
          "type": "bytes"
        }
      ],
      "name": "safeBatchTransferFrom",
      "outputs": [],
      "stateMutability": "nonpayable",
      "type": "function"
    },
    {
      "inputs": [
        {
          "internalType": "address",
          "name": "from",
          "type": "address"
        },
        {
          "internalType": "address",
          "name": "to",
          "type": "address"
        },
        {
          "internalType": "uint256",
          "name": "id",
          "type": "uint256"
        },
        {
          "internalType": "uint256",
          "name": "amount",
          "type": "uint256"
        },
        {
          "internalType": "bytes",
          "name": "data",
          "type": "bytes"
        }
      ],
      "name": "safeTransferFrom",
      "outputs": [],
      "stateMutability": "nonpayable",
      "type": "function"
    },
    {
      "inputs": [
        {
          "internalType": "address",
          "name": "operator",
          "type": "address"
        },
        {
          "internalType": "bool",
          "name": "approved",
          "type": "bool"
        }
      ],
      "name": "setApprovalForAll",
      "outputs": [],
      "stateMutability": "nonpayable",
      "type": "function"
    },
    {
      "inputs": [
        {
          "internalType": "string",
          "name": "newuri",
          "type": "string"
        }
      ],
      "name": "setURI",
      "outputs": [],
      "stateMutability": "nonpayable",
      "type": "function"
    },
    {
      "inputs": [
        {
          "internalType": "bytes4",
          "name": "interfaceId",
          "type": "bytes4"
        }
      ],
      "name": "supportsInterface",
      "outputs": [
        {
          "internalType": "bool",
          "name": "",
          "type": "bool"
        }
      ],
      "stateMutability": "view",
      "type": "function"
    },
    {
      "inputs": [
        {
          "internalType": "address",
          "name": "newOwner",
          "type": "address"
        }
      ],
      "name": "transferOwnership",
      "outputs": [],
      "stateMutability": "nonpayable",
      "type": "function"
    },
    {
      "inputs": [
        {
          "internalType": "uint256",
          "name": "",
          "type": "uint256"
        }
      ],
      "name": "uri",
      "outputs": [
        {
          "internalType": "string",
          "name": "",
          "type": "string"
        }
      ],
      "stateMutability": "view",
      "type": "function"
    }
  ],
  "bytecode": "0x608060405260006007553480156200001657600080fd5b50604051620046ea380380620046ea83398181016040528101906200003c919062000b4d565b836200004e816200012a60201b60201c565b506200006f620000636200014660201b60201c565b6200014e60201b60201c565b816008908051906020019062000087929190620004f7565b508060099080519060200190620000a09291906200055e565b50620000b16200021460201b60201c565b620000c2846200031560201b60201c565b8360049080519060200190620000da929190620005b0565b508460059080519060200190620000f3929190620005b0565b5082600660006101000a81548160ff0219169083151502179055506200011f32620003b860201b60201c565b505050505062000f3f565b806002908051906020019062000142929190620005b0565b5050565b600033905090565b6000600360009054906101000a900473ffffffffffffffffffffffffffffffffffffffff16905081600360006101000a81548173ffffffffffffffffffffffffffffffffffffffff021916908373ffffffffffffffffffffffffffffffffffffffff1602179055508173ffffffffffffffffffffffffffffffffffffffff168173ffffffffffffffffffffffffffffffffffffffff167f8be0079c531659141344cd1fd0a4f28419497f9722a3daafe3b4186f6b6457e060405160405180910390a35050565b60005b6009805490508110156200031257600981815481106200023c576200023b62000c51565b5b9060005260206000200154600a6008838154811062000260576200025f62000c51565b5b9060005260206000200160405162000279919062000d8f565b90815260200160405180910390208190555060088181548110620002a257620002a162000c51565b5b90600052602060002001600b600060098481548110620002c757620002c662000c51565b5b90600052602060002001548152602001908152602001600020908054620002ee9062000caf565b620002fb92919062000641565b508080620003099062000dd7565b91505062000217565b50565b620003256200014660201b60201c565b73ffffffffffffffffffffffffffffffffffffffff166200034b620004cd60201b60201c565b73ffffffffffffffffffffffffffffffffffffffff1614620003a4576040517f08c379a00000000000000000000000000000000000000000000000000000000081526004016200039b9062000e85565b60405180910390fd5b620003b5816200012a60201b60201c565b50565b620003c86200014660201b60201c565b73ffffffffffffffffffffffffffffffffffffffff16620003ee620004cd60201b60201c565b73ffffffffffffffffffffffffffffffffffffffff161462000447576040517f08c379a00000000000000000000000000000000000000000000000000000000081526004016200043e9062000e85565b60405180910390fd5b600073ffffffffffffffffffffffffffffffffffffffff168173ffffffffffffffffffffffffffffffffffffffff1603620004b9576040517f08c379a0000000000000000000000000000000000000000000000000000000008152600401620004b09062000f1d565b60405180910390fd5b620004ca816200014e60201b60201c565b50565b6000600360009054906101000a900473ffffffffffffffffffffffffffffffffffffffff16905090565b8280548282559060005260206000209081019282156200054b579160200282015b828111156200054a57825182908051906020019062000539929190620005b0565b509160200191906001019062000518565b5b5090506200055a9190620006d9565b5090565b8280548282559060005260206000209081019282156200059d579160200282015b828111156200059c5782518255916020019190600101906200057f565b5b509050620005ac919062000701565b5090565b828054620005be9062000caf565b90600052602060002090601f016020900481019282620005e257600085556200062e565b82601f10620005fd57805160ff19168380011785556200062e565b828001600101855582156200062e579182015b828111156200062d57825182559160200191906001019062000610565b5b5090506200063d919062000701565b5090565b8280546200064f9062000caf565b90600052602060002090601f016020900481019282620006735760008555620006c6565b82601f10620006865780548555620006c6565b82800160010185558215620006c657600052602060002091601f016020900482015b82811115620006c5578254825591600101919060010190620006a8565b5b509050620006d5919062000701565b5090565b5b80821115620006fd5760008181620006f3919062000720565b50600101620006da565b5090565b5b808211156200071c57600081600090555060010162000702565b5090565b5080546200072e9062000caf565b6000825580601f1062000742575062000763565b601f01602090049060005260206000209081019062000762919062000701565b5b50565b6000604051905090565b600080fd5b600080fd5b600080fd5b600080fd5b6000601f19601f8301169050919050565b7f4e487b7100000000000000000000000000000000000000000000000000000000600052604160045260246000fd5b620007cf8262000784565b810181811067ffffffffffffffff82111715620007f157620007f062000795565b5b80604052505050565b60006200080662000766565b9050620008148282620007c4565b919050565b600067ffffffffffffffff82111562000837576200083662000795565b5b620008428262000784565b9050602081019050919050565b60005b838110156200086f57808201518184015260208101905062000852565b838111156200087f576000848401525b50505050565b60006200089c620008968462000819565b620007fa565b905082815260208101848484011115620008bb57620008ba6200077f565b5b620008c88482856200084f565b509392505050565b600082601f830112620008e857620008e76200077a565b5b8151620008fa84826020860162000885565b91505092915050565b60008115159050919050565b6200091a8162000903565b81146200092657600080fd5b50565b6000815190506200093a816200090f565b92915050565b600067ffffffffffffffff8211156200095e576200095d62000795565b5b602082029050602081019050919050565b600080fd5b60006200098b620009858462000940565b620007fa565b90508083825260208201905060208402830185811115620009b157620009b06200096f565b5b835b81811015620009ff57805167ffffffffffffffff811115620009da57620009d96200077a565b5b808601620009e98982620008d0565b85526020850194505050602081019050620009b3565b5050509392505050565b600082601f83011262000a215762000a206200077a565b5b815162000a3384826020860162000974565b91505092915050565b600067ffffffffffffffff82111562000a5a5762000a5962000795565b5b602082029050602081019050919050565b6000819050919050565b62000a808162000a6b565b811462000a8c57600080fd5b50565b60008151905062000aa08162000a75565b92915050565b600062000abd62000ab78462000a3c565b620007fa565b9050808382526020820190506020840283018581111562000ae35762000ae26200096f565b5b835b8181101562000b10578062000afb888262000a8f565b84526020840193505060208101905062000ae5565b5050509392505050565b600082601f83011262000b325762000b316200077a565b5b815162000b4484826020860162000aa6565b91505092915050565b600080600080600060a0868803121562000b6c5762000b6b62000770565b5b600086015167ffffffffffffffff81111562000b8d5762000b8c62000775565b5b62000b9b88828901620008d0565b955050602086015167ffffffffffffffff81111562000bbf5762000bbe62000775565b5b62000bcd88828901620008d0565b945050604062000be08882890162000929565b935050606086015167ffffffffffffffff81111562000c045762000c0362000775565b5b62000c128882890162000a09565b925050608086015167ffffffffffffffff81111562000c365762000c3562000775565b5b62000c448882890162000b1a565b9150509295509295909350565b7f4e487b7100000000000000000000000000000000000000000000000000000000600052603260045260246000fd5b7f4e487b7100000000000000000000000000000000000000000000000000000000600052602260045260246000fd5b6000600282049050600182168062000cc857607f821691505b60208210810362000cde5762000cdd62000c80565b5b50919050565b600081905092915050565b60008190508160005260206000209050919050565b6000815462000d138162000caf565b62000d1f818662000ce4565b9450600182166000811462000d3d576001811462000d4f5762000d86565b60ff1983168652818601935062000d86565b62000d5a8562000cef565b60005b8381101562000d7e5781548189015260018201915060208101905062000d5d565b838801955050505b50505092915050565b600062000d9d828462000d04565b915081905092915050565b7f4e487b7100000000000000000000000000000000000000000000000000000000600052601160045260246000fd5b600062000de48262000a6b565b91507fffffffffffffffffffffffffffffffffffffffffffffffffffffffffffffffff820362000e195762000e1862000da8565b5b600182019050919050565b600082825260208201905092915050565b7f4f776e61626c653a2063616c6c6572206973206e6f7420746865206f776e6572600082015250565b600062000e6d60208362000e24565b915062000e7a8262000e35565b602082019050919050565b6000602082019050818103600083015262000ea08162000e5e565b9050919050565b7f4f776e61626c653a206e6577206f776e657220697320746865207a65726f206160008201527f6464726573730000000000000000000000000000000000000000000000000000602082015250565b600062000f0560268362000e24565b915062000f128262000ea7565b604082019050919050565b6000602082019050818103600083015262000f388162000ef6565b9050919050565b61379b8062000f4f6000396000f3fe6080604052600436106101345760003560e01c80634e1273f4116100ab578063cd838f0f1161006f578063cd838f0f14610440578063e985e9c51461046b578063f242432a146104a8578063f2fde38b146104d1578063f6d8f2cb146104fa578063fac333ac1461053757610134565b80634e1273f41461036d5780635b2bd79e146103aa578063715018a6146103d55780638da5cb5b146103ec578063a22cb4651461041757610134565b806313966db5116100fd57806313966db514610244578063156e29f61461026f5780632eb2c2d61461029f578063364410b3146102c85780634622ab031461030557806346b45af71461034257610134565b8062fdd58e1461013957806301ffc9a71461017657806302fe5305146101b357806306fdde03146101dc5780630e89341c14610207575b600080fd5b34801561014557600080fd5b50610160600480360381019061015b91906120e8565b610574565b60405161016d9190612137565b60405180910390f35b34801561018257600080fd5b5061019d600480360381019061019891906121aa565b61063c565b6040516101aa91906121f2565b60405180910390f35b3480156101bf57600080fd5b506101da60048036038101906101d59190612353565b61071e565b005b3480156101e857600080fd5b506101f16107a6565b6040516101fe9190612424565b60405180910390f35b34801561021357600080fd5b5061022e60048036038101906102299190612446565b610834565b60405161023b9190612424565b60405180910390f35b34801561025057600080fd5b506102596108c8565b6040516102669190612137565b60405180910390f35b61028960048036038101906102849190612473565b6108ce565b6040516102969190612137565b60405180910390f35b3480156102ab57600080fd5b506102c660048036038101906102c1919061262f565b610952565b005b3480156102d457600080fd5b506102ef60048036038101906102ea9190612446565b6109f3565b6040516102fc9190612424565b60405180910390f35b34801561031157600080fd5b5061032c60048036038101906103279190612446565b610a93565b6040516103399190612424565b60405180910390f35b34801561034e57600080fd5b50610357610b3f565b60405161036491906121f2565b60405180910390f35b34801561037957600080fd5b50610394600480360381019061038f91906127c1565b610b52565b6040516103a191906128f7565b60405180910390f35b3480156103b657600080fd5b506103bf610c6b565b6040516103cc9190612424565b60405180910390f35b3480156103e157600080fd5b506103ea610cf9565b005b3480156103f857600080fd5b50610401610d81565b60405161040e9190612928565b60405180910390f35b34801561042357600080fd5b5061043e6004803603810190610439919061296f565b610dab565b005b34801561044c57600080fd5b50610455610dc1565b6040516104629190612abb565b60405180910390f35b34801561047757600080fd5b50610492600480360381019061048d9190612add565b610e9a565b60405161049f91906121f2565b60405180910390f35b3480156104b457600080fd5b506104cf60048036038101906104ca9190612b1d565b610f2e565b005b3480156104dd57600080fd5b506104f860048036038101906104f39190612bb4565b610fcf565b005b34801561050657600080fd5b50610521600480360381019061051c9190612353565b6110c6565b60405161052e9190612137565b60405180910390f35b34801561054357600080fd5b5061055e60048036038101906105599190612446565b6110f4565b60405161056b9190612137565b60405180910390f35b60008073ffffffffffffffffffffffffffffffffffffffff168373ffffffffffffffffffffffffffffffffffffffff16036105e4576040517f08c379a00000000000000000000000000000000000000000000000000000000081526004016105db90612c53565b60405180910390fd5b60008083815260200190815260200160002060008473ffffffffffffffffffffffffffffffffffffffff1673ffffffffffffffffffffffffffffffffffffffff16815260200190815260200160002054905092915050565b60007fd9b67a26000000000000000000000000000000000000000000000000000000007bffffffffffffffffffffffffffffffffffffffffffffffffffffffff1916827bffffffffffffffffffffffffffffffffffffffffffffffffffffffff1916148061070757507f0e89341c000000000000000000000000000000000000000000000000000000007bffffffffffffffffffffffffffffffffffffffffffffffffffffffff1916827bffffffffffffffffffffffffffffffffffffffffffffffffffffffff1916145b80610717575061071682611118565b5b9050919050565b610726611182565b73ffffffffffffffffffffffffffffffffffffffff16610744610d81565b73ffffffffffffffffffffffffffffffffffffffff161461079a576040517f08c379a000000000000000000000000000000000000000000000000000000000815260040161079190612cbf565b60405180910390fd5b6107a38161118a565b50565b600580546107b390612d0e565b80601f01602080910402602001604051908101604052809291908181526020018280546107df90612d0e565b801561082c5780601f106108015761010080835404028352916020019161082c565b820191906000526020600020905b81548152906001019060200180831161080f57829003601f168201915b505050505081565b60606002805461084390612d0e565b80601f016020809104026020016040519081016040528092919081815260200182805461086f90612d0e565b80156108bc5780601f10610891576101008083540402835291602001916108bc565b820191906000526020600020905b81548152906001019060200180831161089f57829003601f168201915b50505050509050919050565b60075481565b6000600660009054906101000a900460ff1661091f576040517f08c379a000000000000000000000000000000000000000000000000000000000815260040161091690612d8b565b60405180910390fd5b600754341461092d57600080fd5b610948848484604051806020016040528060008152506111a4565b8290509392505050565b61095a611182565b73ffffffffffffffffffffffffffffffffffffffff168573ffffffffffffffffffffffffffffffffffffffff1614806109a0575061099f8561099a611182565b610e9a565b5b6109df576040517f08c379a00000000000000000000000000000000000000000000000000000000081526004016109d690612e1d565b60405180910390fd5b6109ec8585858585611354565b5050505050565b600b6020528060005260406000206000915090508054610a1290612d0e565b80601f0160208091040260200160405190810160405280929190818152602001828054610a3e90612d0e565b8015610a8b5780601f10610a6057610100808354040283529160200191610a8b565b820191906000526020600020905b815481529060010190602001808311610a6e57829003601f168201915b505050505081565b60088181548110610aa357600080fd5b906000526020600020016000915090508054610abe90612d0e565b80601f0160208091040260200160405190810160405280929190818152602001828054610aea90612d0e565b8015610b375780601f10610b0c57610100808354040283529160200191610b37565b820191906000526020600020905b815481529060010190602001808311610b1a57829003601f168201915b505050505081565b600660009054906101000a900460ff1681565b60608151835114610b98576040517f08c379a0000000000000000000000000000000000000000000000000000000008152600401610b8f90612eaf565b60405180910390fd5b6000835167ffffffffffffffff811115610bb557610bb4612228565b5b604051908082528060200260200182016040528015610be35781602001602082028036833780820191505090505b50905060005b8451811015610c6057610c30858281518110610c0857610c07612ecf565b5b6020026020010151858381518110610c2357610c22612ecf565b5b6020026020010151610574565b828281518110610c4357610c42612ecf565b5b60200260200101818152505080610c5990612f2d565b9050610be9565b508091505092915050565b60048054610c7890612d0e565b80601f0160208091040260200160405190810160405280929190818152602001828054610ca490612d0e565b8015610cf15780601f10610cc657610100808354040283529160200191610cf1565b820191906000526020600020905b815481529060010190602001808311610cd457829003601f168201915b505050505081565b610d01611182565b73ffffffffffffffffffffffffffffffffffffffff16610d1f610d81565b73ffffffffffffffffffffffffffffffffffffffff1614610d75576040517f08c379a0000000000000000000000000000000000000000000000000000000008152600401610d6c90612cbf565b60405180910390fd5b610d7f6000611675565b565b6000600360009054906101000a900473ffffffffffffffffffffffffffffffffffffffff16905090565b610dbd610db6611182565b838361173b565b5050565b60606008805480602002602001604051908101604052809291908181526020016000905b82821015610e91578382906000526020600020018054610e0490612d0e565b80601f0160208091040260200160405190810160405280929190818152602001828054610e3090612d0e565b8015610e7d5780601f10610e5257610100808354040283529160200191610e7d565b820191906000526020600020905b815481529060010190602001808311610e6057829003601f168201915b505050505081526020019060010190610de5565b50505050905090565b6000600160008473ffffffffffffffffffffffffffffffffffffffff1673ffffffffffffffffffffffffffffffffffffffff16815260200190815260200160002060008373ffffffffffffffffffffffffffffffffffffffff1673ffffffffffffffffffffffffffffffffffffffff16815260200190815260200160002060009054906101000a900460ff16905092915050565b610f36611182565b73ffffffffffffffffffffffffffffffffffffffff168573ffffffffffffffffffffffffffffffffffffffff161480610f7c5750610f7b85610f76611182565b610e9a565b5b610fbb576040517f08c379a0000000000000000000000000000000000000000000000000000000008152600401610fb290612fe7565b60405180910390fd5b610fc885858585856118a7565b5050505050565b610fd7611182565b73ffffffffffffffffffffffffffffffffffffffff16610ff5610d81565b73ffffffffffffffffffffffffffffffffffffffff161461104b576040517f08c379a000000000000000000000000000000000000000000000000000000000815260040161104290612cbf565b60405180910390fd5b600073ffffffffffffffffffffffffffffffffffffffff168173ffffffffffffffffffffffffffffffffffffffff16036110ba576040517f08c379a00000000000000000000000000000000000000000000000000000000081526004016110b190613079565b60405180910390fd5b6110c381611675565b50565b600a818051602081018201805184825260208301602085012081835280955050505050506000915090505481565b6009818154811061110457600080fd5b906000526020600020016000915090505481565b60007f01ffc9a7000000000000000000000000000000000000000000000000000000007bffffffffffffffffffffffffffffffffffffffffffffffffffffffff1916827bffffffffffffffffffffffffffffffffffffffffffffffffffffffff1916149050919050565b600033905090565b80600290805190602001906111a0929190611f9d565b5050565b600073ffffffffffffffffffffffffffffffffffffffff168473ffffffffffffffffffffffffffffffffffffffff1603611213576040517f08c379a000000000000000000000000000000000000000000000000000000000815260040161120a9061310b565b60405180910390fd5b600061121d611182565b9050600061122a85611b42565b9050600061123785611b42565b905061124883600089858589611bbc565b8460008088815260200190815260200160002060008973ffffffffffffffffffffffffffffffffffffffff1673ffffffffffffffffffffffffffffffffffffffff16815260200190815260200160002060008282546112a7919061312b565b925050819055508673ffffffffffffffffffffffffffffffffffffffff16600073ffffffffffffffffffffffffffffffffffffffff168473ffffffffffffffffffffffffffffffffffffffff167fc3d58168c5ae7397731d063d5bbf3d657854427343f4c083240f7aacaa2d0f628989604051611325929190613181565b60405180910390a461133c83600089858589611bc4565b61134b83600089898989611bcc565b50505050505050565b8151835114611398576040517f08c379a000000000000000000000000000000000000000000000000000000000815260040161138f9061321c565b60405180910390fd5b600073ffffffffffffffffffffffffffffffffffffffff168473ffffffffffffffffffffffffffffffffffffffff1603611407576040517f08c379a00000000000000000000000000000000000000000000000000000000081526004016113fe906132ae565b60405180910390fd5b6000611411611182565b9050611421818787878787611bbc565b60005b84518110156115d257600085828151811061144257611441612ecf565b5b60200260200101519050600085838151811061146157611460612ecf565b5b60200260200101519050600080600084815260200190815260200160002060008b73ffffffffffffffffffffffffffffffffffffffff1673ffffffffffffffffffffffffffffffffffffffff16815260200190815260200160002054905081811015611502576040517f08c379a00000000000000000000000000000000000000000000000000000000081526004016114f990613340565b60405180910390fd5b81810360008085815260200190815260200160002060008c73ffffffffffffffffffffffffffffffffffffffff1673ffffffffffffffffffffffffffffffffffffffff168152602001908152602001600020819055508160008085815260200190815260200160002060008b73ffffffffffffffffffffffffffffffffffffffff1673ffffffffffffffffffffffffffffffffffffffff16815260200190815260200160002060008282546115b7919061312b565b92505081905550505050806115cb90612f2d565b9050611424565b508473ffffffffffffffffffffffffffffffffffffffff168673ffffffffffffffffffffffffffffffffffffffff168273ffffffffffffffffffffffffffffffffffffffff167f4a39dc06d4c0dbc64b70af90fd698a233a518aa5d07e595d983b8c0526c8f7fb8787604051611649929190613360565b60405180910390a461165f818787878787611bc4565b61166d818787878787611da3565b505050505050565b6000600360009054906101000a900473ffffffffffffffffffffffffffffffffffffffff16905081600360006101000a81548173ffffffffffffffffffffffffffffffffffffffff021916908373ffffffffffffffffffffffffffffffffffffffff1602179055508173ffffffffffffffffffffffffffffffffffffffff168173ffffffffffffffffffffffffffffffffffffffff167f8be0079c531659141344cd1fd0a4f28419497f9722a3daafe3b4186f6b6457e060405160405180910390a35050565b8173ffffffffffffffffffffffffffffffffffffffff168373ffffffffffffffffffffffffffffffffffffffff16036117a9576040517f08c379a00000000000000000000000000000000000000000000000000000000081526004016117a090613409565b60405180910390fd5b80600160008573ffffffffffffffffffffffffffffffffffffffff1673ffffffffffffffffffffffffffffffffffffffff16815260200190815260200160002060008473ffffffffffffffffffffffffffffffffffffffff1673ffffffffffffffffffffffffffffffffffffffff16815260200190815260200160002060006101000a81548160ff0219169083151502179055508173ffffffffffffffffffffffffffffffffffffffff168373ffffffffffffffffffffffffffffffffffffffff167f17307eab39ab6107e8899845ad3d59bd9653f200f220920489ca2b5937696c318360405161189a91906121f2565b60405180910390a3505050565b600073ffffffffffffffffffffffffffffffffffffffff168473ffffffffffffffffffffffffffffffffffffffff1603611916576040517f08c379a000000000000000000000000000000000000000000000000000000000815260040161190d906132ae565b60405180910390fd5b6000611920611182565b9050600061192d85611b42565b9050600061193a85611b42565b905061194a838989858589611bbc565b600080600088815260200190815260200160002060008a73ffffffffffffffffffffffffffffffffffffffff1673ffffffffffffffffffffffffffffffffffffffff168152602001908152602001600020549050858110156119e1576040517f08c379a00000000000000000000000000000000000000000000000000000000081526004016119d890613340565b60405180910390fd5b85810360008089815260200190815260200160002060008b73ffffffffffffffffffffffffffffffffffffffff1673ffffffffffffffffffffffffffffffffffffffff168152602001908152602001600020819055508560008089815260200190815260200160002060008a73ffffffffffffffffffffffffffffffffffffffff1673ffffffffffffffffffffffffffffffffffffffff1681526020019081526020016000206000828254611a96919061312b565b925050819055508773ffffffffffffffffffffffffffffffffffffffff168973ffffffffffffffffffffffffffffffffffffffff168573ffffffffffffffffffffffffffffffffffffffff167fc3d58168c5ae7397731d063d5bbf3d657854427343f4c083240f7aacaa2d0f628a8a604051611b13929190613181565b60405180910390a4611b29848a8a86868a611bc4565b611b37848a8a8a8a8a611bcc565b505050505050505050565b60606000600167ffffffffffffffff811115611b6157611b60612228565b5b604051908082528060200260200182016040528015611b8f5781602001602082028036833780820191505090505b5090508281600081518110611ba757611ba6612ecf565b5b60200260200101818152505080915050919050565b505050505050565b505050505050565b611beb8473ffffffffffffffffffffffffffffffffffffffff16611f7a565b15611d9b578373ffffffffffffffffffffffffffffffffffffffff1663f23a6e6187878686866040518663ffffffff1660e01b8152600401611c3195949392919061347e565b6020604051808303816000875af1925050508015611c6d57506040513d601f19601f82011682018060405250810190611c6a91906134ed565b60015b611d1257611c79613527565b806308c379a003611cd55750611c8d613549565b80611c985750611cd7565b806040517f08c379a0000000000000000000000000000000000000000000000000000000008152600401611ccc9190612424565b60405180910390fd5b505b6040517f08c379a0000000000000000000000000000000000000000000000000000000008152600401611d099061364b565b60405180910390fd5b63f23a6e6160e01b7bffffffffffffffffffffffffffffffffffffffffffffffffffffffff1916817bffffffffffffffffffffffffffffffffffffffffffffffffffffffff191614611d99576040517f08c379a0000000000000000000000000000000000000000000000000000000008152600401611d90906136dd565b60405180910390fd5b505b505050505050565b611dc28473ffffffffffffffffffffffffffffffffffffffff16611f7a565b15611f72578373ffffffffffffffffffffffffffffffffffffffff1663bc197c8187878686866040518663ffffffff1660e01b8152600401611e089594939291906136fd565b6020604051808303816000875af1925050508015611e4457506040513d601f19601f82011682018060405250810190611e4191906134ed565b60015b611ee957611e50613527565b806308c379a003611eac5750611e64613549565b80611e6f5750611eae565b806040517f08c379a0000000000000000000000000000000000000000000000000000000008152600401611ea39190612424565b60405180910390fd5b505b6040517f08c379a0000000000000000000000000000000000000000000000000000000008152600401611ee09061364b565b60405180910390fd5b63bc197c8160e01b7bffffffffffffffffffffffffffffffffffffffffffffffffffffffff1916817bffffffffffffffffffffffffffffffffffffffffffffffffffffffff191614611f70576040517f08c379a0000000000000000000000000000000000000000000000000000000008152600401611f67906136dd565b60405180910390fd5b505b505050505050565b6000808273ffffffffffffffffffffffffffffffffffffffff163b119050919050565b828054611fa990612d0e565b90600052602060002090601f016020900481019282611fcb5760008555612012565b82601f10611fe457805160ff1916838001178555612012565b82800160010185558215612012579182015b82811115612011578251825591602001919060010190611ff6565b5b50905061201f9190612023565b5090565b5b8082111561203c576000816000905550600101612024565b5090565b6000604051905090565b600080fd5b600080fd5b600073ffffffffffffffffffffffffffffffffffffffff82169050919050565b600061207f82612054565b9050919050565b61208f81612074565b811461209a57600080fd5b50565b6000813590506120ac81612086565b92915050565b6000819050919050565b6120c5816120b2565b81146120d057600080fd5b50565b6000813590506120e2816120bc565b92915050565b600080604083850312156120ff576120fe61204a565b5b600061210d8582860161209d565b925050602061211e858286016120d3565b9150509250929050565b612131816120b2565b82525050565b600060208201905061214c6000830184612128565b92915050565b60007fffffffff0000000000000000000000000000000000000000000000000000000082169050919050565b61218781612152565b811461219257600080fd5b50565b6000813590506121a48161217e565b92915050565b6000602082840312156121c0576121bf61204a565b5b60006121ce84828501612195565b91505092915050565b60008115159050919050565b6121ec816121d7565b82525050565b600060208201905061220760008301846121e3565b92915050565b600080fd5b600080fd5b6000601f19601f8301169050919050565b7f4e487b7100000000000000000000000000000000000000000000000000000000600052604160045260246000fd5b61226082612217565b810181811067ffffffffffffffff8211171561227f5761227e612228565b5b80604052505050565b6000612292612040565b905061229e8282612257565b919050565b600067ffffffffffffffff8211156122be576122bd612228565b5b6122c782612217565b9050602081019050919050565b82818337600083830152505050565b60006122f66122f1846122a3565b612288565b90508281526020810184848401111561231257612311612212565b5b61231d8482856122d4565b509392505050565b600082601f83011261233a5761233961220d565b5b813561234a8482602086016122e3565b91505092915050565b6000602082840312156123695761236861204a565b5b600082013567ffffffffffffffff8111156123875761238661204f565b5b61239384828501612325565b91505092915050565b600081519050919050565b600082825260208201905092915050565b60005b838110156123d65780820151818401526020810190506123bb565b838111156123e5576000848401525b50505050565b60006123f68261239c565b61240081856123a7565b93506124108185602086016123b8565b61241981612217565b840191505092915050565b6000602082019050818103600083015261243e81846123eb565b905092915050565b60006020828403121561245c5761245b61204a565b5b600061246a848285016120d3565b91505092915050565b60008060006060848603121561248c5761248b61204a565b5b600061249a8682870161209d565b93505060206124ab868287016120d3565b92505060406124bc868287016120d3565b9150509250925092565b600067ffffffffffffffff8211156124e1576124e0612228565b5b602082029050602081019050919050565b600080fd5b600061250a612505846124c6565b612288565b9050808382526020820190506020840283018581111561252d5761252c6124f2565b5b835b81811015612556578061254288826120d3565b84526020840193505060208101905061252f565b5050509392505050565b600082601f8301126125755761257461220d565b5b81356125858482602086016124f7565b91505092915050565b600067ffffffffffffffff8211156125a9576125a8612228565b5b6125b282612217565b9050602081019050919050565b60006125d26125cd8461258e565b612288565b9050828152602081018484840111156125ee576125ed612212565b5b6125f98482856122d4565b509392505050565b600082601f8301126126165761261561220d565b5b81356126268482602086016125bf565b91505092915050565b600080600080600060a0868803121561264b5761264a61204a565b5b60006126598882890161209d565b955050602061266a8882890161209d565b945050604086013567ffffffffffffffff81111561268b5761268a61204f565b5b61269788828901612560565b935050606086013567ffffffffffffffff8111156126b8576126b761204f565b5b6126c488828901612560565b925050608086013567ffffffffffffffff8111156126e5576126e461204f565b5b6126f188828901612601565b9150509295509295909350565b600067ffffffffffffffff82111561271957612718612228565b5b602082029050602081019050919050565b600061273d612738846126fe565b612288565b905080838252602082019050602084028301858111156127605761275f6124f2565b5b835b818110156127895780612775888261209d565b845260208401935050602081019050612762565b5050509392505050565b600082601f8301126127a8576127a761220d565b5b81356127b884826020860161272a565b91505092915050565b600080604083850312156127d8576127d761204a565b5b600083013567ffffffffffffffff8111156127f6576127f561204f565b5b61280285828601612793565b925050602083013567ffffffffffffffff8111156128235761282261204f565b5b61282f85828601612560565b9150509250929050565b600081519050919050565b600082825260208201905092915050565b6000819050602082019050919050565b61286e816120b2565b82525050565b60006128808383612865565b60208301905092915050565b6000602082019050919050565b60006128a482612839565b6128ae8185612844565b93506128b983612855565b8060005b838110156128ea5781516128d18882612874565b97506128dc8361288c565b9250506001810190506128bd565b5085935050505092915050565b600060208201905081810360008301526129118184612899565b905092915050565b61292281612074565b82525050565b600060208201905061293d6000830184612919565b92915050565b61294c816121d7565b811461295757600080fd5b50565b60008135905061296981612943565b92915050565b600080604083850312156129865761298561204a565b5b60006129948582860161209d565b92505060206129a58582860161295a565b9150509250929050565b600081519050919050565b600082825260208201905092915050565b6000819050602082019050919050565b600082825260208201905092915050565b60006129f78261239c565b612a0181856129db565b9350612a118185602086016123b8565b612a1a81612217565b840191505092915050565b6000612a3183836129ec565b905092915050565b6000602082019050919050565b6000612a51826129af565b612a5b81856129ba565b935083602082028501612a6d856129cb565b8060005b85811015612aa95784840389528151612a8a8582612a25565b9450612a9583612a39565b925060208a01995050600181019050612a71565b50829750879550505050505092915050565b60006020820190508181036000830152612ad58184612a46565b905092915050565b60008060408385031215612af457612af361204a565b5b6000612b028582860161209d565b9250506020612b138582860161209d565b9150509250929050565b600080600080600060a08688031215612b3957612b3861204a565b5b6000612b478882890161209d565b9550506020612b588882890161209d565b9450506040612b69888289016120d3565b9350506060612b7a888289016120d3565b925050608086013567ffffffffffffffff811115612b9b57612b9a61204f565b5b612ba788828901612601565b9150509295509295909350565b600060208284031215612bca57612bc961204a565b5b6000612bd88482850161209d565b91505092915050565b7f455243313135353a2062616c616e636520717565727920666f7220746865207a60008201527f65726f2061646472657373000000000000000000000000000000000000000000602082015250565b6000612c3d602b836123a7565b9150612c4882612be1565b604082019050919050565b60006020820190508181036000830152612c6c81612c30565b9050919050565b7f4f776e61626c653a2063616c6c6572206973206e6f7420746865206f776e6572600082015250565b6000612ca96020836123a7565b9150612cb482612c73565b602082019050919050565b60006020820190508181036000830152612cd881612c9c565b9050919050565b7f4e487b7100000000000000000000000000000000000000000000000000000000600052602260045260246000fd5b60006002820490506001821680612d2657607f821691505b602082108103612d3957612d38612cdf565b5b50919050565b7f43616e6e6f74206d696e74207468697320746f6b656e00000000000000000000600082015250565b6000612d756016836123a7565b9150612d8082612d3f565b602082019050919050565b60006020820190508181036000830152612da481612d68565b9050919050565b7f455243313135353a207472616e736665722063616c6c6572206973206e6f742060008201527f6f776e6572206e6f7220617070726f7665640000000000000000000000000000602082015250565b6000612e076032836123a7565b9150612e1282612dab565b604082019050919050565b60006020820190508181036000830152612e3681612dfa565b9050919050565b7f455243313135353a206163636f756e747320616e6420696473206c656e67746860008201527f206d69736d617463680000000000000000000000000000000000000000000000602082015250565b6000612e996029836123a7565b9150612ea482612e3d565b604082019050919050565b60006020820190508181036000830152612ec881612e8c565b9050919050565b7f4e487b7100000000000000000000000000000000000000000000000000000000600052603260045260246000fd5b7f4e487b7100000000000000000000000000000000000000000000000000000000600052601160045260246000fd5b6000612f38826120b2565b91507fffffffffffffffffffffffffffffffffffffffffffffffffffffffffffffffff8203612f6a57612f69612efe565b5b600182019050919050565b7f455243313135353a2063616c6c6572206973206e6f74206f776e6572206e6f7260008201527f20617070726f7665640000000000000000000000000000000000000000000000602082015250565b6000612fd16029836123a7565b9150612fdc82612f75565b604082019050919050565b6000602082019050818103600083015261300081612fc4565b9050919050565b7f4f776e61626c653a206e6577206f776e657220697320746865207a65726f206160008201527f6464726573730000000000000000000000000000000000000000000000000000602082015250565b60006130636026836123a7565b915061306e82613007565b604082019050919050565b6000602082019050818103600083015261309281613056565b9050919050565b7f455243313135353a206d696e7420746f20746865207a65726f2061646472657360008201527f7300000000000000000000000000000000000000000000000000000000000000602082015250565b60006130f56021836123a7565b915061310082613099565b604082019050919050565b60006020820190508181036000830152613124816130e8565b9050919050565b6000613136826120b2565b9150613141836120b2565b9250827fffffffffffffffffffffffffffffffffffffffffffffffffffffffffffffffff0382111561317657613175612efe565b5b828201905092915050565b60006040820190506131966000830185612128565b6131a36020830184612128565b9392505050565b7f455243313135353a2069647320616e6420616d6f756e7473206c656e6774682060008201527f6d69736d61746368000000000000000000000000000000000000000000000000602082015250565b60006132066028836123a7565b9150613211826131aa565b604082019050919050565b60006020820190508181036000830152613235816131f9565b9050919050565b7f455243313135353a207472616e7366657220746f20746865207a65726f20616460008201527f6472657373000000000000000000000000000000000000000000000000000000602082015250565b60006132986025836123a7565b91506132a38261323c565b604082019050919050565b600060208201905081810360008301526132c78161328b565b9050919050565b7f455243313135353a20696e73756666696369656e742062616c616e636520666f60008201527f72207472616e7366657200000000000000000000000000000000000000000000602082015250565b600061332a602a836123a7565b9150613335826132ce565b604082019050919050565b600060208201905081810360008301526133598161331d565b9050919050565b6000604082019050818103600083015261337a8185612899565b9050818103602083015261338e8184612899565b90509392505050565b7f455243313135353a2073657474696e6720617070726f76616c2073746174757360008201527f20666f722073656c660000000000000000000000000000000000000000000000602082015250565b60006133f36029836123a7565b91506133fe82613397565b604082019050919050565b60006020820190508181036000830152613422816133e6565b9050919050565b600081519050919050565b600082825260208201905092915050565b600061345082613429565b61345a8185613434565b935061346a8185602086016123b8565b61347381612217565b840191505092915050565b600060a0820190506134936000830188612919565b6134a06020830187612919565b6134ad6040830186612128565b6134ba6060830185612128565b81810360808301526134cc8184613445565b90509695505050505050565b6000815190506134e78161217e565b92915050565b6000602082840312156135035761350261204a565b5b6000613511848285016134d8565b91505092915050565b60008160e01c9050919050565b600060033d11156135465760046000803e61354360005161351a565b90505b90565b600060443d106135d65761355b612040565b60043d036004823e80513d602482011167ffffffffffffffff821117156135835750506135d6565b808201805167ffffffffffffffff8111156135a157505050506135d6565b80602083010160043d0385018111156135be5750505050506135d6565b6135cd82602001850186612257565b82955050505050505b90565b7f455243313135353a207472616e7366657220746f206e6f6e204552433131353560008201527f526563656976657220696d706c656d656e746572000000000000000000000000602082015250565b60006136356034836123a7565b9150613640826135d9565b604082019050919050565b6000602082019050818103600083015261366481613628565b9050919050565b7f455243313135353a204552433131353552656365697665722072656a6563746560008201527f6420746f6b656e73000000000000000000000000000000000000000000000000602082015250565b60006136c76028836123a7565b91506136d28261366b565b604082019050919050565b600060208201905081810360008301526136f6816136ba565b9050919050565b600060a0820190506137126000830188612919565b61371f6020830187612919565b81810360408301526137318186612899565b905081810360608301526137458185612899565b905081810360808301526137598184613445565b9050969550505050505056fea26469706673582212203950d2002585d5ff04d039aca7682ce17007f8fa5bd8d9e6e493e2ce081b91e564736f6c634300080e0033",
  "linkReferences": {},
  "deployedLinkReferences": {}
}