{
  "_format": "hh-sol-artifact-1",
  "contractName": "CustomToken",
  "sourceName": "contracts/CustomToken.sol",
  "abi": [
    {
      "anonymous": false,
      "inputs": [
        {
          "indexed": false,
          "internalType": "string",
          "name": "_name",
          "type": "string"
        },
        {
          "indexed": false,
          "internalType": "string",
          "name": "_symbol",
          "type": "string"
        },
        {
          "indexed": false,
          "internalType": "string",
          "name": "_tokenType",
          "type": "string"
        }
      ],
      "name": "Created",
      "type": "event"
    },
    {
      "anonymous": false,
      "inputs": [
        {
          "indexed": false,
          "internalType": "address",
          "name": "owner",
          "type": "address"
        }
      ],
      "name": "Returned",
      "type": "event"
    },
    {
      "inputs": [
        {
          "components": [
            {
              "internalType": "string",
              "name": "name",
              "type": "string"
            },
            {
              "internalType": "string",
              "name": "symbol",
              "type": "string"
            },
            {
              "internalType": "string",
              "name": "tokenType",
              "type": "string"
            },
            {
              "internalType": "uint256",
              "name": "initialSupply",
              "type": "uint256"
            },
            {
              "internalType": "uint256",
              "name": "decimals",
              "type": "uint256"
            },
            {
              "internalType": "bool",
              "name": "isBurnable",
              "type": "bool"
            },
            {
              "internalType": "bool",
              "name": "isMintable",
              "type": "bool"
            },
            {
              "internalType": "bool",
              "name": "doesHolderRedistribution",
              "type": "bool"
            },
            {
              "internalType": "bool",
              "name": "hasFeesOrTaxes",
              "type": "bool"
            },
            {
              "internalType": "uint8",
              "name": "holdersRewardFee",
              "type": "uint8"
            },
            {
              "internalType": "uint8",
              "name": "burnFeePercentage",
              "type": "uint8"
            },
            {
              "internalType": "uint8",
              "name": "transactionTaxPercentage",
              "type": "uint8"
            },
            {
              "internalType": "address",
              "name": "taxReceivingAddress",
              "type": "address"
            }
          ],
          "internalType": "struct CustomToken.Token",
          "name": "_token",
          "type": "tuple"
        }
      ],
      "name": "create",
      "outputs": [],
      "stateMutability": "nonpayable",
      "type": "function"
    },
    {
      "inputs": [],
      "name": "returnTokens",
      "outputs": [
        {
          "components": [
            {
              "internalType": "string",
              "name": "name",
              "type": "string"
            },
            {
              "internalType": "string",
              "name": "symbol",
              "type": "string"
            },
            {
              "internalType": "string",
              "name": "tokenType",
              "type": "string"
            },
            {
              "internalType": "uint256",
              "name": "initialSupply",
              "type": "uint256"
            },
            {
              "internalType": "uint256",
              "name": "decimals",
              "type": "uint256"
            },
            {
              "internalType": "bool",
              "name": "isBurnable",
              "type": "bool"
            },
            {
              "internalType": "bool",
              "name": "isMintable",
              "type": "bool"
            },
            {
              "internalType": "bool",
              "name": "doesHolderRedistribution",
              "type": "bool"
            },
            {
              "internalType": "bool",
              "name": "hasFeesOrTaxes",
              "type": "bool"
            },
            {
              "internalType": "uint8",
              "name": "holdersRewardFee",
              "type": "uint8"
            },
            {
              "internalType": "uint8",
              "name": "burnFeePercentage",
              "type": "uint8"
            },
            {
              "internalType": "uint8",
              "name": "transactionTaxPercentage",
              "type": "uint8"
            },
            {
              "internalType": "address",
              "name": "taxReceivingAddress",
              "type": "address"
            }
          ],
          "internalType": "struct CustomToken.Token[]",
          "name": "",
          "type": "tuple[]"
        }
      ],
      "stateMutability": "nonpayable",
      "type": "function"
    }
  ],
  "bytecode": "0x608060405234801561001057600080fd5b50611faf806100206000396000f3fe608060405234801561001057600080fd5b50600436106100365760003560e01c806334e911511461003b578063f9718fc814610057575b600080fd5b610055600480360381019061005091906114e9565b610075565b005b61005f6107b4565b60405161006c9190611935565b60405180910390f35b806000015161008381610b70565b156100c3576040517f08c379a00000000000000000000000000000000000000000000000000000000081526004016100ba90611a63565b60405180910390fd5b81602001516100d181610b70565b15610111576040517f08c379a000000000000000000000000000000000000000000000000000000000815260040161010890611a63565b60405180910390fd5b826040015161011f81610b70565b1561015f576040517f08c379a000000000000000000000000000000000000000000000000000000000815260040161015690611a63565b60405180910390fd5b60008460600151116101a6576040517f08c379a000000000000000000000000000000000000000000000000000000000815260040161019d906119e3565b60405180910390fd5b60008460800151116101ed576040517f08c379a00000000000000000000000000000000000000000000000000000000081526004016101e490611a43565b60405180910390fd5b61023084604001516040518060400160405280600581526020017f4552433230000000000000000000000000000000000000000000000000000000815250610d6d565b8061027a575061027984604001516040518060400160405280600681526020017f4552433732310000000000000000000000000000000000000000000000000000815250610d6d565b5b806102c457506102c384604001516040518060400160405280600781526020017f4552433131353500000000000000000000000000000000000000000000000000815250610d6d565b5b610303576040517f08c379a00000000000000000000000000000000000000000000000000000000081526004016102fa906119a3565b60405180910390fd5b8360e001511561035a57600a84610120015160ff161115610359576040517f08c379a000000000000000000000000000000000000000000000000000000000815260040161035090611a03565b60405180910390fd5b5b8361010001511561047357600a84610140015160ff1611156103b1576040517f08c379a00000000000000000000000000000000000000000000000000000000081526004016103a890611aa3565b60405180910390fd5b600a84610160015160ff1611156103fd576040517f08c379a00000000000000000000000000000000000000000000000000000000081526004016103f4906119c3565b60405180910390fd5b600073ffffffffffffffffffffffffffffffffffffffff1684610180015173ffffffffffffffffffffffffffffffffffffffff161415610472576040517f08c379a000000000000000000000000000000000000000000000000000000000815260040161046990611a83565b60405180910390fd5b5b6104b684604001516040518060400160405280600581526020017f4552433230000000000000000000000000000000000000000000000000000000815250610d6d565b156104c05761050f565b61050384604001516040518060400160405280600681526020017f4552433732310000000000000000000000000000000000000000000000000000815250610d6d565b1561050d5761050e565b5b5b60008060003373ffffffffffffffffffffffffffffffffffffffff1673ffffffffffffffffffffffffffffffffffffffff1681526020019081526020016000209050808590806001815401808255809150506001900390600052602060002090600602016000909190919091506000820151816000019080519060200190610598929190610dc6565b5060208201518160010190805190602001906105b5929190610dc6565b5060408201518160020190805190602001906105d2929190610dc6565b50606082015181600301556080820151816004015560a08201518160050160006101000a81548160ff02191690831515021790555060c08201518160050160016101000a81548160ff02191690831515021790555060e08201518160050160026101000a81548160ff0219169083151502179055506101008201518160050160036101000a81548160ff0219169083151502179055506101208201518160050160046101000a81548160ff021916908360ff1602179055506101408201518160050160056101000a81548160ff021916908360ff1602179055506101608201518160050160066101000a81548160ff021916908360ff1602179055506101808201518160050160076101000a81548173ffffffffffffffffffffffffffffffffffffffff021916908373ffffffffffffffffffffffffffffffffffffffff1602179055505050806000803373ffffffffffffffffffffffffffffffffffffffff1673ffffffffffffffffffffffffffffffffffffffff168152602001908152602001600020908054610765929190610e4c565b507f0314a863b2e94adb6cd6b5a2e580b6c339838ac7a670b298d8eab29a01df03a88560000151866020015187604001516040516107a593929190611957565b60405180910390a15050505050565b606060008060003373ffffffffffffffffffffffffffffffffffffffff1673ffffffffffffffffffffffffffffffffffffffff168152602001908152602001600020805480602002602001604051908101604052809291908181526020016000905b82821015610b2c5783829060005260206000209060060201604051806101a001604052908160008201805461084a90611c21565b80601f016020809104026020016040519081016040528092919081815260200182805461087690611c21565b80156108c35780601f10610898576101008083540402835291602001916108c3565b820191906000526020600020905b8154815290600101906020018083116108a657829003601f168201915b505050505081526020016001820180546108dc90611c21565b80601f016020809104026020016040519081016040528092919081815260200182805461090890611c21565b80156109555780601f1061092a57610100808354040283529160200191610955565b820191906000526020600020905b81548152906001019060200180831161093857829003601f168201915b5050505050815260200160028201805461096e90611c21565b80601f016020809104026020016040519081016040528092919081815260200182805461099a90611c21565b80156109e75780601f106109bc576101008083540402835291602001916109e7565b820191906000526020600020905b8154815290600101906020018083116109ca57829003601f168201915b5050505050815260200160038201548152602001600482015481526020016005820160009054906101000a900460ff161515151581526020016005820160019054906101000a900460ff161515151581526020016005820160029054906101000a900460ff161515151581526020016005820160039054906101000a900460ff161515151581526020016005820160049054906101000a900460ff1660ff1660ff1681526020016005820160059054906101000a900460ff1660ff1660ff1681526020016005820160069054906101000a900460ff1660ff1660ff1681526020016005820160079054906101000a900473ffffffffffffffffffffffffffffffffffffffff1673ffffffffffffffffffffffffffffffffffffffff1673ffffffffffffffffffffffffffffffffffffffff168152505081526020019060010190610816565b5050505090507f794e5f33cbe14d369961935fa8b655f35d33f32cb5073f1f90818b676ac9e0bc33604051610b61919061191a565b60405180910390a18091505090565b600080825111610bb5576040517f08c379a0000000000000000000000000000000000000000000000000000000008152600401610bac90611a23565b60405180910390fd5b600382511015610bc85760019050610d68565b60008290506000600290505b81518160ff161015610d61576000600282610bef9190611cae565b60ff16148015610c8757507f3200000000000000000000000000000000000000000000000000000000000000828260ff1681518110610c57577f4e487b7100000000000000000000000000000000000000000000000000000000600052603260045260246000fd5b602001015160f81c60f81b7effffffffffffffffffffffffffffffffffffffffffffffffffffffffffffff191614155b15610c9757600092505050610d68565b6001600282610ca69190611cae565b60ff16148015610d3e57507f3000000000000000000000000000000000000000000000000000000000000000828260ff1681518110610d0e577f4e487b7100000000000000000000000000000000000000000000000000000000600052603260045260246000fd5b602001015160f81c60f81b7effffffffffffffffffffffffffffffffffffffffffffffffffffffffffffff191614155b15610d4e57600092505050610d68565b8080610d5990611c84565b915050610bd4565b5060019150505b919050565b600081604051602001610d809190611903565b6040516020818303038152906040528051906020012083604051602001610da79190611903565b6040516020818303038152906040528051906020012014905092915050565b828054610dd290611c21565b90600052602060002090601f016020900481019282610df45760008555610e3b565b82601f10610e0d57805160ff1916838001178555610e3b565b82800160010185558215610e3b579182015b82811115610e3a578251825591602001919060010190610e1f565b5b509050610e4891906110bd565b5090565b8280548282559060005260206000209060060281019282156110ac5760005260206000209160060282015b828111156110ab5782826000820181600001908054610e9590611c21565b610ea09291906110da565b506001820181600101908054610eb590611c21565b610ec09291906110da565b506002820181600201908054610ed590611c21565b610ee09291906110da565b5060038201548160030155600482015481600401556005820160009054906101000a900460ff168160050160006101000a81548160ff0219169083151502179055506005820160019054906101000a900460ff168160050160016101000a81548160ff0219169083151502179055506005820160029054906101000a900460ff168160050160026101000a81548160ff0219169083151502179055506005820160039054906101000a900460ff168160050160036101000a81548160ff0219169083151502179055506005820160049054906101000a900460ff168160050160046101000a81548160ff021916908360ff1602179055506005820160059054906101000a900460ff168160050160056101000a81548160ff021916908360ff1602179055506005820160069054906101000a900460ff168160050160066101000a81548160ff021916908360ff1602179055506005820160079054906101000a900473ffffffffffffffffffffffffffffffffffffffff168160050160076101000a81548173ffffffffffffffffffffffffffffffffffffffff021916908373ffffffffffffffffffffffffffffffffffffffff160217905550505091600601919060060190610e77565b5b5090506110b99190611167565b5090565b5b808211156110d65760008160009055506001016110be565b5090565b8280546110e690611c21565b90600052602060002090601f0160209004810192826111085760008555611156565b82601f106111195780548555611156565b8280016001018555821561115657600052602060002091601f016020900482015b8281111561115557825482559160010191906001019061113a565b5b50905061116391906110bd565b5090565b5b8082111561126d57600080820160006111819190611271565b6001820160006111919190611271565b6002820160006111a19190611271565b600382016000905560048201600090556005820160006101000a81549060ff02191690556005820160016101000a81549060ff02191690556005820160026101000a81549060ff02191690556005820160036101000a81549060ff02191690556005820160046101000a81549060ff02191690556005820160056101000a81549060ff02191690556005820160066101000a81549060ff02191690556005820160076101000a81549073ffffffffffffffffffffffffffffffffffffffff021916905550600601611168565b5090565b50805461127d90611c21565b6000825580601f1061128f57506112ae565b601f0160209004906000526020600020908101906112ad91906110bd565b5b50565b60006112c46112bf84611ae8565b611ac3565b9050828152602081018484840111156112dc57600080fd5b6112e7848285611bdf565b509392505050565b6000813590506112fe81611f1d565b92915050565b60008135905061131381611f34565b92915050565b600082601f83011261132a57600080fd5b813561133a8482602086016112b1565b91505092915050565b60006101a0828403121561135657600080fd5b6113616101a0611ac3565b9050600082013567ffffffffffffffff81111561137d57600080fd5b61138984828501611319565b600083015250602082013567ffffffffffffffff8111156113a957600080fd5b6113b584828501611319565b602083015250604082013567ffffffffffffffff8111156113d557600080fd5b6113e184828501611319565b60408301525060606113f5848285016114bf565b6060830152506080611409848285016114bf565b60808301525060a061141d84828501611304565b60a08301525060c061143184828501611304565b60c08301525060e061144584828501611304565b60e08301525061010061145a84828501611304565b61010083015250610120611470848285016114d4565b61012083015250610140611486848285016114d4565b6101408301525061016061149c848285016114d4565b610160830152506101806114b2848285016112ef565b6101808301525092915050565b6000813590506114ce81611f4b565b92915050565b6000813590506114e381611f62565b92915050565b6000602082840312156114fb57600080fd5b600082013567ffffffffffffffff81111561151557600080fd5b61152184828501611343565b91505092915050565b600061153683836117be565b905092915050565b61154781611b8a565b82525050565b61155681611b8a565b82525050565b600061156782611b29565b6115718185611b4c565b93508360208202850161158385611b19565b8060005b858110156115bf57848403895281516115a0858261152a565b94506115ab83611b3f565b925060208a01995050600181019050611587565b50829750879550505050505092915050565b6115da81611b9c565b82525050565b60006115eb82611b34565b6115f58185611b5d565b9350611605818560208601611bee565b61160e81611d9b565b840191505092915050565b600061162482611b34565b61162e8185611b6e565b935061163e818560208601611bee565b61164781611d9b565b840191505092915050565b600061165d82611b34565b6116678185611b7f565b9350611677818560208601611bee565b80840191505092915050565b6000611690601283611b6e565b915061169b82611dac565b602082019050919050565b60006116b3601583611b6e565b91506116be82611dd5565b602082019050919050565b60006116d6601d83611b6e565b91506116e182611dfe565b602082019050919050565b60006116f9601883611b6e565b915061170482611e27565b602082019050919050565b600061171c601783611b6e565b915061172782611e50565b602082019050919050565b600061173f601e83611b6e565b915061174a82611e79565b602082019050919050565b6000611762601c83611b6e565b915061176d82611ea2565b602082019050919050565b6000611785601d83611b6e565b915061179082611ecb565b602082019050919050565b60006117a8600e83611b6e565b91506117b382611ef4565b602082019050919050565b60006101a08301600083015184820360008601526117dc82826115e0565b915050602083015184820360208601526117f682826115e0565b9150506040830151848203604086015261181082826115e0565b915050606083015161182560608601826118e5565b50608083015161183860808601826118e5565b5060a083015161184b60a08601826115d1565b5060c083015161185e60c08601826115d1565b5060e083015161187160e08601826115d1565b506101008301516118866101008601826115d1565b5061012083015161189b6101208601826118f4565b506101408301516118b06101408601826118f4565b506101608301516118c56101608601826118f4565b506101808301516118da61018086018261153e565b508091505092915050565b6118ee81611bc8565b82525050565b6118fd81611bd2565b82525050565b600061190f8284611652565b915081905092915050565b600060208201905061192f600083018461154d565b92915050565b6000602082019050818103600083015261194f818461155c565b905092915050565b600060608201905081810360008301526119718186611619565b905081810360208301526119858185611619565b905081810360408301526119998184611619565b9050949350505050565b600060208201905081810360008301526119bc81611683565b9050919050565b600060208201905081810360008301526119dc816116a6565b9050919050565b600060208201905081810360008301526119fc816116c9565b9050919050565b60006020820190508181036000830152611a1c816116ec565b9050919050565b60006020820190508181036000830152611a3c8161170f565b9050919050565b60006020820190508181036000830152611a5c81611732565b9050919050565b60006020820190508181036000830152611a7c81611755565b9050919050565b60006020820190508181036000830152611a9c81611778565b9050919050565b60006020820190508181036000830152611abc8161179b565b9050919050565b6000611acd611ade565b9050611ad98282611c53565b919050565b6000604051905090565b600067ffffffffffffffff821115611b0357611b02611d6c565b5b611b0c82611d9b565b9050602081019050919050565b6000819050602082019050919050565b600081519050919050565b600081519050919050565b6000602082019050919050565b600082825260208201905092915050565b600082825260208201905092915050565b600082825260208201905092915050565b600081905092915050565b6000611b9582611ba8565b9050919050565b60008115159050919050565b600073ffffffffffffffffffffffffffffffffffffffff82169050919050565b6000819050919050565b600060ff82169050919050565b82818337600083830152505050565b60005b83811015611c0c578082015181840152602081019050611bf1565b83811115611c1b576000848401525b50505050565b60006002820490506001821680611c3957607f821691505b60208210811415611c4d57611c4c611d3d565b5b50919050565b611c5c82611d9b565b810181811067ffffffffffffffff82111715611c7b57611c7a611d6c565b5b80604052505050565b6000611c8f82611bd2565b915060ff821415611ca357611ca2611cdf565b5b600182019050919050565b6000611cb982611bd2565b9150611cc483611bd2565b925082611cd457611cd3611d0e565b5b828206905092915050565b7f4e487b7100000000000000000000000000000000000000000000000000000000600052601160045260246000fd5b7f4e487b7100000000000000000000000000000000000000000000000000000000600052601260045260246000fd5b7f4e487b7100000000000000000000000000000000000000000000000000000000600052602260045260246000fd5b7f4e487b7100000000000000000000000000000000000000000000000000000000600052604160045260246000fd5b6000601f19601f8301169050919050565b7f496e76616c696420746f6b656e20747970650000000000000000000000000000600082015250565b7f4c61726765207472616e73616374696f6e207461780000000000000000000000600082015250565b7f496e697469616c2073686f756c64206265206d6f7265207468616e2030000000600082015250565b7f4c6172676520686f6c6465727320726577617264206665650000000000000000600082015250565b7f537472696e67206973206e756c6c206f7220656d707479000000000000000000600082015250565b7f446563696d616c732073686f756c64206265206d6f7265207468616e20300000600082015250565b7f537472696e67206973206e756c6c206f72207768697465737061636500000000600082015250565b7f496e76616c69642074617820726563656976696e672061646472657373000000600082015250565b7f4c61726765206275726e20666565000000000000000000000000000000000000600082015250565b611f2681611b8a565b8114611f3157600080fd5b50565b611f3d81611b9c565b8114611f4857600080fd5b50565b611f5481611bc8565b8114611f5f57600080fd5b50565b611f6b81611bd2565b8114611f7657600080fd5b5056fea2646970667358221220e25fa3e2b10944ba1e4e21d4d88461bc1a0ab491cba1577eed8504a37685bce864736f6c63430008040033",
  "linkReferences": {},
  "deployedLinkReferences": {}
}